{
  "_format": "hh-sol-artifact-1",
  "contractName": "HashChan3",
  "sourceName": "contracts/HashChan3.sol",
  "abi": [
    {
      "inputs": [],
      "stateMutability": "nonpayable",
      "type": "constructor"
    },
    {
      "anonymous": false,
      "inputs": [
        {
          "indexed": true,
          "internalType": "uint256",
          "name": "boardId",
          "type": "uint256"
        },
        {
          "indexed": false,
          "internalType": "string",
          "name": "name",
          "type": "string"
        },
        {
          "indexed": false,
          "internalType": "string",
          "name": "symbol",
          "type": "string"
        },
        {
          "indexed": false,
          "internalType": "string",
          "name": "description",
          "type": "string"
        },
        {
          "indexed": false,
          "internalType": "string",
          "name": "bannerUrl",
          "type": "string"
        },
        {
          "indexed": false,
          "internalType": "string",
          "name": "bannerCID",
          "type": "string"
        },
        {
          "indexed": false,
          "internalType": "string[]",
          "name": "rules",
          "type": "string[]"
        }
      ],
      "name": "NewBoard",
      "type": "event"
    },
    {
      "anonymous": false,
      "inputs": [
        {
          "indexed": false,
          "internalType": "uint256",
          "name": "boardId",
          "type": "uint256"
        },
        {
          "indexed": true,
          "internalType": "bytes32",
          "name": "threadId",
          "type": "bytes32"
        },
        {
          "indexed": true,
          "internalType": "bytes32",
          "name": "postId",
          "type": "bytes32"
        },
        {
          "indexed": false,
          "internalType": "bytes32[]",
          "name": "replyIds",
          "type": "bytes32[]"
        },
        {
          "indexed": true,
          "internalType": "address",
          "name": "creator",
          "type": "address"
        },
        {
          "indexed": false,
          "internalType": "string",
          "name": "imgUrl",
          "type": "string"
        },
        {
          "indexed": false,
          "internalType": "string",
          "name": "imgCID",
          "type": "string"
        },
        {
          "indexed": false,
          "internalType": "string",
          "name": "content",
          "type": "string"
        }
      ],
      "name": "NewPost",
      "type": "event"
    },
    {
      "anonymous": false,
      "inputs": [
        {
          "indexed": true,
          "internalType": "uint256",
          "name": "boardId",
          "type": "uint256"
        },
        {
          "indexed": true,
          "internalType": "bytes32",
          "name": "threadId",
          "type": "bytes32"
        },
        {
          "indexed": true,
          "internalType": "address",
          "name": "creator",
          "type": "address"
        },
        {
          "indexed": false,
          "internalType": "string",
          "name": "imgUrl",
          "type": "string"
        },
        {
          "indexed": false,
          "internalType": "string",
          "name": "imgCID",
          "type": "string"
        },
        {
          "indexed": false,
          "internalType": "string",
          "name": "title",
          "type": "string"
        },
        {
          "indexed": false,
          "internalType": "string",
          "name": "content",
          "type": "string"
        }
      ],
      "name": "NewThread",
      "type": "event"
    },
    {
      "inputs": [],
      "name": "boardCount",
      "outputs": [
        {
          "internalType": "uint256",
          "name": "",
          "type": "uint256"
        }
      ],
      "stateMutability": "view",
      "type": "function"
    },
    {
      "inputs": [
        {
          "internalType": "uint256",
          "name": "",
          "type": "uint256"
        }
      ],
      "name": "boards",
      "outputs": [
        {
          "internalType": "string",
          "name": "name",
          "type": "string"
        },
        {
          "internalType": "string",
          "name": "symbol",
          "type": "string"
        },
        {
          "internalType": "string",
          "name": "description",
          "type": "string"
        },
        {
          "internalType": "string",
          "name": "bannerUrl",
          "type": "string"
        },
        {
          "internalType": "string",
          "name": "bannerCID",
          "type": "string"
        }
      ],
      "stateMutability": "view",
      "type": "function"
    },
    {
      "inputs": [
        {
          "internalType": "string",
          "name": "name",
          "type": "string"
        },
        {
          "internalType": "string",
          "name": "symbol",
          "type": "string"
        },
        {
          "internalType": "string",
          "name": "description",
          "type": "string"
        },
        {
          "internalType": "string",
          "name": "bannerUrl",
          "type": "string"
        },
        {
          "internalType": "string",
          "name": "bannerCID",
          "type": "string"
        },
        {
          "internalType": "string[]",
          "name": "rules",
          "type": "string[]"
        }
      ],
      "name": "createBoard",
      "outputs": [
        {
          "internalType": "uint256",
          "name": "",
          "type": "uint256"
        }
      ],
      "stateMutability": "nonpayable",
      "type": "function"
    },
    {
      "inputs": [
        {
          "internalType": "uint256",
          "name": "boardId",
          "type": "uint256"
        },
        {
          "internalType": "bytes32",
          "name": "threadId",
          "type": "bytes32"
        },
        {
          "internalType": "bytes32[]",
          "name": "replyIds",
          "type": "bytes32[]"
        },
        {
          "internalType": "string",
          "name": "imgUrl",
          "type": "string"
        },
        {
          "internalType": "string",
          "name": "imgCID",
          "type": "string"
        },
        {
          "internalType": "string",
          "name": "content",
          "type": "string"
        }
      ],
      "name": "createPost",
      "outputs": [
        {
          "internalType": "bytes32",
          "name": "postId",
          "type": "bytes32"
        }
      ],
      "stateMutability": "nonpayable",
      "type": "function"
    },
    {
      "inputs": [
        {
          "internalType": "uint256",
          "name": "boardId",
          "type": "uint256"
        },
        {
          "internalType": "string",
          "name": "title",
          "type": "string"
        },
        {
          "internalType": "string",
          "name": "imgUrl",
          "type": "string"
        },
        {
          "internalType": "string",
          "name": "imgCID",
          "type": "string"
        },
        {
          "internalType": "string",
          "name": "content",
          "type": "string"
        }
      ],
      "name": "createThread",
      "outputs": [
        {
          "internalType": "bytes32",
          "name": "threadId",
          "type": "bytes32"
        }
      ],
      "stateMutability": "nonpayable",
      "type": "function"
    },
    {
      "inputs": [
        {
          "internalType": "uint256",
          "name": "id",
          "type": "uint256"
        }
      ],
      "name": "getBoard",
      "outputs": [
        {
          "components": [
            {
              "internalType": "string",
              "name": "name",
              "type": "string"
            },
            {
              "internalType": "string",
              "name": "symbol",
              "type": "string"
            },
            {
              "internalType": "string",
              "name": "description",
              "type": "string"
            },
            {
              "internalType": "string",
              "name": "bannerUrl",
              "type": "string"
            },
            {
              "internalType": "string",
              "name": "bannerCID",
              "type": "string"
            },
            {
              "internalType": "string[]",
              "name": "rules",
              "type": "string[]"
            }
          ],
          "internalType": "struct HashChan3.Board",
          "name": "",
          "type": "tuple"
        }
      ],
      "stateMutability": "view",
      "type": "function"
    }
  ],
  "bytecode": "0x608060405234801561001057600080fd5b5060408051600380825260808201909252600091816020015b6060815260200190600190039081610029579050509050604051806080016040528060488152602001611c3e604891398160008151811061006c5761006c6103e9565b60200260200101819052506040518060a0016040528060718152602001611bcd60719139816001815181106100a3576100a36103e9565b6020026020010181905250604051806080016040528060518152602001611ce960519139816002815181106100da576100da6103e9565b602002602001018190525061018b6040518060400160405280601581526020017f506f6c69746963616c6c7920496e636f72726563740000000000000000000000815250604051806040016040528060038152602001621c1bdb60ea1b8152506040518060a0016040528060638152602001611d3a60639139604051806060016040528060288152602001611c86602891396040518060600160405280603b8152602001611cae603b913986610192565b505061069f565b60006004865111156101dc5760405162461bcd60e51b815260206004820152600f60248201526e73796d626f6c20746f6f206c6f6e6760881b604482015260640160405180910390fd5b6040805160c0810182528881526020808201899052818301889052606082018790526080820186905260a08201859052600080548152600190915291909120815181906102299082610488565b506020820151600182019061023e9082610488565b50604082015160028201906102539082610488565b50606082015160038201906102689082610488565b506080820151600482019061027d9082610488565b5060a0820151805161029991600584019160209091019061030e565b5050600080549150806102ab8361055c565b919050555060016000546102bf9190610575565b7fddd5b452caa5e9dbe7b92b953976eec3150ad742856e27efd5ef798372dc58178888888888886040516102f8969594939291906105d4565b60405180910390a2506000549695505050505050565b828054828255906000526020600020908101928215610354579160200282015b8281111561035457825182906103449082610488565b509160200191906001019061032e565b50610360929150610364565b5090565b808211156103605760006103788282610381565b50600101610364565b50805461038d906103ff565b6000825580601f1061039d575050565b601f0160209004906000526020600020908101906103bb91906103be565b50565b5b8082111561036057600081556001016103bf565b634e487b7160e01b600052604160045260246000fd5b634e487b7160e01b600052603260045260246000fd5b600181811c9082168061041357607f821691505b60208210810361043357634e487b7160e01b600052602260045260246000fd5b50919050565b601f82111561048357806000526020600020601f840160051c810160208510156104605750805b601f840160051c820191505b81811015610480576000815560010161046c565b50505b505050565b81516001600160401b038111156104a1576104a16103d3565b6104b5816104af84546103ff565b84610439565b6020601f8211600181146104e957600083156104d15750848201515b600019600385901b1c1916600184901b178455610480565b600084815260208120601f198516915b8281101561051957878501518255602094850194600190920191016104f9565b50848210156105375786840151600019600387901b60f8161c191681555b50505050600190811b01905550565b634e487b7160e01b600052601160045260246000fd5b60006001820161056e5761056e610546565b5060010190565b8181038181111561058857610588610546565b92915050565b6000815180845260005b818110156105b457602081850181015186830182015201610598565b506000602082860101526020601f19601f83011685010191505092915050565b60c0815260006105e760c083018961058e565b82810360208401526105f9818961058e565b9050828103604084015261060d818861058e565b90508281036060840152610621818761058e565b90508281036080840152610635818661058e565b905082810360a084015280845180835260208301915060208160051b8401016020870160005b8381101561068d57601f1986840301855261067783835161058e565b602095860195909350919091019060010161065b565b50909c9b505050505050505050505050565b61151f806106ae6000396000f3fe608060405234801561001057600080fd5b50600436106100625760003560e01c806345e09e541461006757806390b1de26146100905780639a7083f9146100a7578063b9037db1146100cb578063f6001a48146100de578063fbdf895a146100f1575b600080fd5b61007a610075366004610b30565b610104565b6040516100879190610b8f565b60405180910390f35b61009960005481565b604051908152602001610087565b6100ba6100b5366004610b30565b61050e565b604051610087959493929190610c8f565b6100996100d9366004610db1565b6107e4565b6100996100ec366004610f07565b610867565b6100996100ff366004611057565b6108ef565b61013d6040518060c001604052806060815260200160608152602001606081526020016060815260200160608152602001606081525090565b60008281526001602052604090819020815160c081019092528054829082906101659061115a565b80601f01602080910402602001604051908101604052809291908181526020018280546101919061115a565b80156101de5780601f106101b3576101008083540402835291602001916101de565b820191906000526020600020905b8154815290600101906020018083116101c157829003601f168201915b505050505081526020016001820180546101f79061115a565b80601f01602080910402602001604051908101604052809291908181526020018280546102239061115a565b80156102705780601f1061024557610100808354040283529160200191610270565b820191906000526020600020905b81548152906001019060200180831161025357829003601f168201915b505050505081526020016002820180546102899061115a565b80601f01602080910402602001604051908101604052809291908181526020018280546102b59061115a565b80156103025780601f106102d757610100808354040283529160200191610302565b820191906000526020600020905b8154815290600101906020018083116102e557829003601f168201915b5050505050815260200160038201805461031b9061115a565b80601f01602080910402602001604051908101604052809291908181526020018280546103479061115a565b80156103945780601f1061036957610100808354040283529160200191610394565b820191906000526020600020905b81548152906001019060200180831161037757829003601f168201915b505050505081526020016004820180546103ad9061115a565b80601f01602080910402602001604051908101604052809291908181526020018280546103d99061115a565b80156104265780601f106103fb57610100808354040283529160200191610426565b820191906000526020600020905b81548152906001019060200180831161040957829003601f168201915b5050505050815260200160058201805480602002602001604051908101604052809291908181526020016000905b828210156105005783829060005260206000200180546104739061115a565b80601f016020809104026020016040519081016040528092919081815260200182805461049f9061115a565b80156104ec5780601f106104c1576101008083540402835291602001916104ec565b820191906000526020600020905b8154815290600101906020018083116104cf57829003601f168201915b505050505081526020019060010190610454565b505050915250909392505050565b6001602052600090815260409020805481906105299061115a565b80601f01602080910402602001604051908101604052809291908181526020018280546105559061115a565b80156105a25780601f10610577576101008083540402835291602001916105a2565b820191906000526020600020905b81548152906001019060200180831161058557829003601f168201915b5050505050908060010180546105b79061115a565b80601f01602080910402602001604051908101604052809291908181526020018280546105e39061115a565b80156106305780601f1061060557610100808354040283529160200191610630565b820191906000526020600020905b81548152906001019060200180831161061357829003601f168201915b5050505050908060020180546106459061115a565b80601f01602080910402602001604051908101604052809291908181526020018280546106719061115a565b80156106be5780601f10610693576101008083540402835291602001916106be565b820191906000526020600020905b8154815290600101906020018083116106a157829003601f168201915b5050505050908060030180546106d39061115a565b80601f01602080910402602001604051908101604052809291908181526020018280546106ff9061115a565b801561074c5780601f106107215761010080835404028352916020019161074c565b820191906000526020600020905b81548152906001019060200180831161072f57829003601f168201915b5050505050908060040180546107619061115a565b80601f016020809104026020016040519081016040528092919081815260200182805461078d9061115a565b80156107da5780601f106107af576101008083540402835291602001916107da565b820191906000526020600020905b8154815290600101906020018083116107bd57829003601f168201915b5050505050905085565b6000858333436040516020016107fd9493929190611194565b604051602081830303815290604052805190602001209050336001600160a01b031681877fff72da796f8af2f9e708ccce2f86752777731ed7a1dc7ee8ba91f08c9b329b7187878a8860405161085694939291906111c9565b60405180910390a495945050505050565b60008686843343604051602001610882959493929190611221565b604051602081830303815290604052805190602001209050336001600160a01b031681877fa2c01e59076b54dd6460344d590055cdf71ba9702269cb22a89f0bae0e4c988f8a898989896040516108dd95949392919061125d565b60405180910390a49695505050505050565b60006004865111156109395760405162461bcd60e51b815260206004820152600f60248201526e73796d626f6c20746f6f206c6f6e6760881b604482015260640160405180910390fd5b6040805160c0810182528881526020808201899052818301889052606082018790526080820186905260a08201859052600080548152600190915291909120815181906109869082611318565b506020820151600182019061099b9082611318565b50604082015160028201906109b09082611318565b50606082015160038201906109c59082611318565b50608082015160048201906109da9082611318565b5060a082015180516109f6916005840191602090910190610a6b565b505060008054915080610a08836113ec565b91905055506001600054610a1c9190611405565b7fddd5b452caa5e9dbe7b92b953976eec3150ad742856e27efd5ef798372dc5817888888888888604051610a559695949392919061141e565b60405180910390a2506000549695505050505050565b828054828255906000526020600020908101928215610ab1579160200282015b82811115610ab15782518290610aa19082611318565b5091602001919060010190610a8b565b50610abd929150610ac1565b5090565b80821115610abd576000610ad58282610ade565b50600101610ac1565b508054610aea9061115a565b6000825580601f10610afa575050565b601f016020900490600052602060002090810190610b189190610b1b565b50565b5b80821115610abd5760008155600101610b1c565b600060208284031215610b4257600080fd5b5035919050565b6000815180845260005b81811015610b6f57602081850181015186830182015201610b53565b506000602082860101526020601f19601f83011685010191505092915050565b602081526000825160c06020840152610bab60e0840182610b49565b90506020840151601f19848303016040850152610bc88282610b49565b9150506040840151601f19848303016060850152610be68282610b49565b9150506060840151601f19848303016080850152610c048282610b49565b9150506080840151601f198483030160a0850152610c228282610b49565b60a0860151858203601f190160c08701528051808352919350602090810192508084019190600582901b85010160005b82811015610c8357601f19868303018452610c6e828651610b49565b60209586019594909401939150600101610c52565b50979650505050505050565b60a081526000610ca260a0830188610b49565b8281036020840152610cb48188610b49565b90508281036040840152610cc88187610b49565b90508281036060840152610cdc8186610b49565b90508281036080840152610cf08185610b49565b98975050505050505050565b634e487b7160e01b600052604160045260246000fd5b604051601f8201601f191681016001600160401b0381118282101715610d3a57610d3a610cfc565b604052919050565b600082601f830112610d5357600080fd5b81356001600160401b03811115610d6c57610d6c610cfc565b610d7f601f8201601f1916602001610d12565b818152846020838601011115610d9457600080fd5b816020850160208301376000918101602001919091529392505050565b600080600080600060a08688031215610dc957600080fd5b8535945060208601356001600160401b03811115610de657600080fd5b610df288828901610d42565b94505060408601356001600160401b03811115610e0e57600080fd5b610e1a88828901610d42565b93505060608601356001600160401b03811115610e3657600080fd5b610e4288828901610d42565b92505060808601356001600160401b03811115610e5e57600080fd5b610e6a88828901610d42565b9150509295509295909350565b60006001600160401b03821115610e9057610e90610cfc565b5060051b60200190565b600082601f830112610eab57600080fd5b8135610ebe610eb982610e77565b610d12565b8082825260208201915060208360051b860101925085831115610ee057600080fd5b602085015b83811015610efd578035835260209283019201610ee5565b5095945050505050565b60008060008060008060c08789031215610f2057600080fd5b863595506020870135945060408701356001600160401b03811115610f4457600080fd5b610f5089828a01610e9a565b94505060608701356001600160401b03811115610f6c57600080fd5b610f7889828a01610d42565b93505060808701356001600160401b03811115610f9457600080fd5b610fa089828a01610d42565b92505060a08701356001600160401b03811115610fbc57600080fd5b610fc889828a01610d42565b9150509295509295509295565b600082601f830112610fe657600080fd5b8135610ff4610eb982610e77565b8082825260208201915060208360051b86010192508583111561101657600080fd5b602085015b83811015610efd5780356001600160401b0381111561103957600080fd5b611048886020838a0101610d42565b8452506020928301920161101b565b60008060008060008060c0878903121561107057600080fd5b86356001600160401b0381111561108657600080fd5b61109289828a01610d42565b96505060208701356001600160401b038111156110ae57600080fd5b6110ba89828a01610d42565b95505060408701356001600160401b038111156110d657600080fd5b6110e289828a01610d42565b94505060608701356001600160401b038111156110fe57600080fd5b61110a89828a01610d42565b93505060808701356001600160401b0381111561112657600080fd5b61113289828a01610d42565b92505060a08701356001600160401b0381111561114e57600080fd5b610fc889828a01610fd5565b600181811c9082168061116e57607f821691505b60208210810361118e57634e487b7160e01b600052602260045260246000fd5b50919050565b8481526080602082015260006111ad6080830186610b49565b6001600160a01b03949094166040830152506060015292915050565b6080815260006111dc6080830187610b49565b82810360208401526111ee8187610b49565b905082810360408401526112028186610b49565b905082810360608401526112168185610b49565b979650505050505050565b85815284602082015260a06040820152600061124060a0830186610b49565b6001600160a01b0394909416606083015250608001529392505050565b600060a0820187835260a0602084015280875180835260c08501915060208901925060005b818110156112a0578351835260209384019390920191600101611282565b505083810360408501526112b48188610b49565b9150508281036060840152610cdc8186610b49565b601f82111561131357806000526020600020601f840160051c810160208510156112f05750805b601f840160051c820191505b8181101561131057600081556001016112fc565b50505b505050565b81516001600160401b0381111561133157611331610cfc565b6113458161133f845461115a565b846112c9565b6020601f82116001811461137957600083156113615750848201515b600019600385901b1c1916600184901b178455611310565b600084815260208120601f198516915b828110156113a95787850151825560209485019460019092019101611389565b50848210156113c75786840151600019600387901b60f8161c191681555b50505050600190811b01905550565b634e487b7160e01b600052601160045260246000fd5b6000600182016113fe576113fe6113d6565b5060010190565b81810381811115611418576114186113d6565b92915050565b60c08152600061143160c0830189610b49565b82810360208401526114438189610b49565b905082810360408401526114578188610b49565b9050828103606084015261146b8187610b49565b9050828103608084015261147f8186610b49565b905082810360a084015280845180835260208301915060208160051b8401016020870160005b838110156114d757601f198684030185526114c1838351610b49565b60209586019590935091909101906001016114a5565b50909c9b50505050505050505050505056fea2646970667358221220c727ceda5493e47e7fb1b343894afdd36d5b9d9fd1ffa3da7fa8dc0def4305c264736f6c634300081c0033596f7520617265206672656520746f20737065616b20796f7572206d696e642c2062757420646f206e6f742061747461636b206f746865722075736572732e20596f75206d6179206368616c6c656e6765206f6e6520616e6f746865722c20627574206b65657020697420636976696c2144656261746520616e642064697363757373696f6e2072656c6174656420746f20706f6c697469637320616e642063757272656e74206576656e74732069732077656c636f6d652e68747470733a2f2f692e3463646e2e6f72672f706f6c2f313439333939333232363735302e6a70676261666b726569623763767471793565786d796d6e6d3332686b736179616f6b37797766356c736f7a3378676c6970666e7665727064676d726b69506f7374696e6720706f726e6f677261706879206973206e6f74207065726d69747465642e2054686973206973206120706f6c697469637320626f6172642c206e6f74206120706f726e20626f6172642e5468697320626f61726420697320666f72207468652064697363757373696f6e206f66206e6577732c20776f726c64206576656e74732c20706f6c69746963616c206973737565732c20616e64206f746865722072656c6174656420746f706963732e",
  "linkReferences": {},
  "deployedLinkReferences": {}
}