{
  "contracts/HashChan.sol": {
    "HashChan": {
      "abi": [
        {
          "anonymous": false,
          "inputs": [
            {
              "indexed": true,
              "internalType": "address",
              "name": "creator",
              "type": "address"
            },
            {
              "indexed": true,
              "internalType": "bytes32",
              "name": "threadId",
              "type": "bytes32"
            },
            {
              "indexed": true,
              "internalType": "bytes32",
              "name": "id",
              "type": "bytes32"
            },
            {
              "indexed": false,
              "internalType": "string",
              "name": "imgUrl",
              "type": "string"
            },
            {
              "indexed": false,
              "internalType": "string",
              "name": "content",
              "type": "string"
            }
          ],
          "name": "Comment",
          "type": "event"
        },
        {
          "anonymous": false,
          "inputs": [
            {
              "indexed": true,
              "internalType": "address",
              "name": "creator",
              "type": "address"
            },
            {
              "indexed": true,
              "internalType": "bytes32",
              "name": "id",
              "type": "bytes32"
            },
            {
              "indexed": false,
              "internalType": "string",
              "name": "imgUrl",
              "type": "string"
            },
            {
              "indexed": false,
              "internalType": "string",
              "name": "title",
              "type": "string"
            },
            {
              "indexed": false,
              "internalType": "string",
              "name": "content",
              "type": "string"
            }
          ],
          "name": "Thread",
          "type": "event"
        },
        {
          "inputs": [
            {
              "internalType": "bytes32",
              "name": "threadId",
              "type": "bytes32"
            },
            {
              "internalType": "string",
              "name": "imgUrl",
              "type": "string"
            },
            {
              "internalType": "string",
              "name": "content",
              "type": "string"
            }
          ],
          "name": "createComment",
          "outputs": [],
          "stateMutability": "nonpayable",
          "type": "function"
        },
        {
          "inputs": [
            {
              "internalType": "string",
              "name": "title",
              "type": "string"
            },
            {
              "internalType": "string",
              "name": "url",
              "type": "string"
            },
            {
              "internalType": "string",
              "name": "content",
              "type": "string"
            }
          ],
          "name": "createThread",
          "outputs": [],
          "stateMutability": "nonpayable",
          "type": "function"
        }
      ],
      "evm": {
        "bytecode": {
          "linkReferences": {},
          "object": "6080604052348015600f57600080fd5b506106b58061001f6000396000f3fe608060405234801561001057600080fd5b50600436106100365760003560e01c8063416bf26c1461003b578063cf14990f14610057575b600080fd5b610055600480360381019061005091906102e5565b610073565b005b610071600480360381019061006c91906103c2565b610106565b005b6000336001436100839190610486565b4060405160200161009592919061050a565b604051602081830303815290604052805190602001209050803373ffffffffffffffffffffffffffffffffffffffff167fdaadd74a9f589ff9efa3bc8c0114457e3ab17f287e86c9cc7887c9f281f812b78587866040516100f8939291906105b2565b60405180910390a350505050565b6000334160405160200161011b92919061061f565b60405160208183030381529060405280519060200120905080843373ffffffffffffffffffffffffffffffffffffffff167fc46663199b55d66d41c8502c37a05e179557939d535d7e8d546e48e72cd39dfa868660405161017d929190610648565b60405180910390a450505050565b6000604051905090565b600080fd5b600080fd5b600080fd5b600080fd5b6000601f19601f8301169050919050565b7f4e487b7100000000000000000000000000000000000000000000000000000000600052604160045260246000fd5b6101f2826101a9565b810181811067ffffffffffffffff82111715610211576102106101ba565b5b80604052505050565b600061022461018b565b905061023082826101e9565b919050565b600067ffffffffffffffff8211156102505761024f6101ba565b5b610259826101a9565b9050602081019050919050565b82818337600083830152505050565b600061028861028384610235565b61021a565b9050828152602081018484840111156102a4576102a36101a4565b5b6102af848285610266565b509392505050565b600082601f8301126102cc576102cb61019f565b5b81356102dc848260208601610275565b91505092915050565b6000806000606084860312156102fe576102fd610195565b5b600084013567ffffffffffffffff81111561031c5761031b61019a565b5b610328868287016102b7565b935050602084013567ffffffffffffffff8111156103495761034861019a565b5b610355868287016102b7565b925050604084013567ffffffffffffffff8111156103765761037561019a565b5b610382868287016102b7565b9150509250925092565b6000819050919050565b61039f8161038c565b81146103aa57600080fd5b50565b6000813590506103bc81610396565b92915050565b6000806000606084860312156103db576103da610195565b5b60006103e9868287016103ad565b935050602084013567ffffffffffffffff81111561040a5761040961019a565b5b610416868287016102b7565b925050604084013567ffffffffffffffff8111156104375761043661019a565b5b610443868287016102b7565b9150509250925092565b6000819050919050565b7f4e487b7100000000000000000000000000000000000000000000000000000000600052601160045260246000fd5b60006104918261044d565b915061049c8361044d565b92508282039050818111156104b4576104b3610457565b5b92915050565b600073ffffffffffffffffffffffffffffffffffffffff82169050919050565b60006104e5826104ba565b9050919050565b6104f5816104da565b82525050565b6105048161038c565b82525050565b600060408201905061051f60008301856104ec565b61052c60208301846104fb565b9392505050565b600081519050919050565b600082825260208201905092915050565b60005b8381101561056d578082015181840152602081019050610552565b60008484015250505050565b600061058482610533565b61058e818561053e565b935061059e81856020860161054f565b6105a7816101a9565b840191505092915050565b600060608201905081810360008301526105cc8186610579565b905081810360208301526105e08185610579565b905081810360408301526105f48184610579565b9050949350505050565b6000610609826104ba565b9050919050565b610619816105fe565b82525050565b600060408201905061063460008301856104ec565b6106416020830184610610565b9392505050565b600060408201905081810360008301526106628185610579565b905081810360208301526106768184610579565b9050939250505056fea2646970667358221220c669c0058ad7651e177d9c9ba565bc9a35fb61942287cec1933e3ff2e114151e64736f6c634300081a0033",
          "opcodes": "PUSH1 0x80 PUSH1 0x40 MSTORE CALLVALUE DUP1 ISZERO PUSH1 0xF JUMPI PUSH1 0x0 DUP1 REVERT JUMPDEST POP PUSH2 0x6B5 DUP1 PUSH2 0x1F PUSH1 0x0 CODECOPY PUSH1 0x0 RETURN INVALID PUSH1 0x80 PUSH1 0x40 MSTORE CALLVALUE DUP1 ISZERO PUSH2 0x10 JUMPI PUSH1 0x0 DUP1 REVERT JUMPDEST POP PUSH1 0x4 CALLDATASIZE LT PUSH2 0x36 JUMPI PUSH1 0x0 CALLDATALOAD PUSH1 0xE0 SHR DUP1 PUSH4 0x416BF26C EQ PUSH2 0x3B JUMPI DUP1 PUSH4 0xCF14990F EQ PUSH2 0x57 JUMPI JUMPDEST PUSH1 0x0 DUP1 REVERT JUMPDEST PUSH2 0x55 PUSH1 0x4 DUP1 CALLDATASIZE SUB DUP2 ADD SWAP1 PUSH2 0x50 SWAP2 SWAP1 PUSH2 0x2E5 JUMP JUMPDEST PUSH2 0x73 JUMP JUMPDEST STOP JUMPDEST PUSH2 0x71 PUSH1 0x4 DUP1 CALLDATASIZE SUB DUP2 ADD SWAP1 PUSH2 0x6C SWAP2 SWAP1 PUSH2 0x3C2 JUMP JUMPDEST PUSH2 0x106 JUMP JUMPDEST STOP JUMPDEST PUSH1 0x0 CALLER PUSH1 0x1 NUMBER PUSH2 0x83 SWAP2 SWAP1 PUSH2 0x486 JUMP JUMPDEST BLOCKHASH PUSH1 0x40 MLOAD PUSH1 0x20 ADD PUSH2 0x95 SWAP3 SWAP2 SWAP1 PUSH2 0x50A JUMP JUMPDEST PUSH1 0x40 MLOAD PUSH1 0x20 DUP2 DUP4 SUB SUB DUP2 MSTORE SWAP1 PUSH1 0x40 MSTORE DUP1 MLOAD SWAP1 PUSH1 0x20 ADD KECCAK256 SWAP1 POP DUP1 CALLER PUSH20 0xFFFFFFFFFFFFFFFFFFFFFFFFFFFFFFFFFFFFFFFF AND PUSH32 0xDAADD74A9F589FF9EFA3BC8C0114457E3AB17F287E86C9CC7887C9F281F812B7 DUP6 DUP8 DUP7 PUSH1 0x40 MLOAD PUSH2 0xF8 SWAP4 SWAP3 SWAP2 SWAP1 PUSH2 0x5B2 JUMP JUMPDEST PUSH1 0x40 MLOAD DUP1 SWAP2 SUB SWAP1 LOG3 POP POP POP POP JUMP JUMPDEST PUSH1 0x0 CALLER COINBASE PUSH1 0x40 MLOAD PUSH1 0x20 ADD PUSH2 0x11B SWAP3 SWAP2 SWAP1 PUSH2 0x61F JUMP JUMPDEST PUSH1 0x40 MLOAD PUSH1 0x20 DUP2 DUP4 SUB SUB DUP2 MSTORE SWAP1 PUSH1 0x40 MSTORE DUP1 MLOAD SWAP1 PUSH1 0x20 ADD KECCAK256 SWAP1 POP DUP1 DUP5 CALLER PUSH20 0xFFFFFFFFFFFFFFFFFFFFFFFFFFFFFFFFFFFFFFFF AND PUSH32 0xC46663199B55D66D41C8502C37A05E179557939D535D7E8D546E48E72CD39DFA DUP7 DUP7 PUSH1 0x40 MLOAD PUSH2 0x17D SWAP3 SWAP2 SWAP1 PUSH2 0x648 JUMP JUMPDEST PUSH1 0x40 MLOAD DUP1 SWAP2 SUB SWAP1 LOG4 POP POP POP POP JUMP JUMPDEST PUSH1 0x0 PUSH1 0x40 MLOAD SWAP1 POP SWAP1 JUMP JUMPDEST PUSH1 0x0 DUP1 REVERT JUMPDEST PUSH1 0x0 DUP1 REVERT JUMPDEST PUSH1 0x0 DUP1 REVERT JUMPDEST PUSH1 0x0 DUP1 REVERT JUMPDEST PUSH1 0x0 PUSH1 0x1F NOT PUSH1 0x1F DUP4 ADD AND SWAP1 POP SWAP2 SWAP1 POP JUMP JUMPDEST PUSH32 0x4E487B7100000000000000000000000000000000000000000000000000000000 PUSH1 0x0 MSTORE PUSH1 0x41 PUSH1 0x4 MSTORE PUSH1 0x24 PUSH1 0x0 REVERT JUMPDEST PUSH2 0x1F2 DUP3 PUSH2 0x1A9 JUMP JUMPDEST DUP2 ADD DUP2 DUP2 LT PUSH8 0xFFFFFFFFFFFFFFFF DUP3 GT OR ISZERO PUSH2 0x211 JUMPI PUSH2 0x210 PUSH2 0x1BA JUMP JUMPDEST JUMPDEST DUP1 PUSH1 0x40 MSTORE POP POP POP JUMP JUMPDEST PUSH1 0x0 PUSH2 0x224 PUSH2 0x18B JUMP JUMPDEST SWAP1 POP PUSH2 0x230 DUP3 DUP3 PUSH2 0x1E9 JUMP JUMPDEST SWAP2 SWAP1 POP JUMP JUMPDEST PUSH1 0x0 PUSH8 0xFFFFFFFFFFFFFFFF DUP3 GT ISZERO PUSH2 0x250 JUMPI PUSH2 0x24F PUSH2 0x1BA JUMP JUMPDEST JUMPDEST PUSH2 0x259 DUP3 PUSH2 0x1A9 JUMP JUMPDEST SWAP1 POP PUSH1 0x20 DUP2 ADD SWAP1 POP SWAP2 SWAP1 POP JUMP JUMPDEST DUP3 DUP2 DUP4 CALLDATACOPY PUSH1 0x0 DUP4 DUP4 ADD MSTORE POP POP POP JUMP JUMPDEST PUSH1 0x0 PUSH2 0x288 PUSH2 0x283 DUP5 PUSH2 0x235 JUMP JUMPDEST PUSH2 0x21A JUMP JUMPDEST SWAP1 POP DUP3 DUP2 MSTORE PUSH1 0x20 DUP2 ADD DUP5 DUP5 DUP5 ADD GT ISZERO PUSH2 0x2A4 JUMPI PUSH2 0x2A3 PUSH2 0x1A4 JUMP JUMPDEST JUMPDEST PUSH2 0x2AF DUP5 DUP3 DUP6 PUSH2 0x266 JUMP JUMPDEST POP SWAP4 SWAP3 POP POP POP JUMP JUMPDEST PUSH1 0x0 DUP3 PUSH1 0x1F DUP4 ADD SLT PUSH2 0x2CC JUMPI PUSH2 0x2CB PUSH2 0x19F JUMP JUMPDEST JUMPDEST DUP2 CALLDATALOAD PUSH2 0x2DC DUP5 DUP3 PUSH1 0x20 DUP7 ADD PUSH2 0x275 JUMP JUMPDEST SWAP2 POP POP SWAP3 SWAP2 POP POP JUMP JUMPDEST PUSH1 0x0 DUP1 PUSH1 0x0 PUSH1 0x60 DUP5 DUP7 SUB SLT ISZERO PUSH2 0x2FE JUMPI PUSH2 0x2FD PUSH2 0x195 JUMP JUMPDEST JUMPDEST PUSH1 0x0 DUP5 ADD CALLDATALOAD PUSH8 0xFFFFFFFFFFFFFFFF DUP2 GT ISZERO PUSH2 0x31C JUMPI PUSH2 0x31B PUSH2 0x19A JUMP JUMPDEST JUMPDEST PUSH2 0x328 DUP7 DUP3 DUP8 ADD PUSH2 0x2B7 JUMP JUMPDEST SWAP4 POP POP PUSH1 0x20 DUP5 ADD CALLDATALOAD PUSH8 0xFFFFFFFFFFFFFFFF DUP2 GT ISZERO PUSH2 0x349 JUMPI PUSH2 0x348 PUSH2 0x19A JUMP JUMPDEST JUMPDEST PUSH2 0x355 DUP7 DUP3 DUP8 ADD PUSH2 0x2B7 JUMP JUMPDEST SWAP3 POP POP PUSH1 0x40 DUP5 ADD CALLDATALOAD PUSH8 0xFFFFFFFFFFFFFFFF DUP2 GT ISZERO PUSH2 0x376 JUMPI PUSH2 0x375 PUSH2 0x19A JUMP JUMPDEST JUMPDEST PUSH2 0x382 DUP7 DUP3 DUP8 ADD PUSH2 0x2B7 JUMP JUMPDEST SWAP2 POP POP SWAP3 POP SWAP3 POP SWAP3 JUMP JUMPDEST PUSH1 0x0 DUP2 SWAP1 POP SWAP2 SWAP1 POP JUMP JUMPDEST PUSH2 0x39F DUP2 PUSH2 0x38C JUMP JUMPDEST DUP2 EQ PUSH2 0x3AA JUMPI PUSH1 0x0 DUP1 REVERT JUMPDEST POP JUMP JUMPDEST PUSH1 0x0 DUP2 CALLDATALOAD SWAP1 POP PUSH2 0x3BC DUP2 PUSH2 0x396 JUMP JUMPDEST SWAP3 SWAP2 POP POP JUMP JUMPDEST PUSH1 0x0 DUP1 PUSH1 0x0 PUSH1 0x60 DUP5 DUP7 SUB SLT ISZERO PUSH2 0x3DB JUMPI PUSH2 0x3DA PUSH2 0x195 JUMP JUMPDEST JUMPDEST PUSH1 0x0 PUSH2 0x3E9 DUP7 DUP3 DUP8 ADD PUSH2 0x3AD JUMP JUMPDEST SWAP4 POP POP PUSH1 0x20 DUP5 ADD CALLDATALOAD PUSH8 0xFFFFFFFFFFFFFFFF DUP2 GT ISZERO PUSH2 0x40A JUMPI PUSH2 0x409 PUSH2 0x19A JUMP JUMPDEST JUMPDEST PUSH2 0x416 DUP7 DUP3 DUP8 ADD PUSH2 0x2B7 JUMP JUMPDEST SWAP3 POP POP PUSH1 0x40 DUP5 ADD CALLDATALOAD PUSH8 0xFFFFFFFFFFFFFFFF DUP2 GT ISZERO PUSH2 0x437 JUMPI PUSH2 0x436 PUSH2 0x19A JUMP JUMPDEST JUMPDEST PUSH2 0x443 DUP7 DUP3 DUP8 ADD PUSH2 0x2B7 JUMP JUMPDEST SWAP2 POP POP SWAP3 POP SWAP3 POP SWAP3 JUMP JUMPDEST PUSH1 0x0 DUP2 SWAP1 POP SWAP2 SWAP1 POP JUMP JUMPDEST PUSH32 0x4E487B7100000000000000000000000000000000000000000000000000000000 PUSH1 0x0 MSTORE PUSH1 0x11 PUSH1 0x4 MSTORE PUSH1 0x24 PUSH1 0x0 REVERT JUMPDEST PUSH1 0x0 PUSH2 0x491 DUP3 PUSH2 0x44D JUMP JUMPDEST SWAP2 POP PUSH2 0x49C DUP4 PUSH2 0x44D JUMP JUMPDEST SWAP3 POP DUP3 DUP3 SUB SWAP1 POP DUP2 DUP2 GT ISZERO PUSH2 0x4B4 JUMPI PUSH2 0x4B3 PUSH2 0x457 JUMP JUMPDEST JUMPDEST SWAP3 SWAP2 POP POP JUMP JUMPDEST PUSH1 0x0 PUSH20 0xFFFFFFFFFFFFFFFFFFFFFFFFFFFFFFFFFFFFFFFF DUP3 AND SWAP1 POP SWAP2 SWAP1 POP JUMP JUMPDEST PUSH1 0x0 PUSH2 0x4E5 DUP3 PUSH2 0x4BA JUMP JUMPDEST SWAP1 POP SWAP2 SWAP1 POP JUMP JUMPDEST PUSH2 0x4F5 DUP2 PUSH2 0x4DA JUMP JUMPDEST DUP3 MSTORE POP POP JUMP JUMPDEST PUSH2 0x504 DUP2 PUSH2 0x38C JUMP JUMPDEST DUP3 MSTORE POP POP JUMP JUMPDEST PUSH1 0x0 PUSH1 0x40 DUP3 ADD SWAP1 POP PUSH2 0x51F PUSH1 0x0 DUP4 ADD DUP6 PUSH2 0x4EC JUMP JUMPDEST PUSH2 0x52C PUSH1 0x20 DUP4 ADD DUP5 PUSH2 0x4FB JUMP JUMPDEST SWAP4 SWAP3 POP POP POP JUMP JUMPDEST PUSH1 0x0 DUP2 MLOAD SWAP1 POP SWAP2 SWAP1 POP JUMP JUMPDEST PUSH1 0x0 DUP3 DUP3 MSTORE PUSH1 0x20 DUP3 ADD SWAP1 POP SWAP3 SWAP2 POP POP JUMP JUMPDEST PUSH1 0x0 JUMPDEST DUP4 DUP2 LT ISZERO PUSH2 0x56D JUMPI DUP1 DUP3 ADD MLOAD DUP2 DUP5 ADD MSTORE PUSH1 0x20 DUP2 ADD SWAP1 POP PUSH2 0x552 JUMP JUMPDEST PUSH1 0x0 DUP5 DUP5 ADD MSTORE POP POP POP POP JUMP JUMPDEST PUSH1 0x0 PUSH2 0x584 DUP3 PUSH2 0x533 JUMP JUMPDEST PUSH2 0x58E DUP2 DUP6 PUSH2 0x53E JUMP JUMPDEST SWAP4 POP PUSH2 0x59E DUP2 DUP6 PUSH1 0x20 DUP7 ADD PUSH2 0x54F JUMP JUMPDEST PUSH2 0x5A7 DUP2 PUSH2 0x1A9 JUMP JUMPDEST DUP5 ADD SWAP2 POP POP SWAP3 SWAP2 POP POP JUMP JUMPDEST PUSH1 0x0 PUSH1 0x60 DUP3 ADD SWAP1 POP DUP2 DUP2 SUB PUSH1 0x0 DUP4 ADD MSTORE PUSH2 0x5CC DUP2 DUP7 PUSH2 0x579 JUMP JUMPDEST SWAP1 POP DUP2 DUP2 SUB PUSH1 0x20 DUP4 ADD MSTORE PUSH2 0x5E0 DUP2 DUP6 PUSH2 0x579 JUMP JUMPDEST SWAP1 POP DUP2 DUP2 SUB PUSH1 0x40 DUP4 ADD MSTORE PUSH2 0x5F4 DUP2 DUP5 PUSH2 0x579 JUMP JUMPDEST SWAP1 POP SWAP5 SWAP4 POP POP POP POP JUMP JUMPDEST PUSH1 0x0 PUSH2 0x609 DUP3 PUSH2 0x4BA JUMP JUMPDEST SWAP1 POP SWAP2 SWAP1 POP JUMP JUMPDEST PUSH2 0x619 DUP2 PUSH2 0x5FE JUMP JUMPDEST DUP3 MSTORE POP POP JUMP JUMPDEST PUSH1 0x0 PUSH1 0x40 DUP3 ADD SWAP1 POP PUSH2 0x634 PUSH1 0x0 DUP4 ADD DUP6 PUSH2 0x4EC JUMP JUMPDEST PUSH2 0x641 PUSH1 0x20 DUP4 ADD DUP5 PUSH2 0x610 JUMP JUMPDEST SWAP4 SWAP3 POP POP POP JUMP JUMPDEST PUSH1 0x0 PUSH1 0x40 DUP3 ADD SWAP1 POP DUP2 DUP2 SUB PUSH1 0x0 DUP4 ADD MSTORE PUSH2 0x662 DUP2 DUP6 PUSH2 0x579 JUMP JUMPDEST SWAP1 POP DUP2 DUP2 SUB PUSH1 0x20 DUP4 ADD MSTORE PUSH2 0x676 DUP2 DUP5 PUSH2 0x579 JUMP JUMPDEST SWAP1 POP SWAP4 SWAP3 POP POP POP JUMP INVALID LOG2 PUSH5 0x6970667358 0x22 SLT KECCAK256 0xC6 PUSH10 0xC0058AD7651E177D9C9B 0xA5 PUSH6 0xBC9A35FB6194 0x22 DUP8 0xCE 0xC1 SWAP4 RETURNDATACOPY EXTCODEHASH CALLCODE 0xE1 EQ ISZERO 0x1E PUSH5 0x736F6C6343 STOP ADDMOD BYTE STOP CALLER "
        },
        "methodIdentifiers": {
          "createComment(bytes32,string,string)": "cf14990f",
          "createThread(string,string,string)": "416bf26c"
        }
      }
    }
  }
}