{
  "_format": "hh-sol-artifact-1",
  "contractName": "HashChan",
  "sourceName": "contracts/HashChan.sol",
  "abi": [
    {
      "anonymous": false,
      "inputs": [
        {
          "indexed": true,
          "internalType": "address",
          "name": "creator",
          "type": "address"
        },
        {
          "indexed": true,
          "internalType": "bytes32",
          "name": "threadId",
          "type": "bytes32"
        },
        {
          "indexed": true,
          "internalType": "bytes32",
          "name": "id",
          "type": "bytes32"
        },
        {
          "indexed": false,
          "internalType": "string",
          "name": "imgUrl",
          "type": "string"
        },
        {
          "indexed": false,
          "internalType": "string",
          "name": "content",
          "type": "string"
        }
      ],
      "name": "Comment",
      "type": "event"
    },
    {
      "anonymous": false,
      "inputs": [
        {
          "indexed": true,
          "internalType": "address",
          "name": "creator",
          "type": "address"
        },
        {
          "indexed": true,
          "internalType": "bytes32",
          "name": "id",
          "type": "bytes32"
        },
        {
          "indexed": false,
          "internalType": "string",
          "name": "imgUrl",
          "type": "string"
        },
        {
          "indexed": false,
          "internalType": "string",
          "name": "title",
          "type": "string"
        },
        {
          "indexed": false,
          "internalType": "string",
          "name": "content",
          "type": "string"
        }
      ],
      "name": "Thread",
      "type": "event"
    },
    {
      "inputs": [
        {
          "internalType": "bytes32",
          "name": "threadId",
          "type": "bytes32"
        },
        {
          "internalType": "string",
          "name": "imgUrl",
          "type": "string"
        },
        {
          "internalType": "string",
          "name": "content",
          "type": "string"
        }
      ],
      "name": "createComment",
      "outputs": [],
      "stateMutability": "nonpayable",
      "type": "function"
    },
    {
      "inputs": [
        {
          "internalType": "string",
          "name": "title",
          "type": "string"
        },
        {
          "internalType": "string",
          "name": "url",
          "type": "string"
        },
        {
          "internalType": "string",
          "name": "content",
          "type": "string"
        }
      ],
      "name": "createThread",
      "outputs": [],
      "stateMutability": "nonpayable",
      "type": "function"
    }
  ],
  "bytecode": "0x6080604052348015600f57600080fd5b506106b58061001f6000396000f3fe608060405234801561001057600080fd5b50600436106100365760003560e01c8063416bf26c1461003b578063cf14990f14610057575b600080fd5b610055600480360381019061005091906102e5565b610073565b005b610071600480360381019061006c91906103c2565b610106565b005b6000336001436100839190610486565b4060405160200161009592919061050a565b604051602081830303815290604052805190602001209050803373ffffffffffffffffffffffffffffffffffffffff167fdaadd74a9f589ff9efa3bc8c0114457e3ab17f287e86c9cc7887c9f281f812b78587866040516100f8939291906105b2565b60405180910390a350505050565b6000334160405160200161011b92919061061f565b60405160208183030381529060405280519060200120905080843373ffffffffffffffffffffffffffffffffffffffff167fc46663199b55d66d41c8502c37a05e179557939d535d7e8d546e48e72cd39dfa868660405161017d929190610648565b60405180910390a450505050565b6000604051905090565b600080fd5b600080fd5b600080fd5b600080fd5b6000601f19601f8301169050919050565b7f4e487b7100000000000000000000000000000000000000000000000000000000600052604160045260246000fd5b6101f2826101a9565b810181811067ffffffffffffffff82111715610211576102106101ba565b5b80604052505050565b600061022461018b565b905061023082826101e9565b919050565b600067ffffffffffffffff8211156102505761024f6101ba565b5b610259826101a9565b9050602081019050919050565b82818337600083830152505050565b600061028861028384610235565b61021a565b9050828152602081018484840111156102a4576102a36101a4565b5b6102af848285610266565b509392505050565b600082601f8301126102cc576102cb61019f565b5b81356102dc848260208601610275565b91505092915050565b6000806000606084860312156102fe576102fd610195565b5b600084013567ffffffffffffffff81111561031c5761031b61019a565b5b610328868287016102b7565b935050602084013567ffffffffffffffff8111156103495761034861019a565b5b610355868287016102b7565b925050604084013567ffffffffffffffff8111156103765761037561019a565b5b610382868287016102b7565b9150509250925092565b6000819050919050565b61039f8161038c565b81146103aa57600080fd5b50565b6000813590506103bc81610396565b92915050565b6000806000606084860312156103db576103da610195565b5b60006103e9868287016103ad565b935050602084013567ffffffffffffffff81111561040a5761040961019a565b5b610416868287016102b7565b925050604084013567ffffffffffffffff8111156104375761043661019a565b5b610443868287016102b7565b9150509250925092565b6000819050919050565b7f4e487b7100000000000000000000000000000000000000000000000000000000600052601160045260246000fd5b60006104918261044d565b915061049c8361044d565b92508282039050818111156104b4576104b3610457565b5b92915050565b600073ffffffffffffffffffffffffffffffffffffffff82169050919050565b60006104e5826104ba565b9050919050565b6104f5816104da565b82525050565b6105048161038c565b82525050565b600060408201905061051f60008301856104ec565b61052c60208301846104fb565b9392505050565b600081519050919050565b600082825260208201905092915050565b60005b8381101561056d578082015181840152602081019050610552565b60008484015250505050565b600061058482610533565b61058e818561053e565b935061059e81856020860161054f565b6105a7816101a9565b840191505092915050565b600060608201905081810360008301526105cc8186610579565b905081810360208301526105e08185610579565b905081810360408301526105f48184610579565b9050949350505050565b6000610609826104ba565b9050919050565b610619816105fe565b82525050565b600060408201905061063460008301856104ec565b6106416020830184610610565b9392505050565b600060408201905081810360008301526106628185610579565b905081810360208301526106768184610579565b9050939250505056fea2646970667358221220c669c0058ad7651e177d9c9ba565bc9a35fb61942287cec1933e3ff2e114151e64736f6c634300081a0033",
  "linkReferences": {},
  "deployedLinkReferences": {}
}