{
  "_format": "hh-sol-artifact-1",
  "contractName": "HashChan2",
  "sourceName": "contracts/HashChan2.sol",
  "address": "0xEEe8276AEA42f61399Abe7235c015a6cAb1372AC",
  "baseSepoliaAddress": "0x49AAb31cDEf88C1AF1B8fd639b31082b89237c58",
  "abi": [
    {
      "inputs": [],
      "stateMutability": "nonpayable",
      "type": "constructor"
    },
    {
      "anonymous": false,
      "inputs": [
        {
          "indexed": true,
          "internalType": "uint256",
          "name": "id",
          "type": "uint256"
        },
        {
          "indexed": true,
          "internalType": "string",
          "name": "nameHash",
          "type": "string"
        },
        {
          "indexed": true,
          "internalType": "string",
          "name": "symbolHash",
          "type": "string"
        },
        {
          "indexed": false,
          "internalType": "string",
          "name": "name",
          "type": "string"
        },
        {
          "indexed": false,
          "internalType": "string",
          "name": "symbol",
          "type": "string"
        }
      ],
      "name": "NewBoard",
      "type": "event"
    },
    {
      "anonymous": false,
      "inputs": [
        {
          "indexed": true,
          "internalType": "uint256",
          "name": "board",
          "type": "uint256"
        },
        {
          "indexed": true,
          "internalType": "bytes32",
          "name": "threadId",
          "type": "bytes32"
        },
        {
          "indexed": true,
          "internalType": "bytes32",
          "name": "id",
          "type": "bytes32"
        },
        {
          "indexed": false,
          "internalType": "address",
          "name": "creator",
          "type": "address"
        },
        {
          "indexed": false,
          "internalType": "bytes32[]",
          "name": "replyIds",
          "type": "bytes32[]"
        },
        {
          "indexed": false,
          "internalType": "string",
          "name": "imgUrl",
          "type": "string"
        },
        {
          "indexed": false,
          "internalType": "string",
          "name": "content",
          "type": "string"
        },
        {
          "indexed": false,
          "internalType": "uint256",
          "name": "timestamp",
          "type": "uint256"
        }
      ],
      "name": "NewPost",
      "type": "event"
    },
    {
      "anonymous": false,
      "inputs": [
        {
          "indexed": true,
          "internalType": "uint256",
          "name": "board",
          "type": "uint256"
        },
        {
          "indexed": true,
          "internalType": "address",
          "name": "creator",
          "type": "address"
        },
        {
          "indexed": true,
          "internalType": "bytes32",
          "name": "id",
          "type": "bytes32"
        },
        {
          "indexed": false,
          "internalType": "string",
          "name": "imgUrl",
          "type": "string"
        },
        {
          "indexed": false,
          "internalType": "string",
          "name": "title",
          "type": "string"
        },
        {
          "indexed": false,
          "internalType": "string",
          "name": "content",
          "type": "string"
        },
        {
          "indexed": false,
          "internalType": "uint256",
          "name": "timestamp",
          "type": "uint256"
        }
      ],
      "name": "NewThread",
      "type": "event"
    },
    {
      "inputs": [],
      "name": "boardCount",
      "outputs": [
        {
          "internalType": "uint256",
          "name": "",
          "type": "uint256"
        }
      ],
      "stateMutability": "view",
      "type": "function"
    },
    {
      "inputs": [
        {
          "internalType": "uint256",
          "name": "",
          "type": "uint256"
        }
      ],
      "name": "boards",
      "outputs": [
        {
          "internalType": "string",
          "name": "name",
          "type": "string"
        },
        {
          "internalType": "string",
          "name": "symbol",
          "type": "string"
        }
      ],
      "stateMutability": "view",
      "type": "function"
    },
    {
      "inputs": [
        {
          "internalType": "string",
          "name": "name",
          "type": "string"
        },
        {
          "internalType": "string",
          "name": "symbol",
          "type": "string"
        }
      ],
      "name": "createBoard",
      "outputs": [
        {
          "internalType": "uint256",
          "name": "",
          "type": "uint256"
        }
      ],
      "stateMutability": "nonpayable",
      "type": "function"
    },
    {
      "inputs": [
        {
          "internalType": "uint256",
          "name": "board",
          "type": "uint256"
        },
        {
          "internalType": "bytes32",
          "name": "threadId",
          "type": "bytes32"
        },
        {
          "internalType": "bytes32[]",
          "name": "replyIds",
          "type": "bytes32[]"
        },
        {
          "internalType": "string",
          "name": "imgUrl",
          "type": "string"
        },
        {
          "internalType": "string",
          "name": "content",
          "type": "string"
        }
      ],
      "name": "createPost",
      "outputs": [
        {
          "internalType": "bytes32",
          "name": "id",
          "type": "bytes32"
        }
      ],
      "stateMutability": "nonpayable",
      "type": "function"
    },
    {
      "inputs": [
        {
          "internalType": "uint256",
          "name": "board",
          "type": "uint256"
        },
        {
          "internalType": "string",
          "name": "title",
          "type": "string"
        },
        {
          "internalType": "string",
          "name": "url",
          "type": "string"
        },
        {
          "internalType": "string",
          "name": "content",
          "type": "string"
        }
      ],
      "name": "createThread",
      "outputs": [
        {
          "internalType": "bytes32",
          "name": "threadId",
          "type": "bytes32"
        }
      ],
      "stateMutability": "nonpayable",
      "type": "function"
    }
  ],
  "bytecode": "0x608060405234801561001057600080fd5b5061008b6040518060400160405280601581526020017f506f6c69746963616c6c7920496e636f727265637400000000000000000000008152506040518060400160405280600381526020017f706f6c00000000000000000000000000000000000000000000000000000000008152506102f860201b60201c565b506101066040518060400160405280601281526020017f427573696e65737320262046696e616e636500000000000000000000000000008152506040518060400160405280600381526020017f62697a00000000000000000000000000000000000000000000000000000000008152506102f860201b60201c565b506101816040518060400160405280600a81526020017f546563686e6f6c6f6779000000000000000000000000000000000000000000008152506040518060400160405280600181526020017f67000000000000000000000000000000000000000000000000000000000000008152506102f860201b60201c565b506101fc6040518060400160405280600e81526020017f536369656e63652026204d6174680000000000000000000000000000000000008152506040518060400160405280600381526020017f73636900000000000000000000000000000000000000000000000000000000008152506102f860201b60201c565b506102776040518060400160405280600681526020017f4672696e676500000000000000000000000000000000000000000000000000008152506040518060400160405280600181526020017f78000000000000000000000000000000000000000000000000000000000000008152506102f860201b60201c565b506102f26040518060400160405280600481526020017f4d616964000000000000000000000000000000000000000000000000000000008152506040518060400160405280600481526020017f6d616964000000000000000000000000000000000000000000000000000000008152506102f860201b60201c565b50610825565b600060405180604001604052808481526020018381525060016000805481526020019081526020016000206000820151816000019081610338919061062b565b50602082015181600101908161034e919061062b565b509050506000808154809291906103649061072c565b91905055508160405161037791906107da565b60405180910390208360405161038d91906107da565b604051809103902060016000546103a491906107f1565b7ff9318b0120271de03b8ce2df17779ba0fbec694e74567d0d97c12bf84f442aba60405160405180910390a4600054905092915050565b600081519050919050565b7f4e487b7100000000000000000000000000000000000000000000000000000000600052604160045260246000fd5b7f4e487b7100000000000000000000000000000000000000000000000000000000600052602260045260246000fd5b6000600282049050600182168061045c57607f821691505b60208210810361046f5761046e610415565b5b50919050565b60008190508160005260206000209050919050565b60006020601f8301049050919050565b600082821b905092915050565b6000600883026104d77fffffffffffffffffffffffffffffffffffffffffffffffffffffffffffffffff8261049a565b6104e1868361049a565b95508019841693508086168417925050509392505050565b6000819050919050565b6000819050919050565b600061052861052361051e846104f9565b610503565b6104f9565b9050919050565b6000819050919050565b6105428361050d565b61055661054e8261052f565b8484546104a7565b825550505050565b600090565b61056b61055e565b610576818484610539565b505050565b5b8181101561059a5761058f600082610563565b60018101905061057c565b5050565b601f8211156105df576105b081610475565b6105b98461048a565b810160208510156105c8578190505b6105dc6105d48561048a565b83018261057b565b50505b505050565b600082821c905092915050565b6000610602600019846008026105e4565b1980831691505092915050565b600061061b83836105f1565b9150826002028217905092915050565b610634826103db565b67ffffffffffffffff81111561064d5761064c6103e6565b5b6106578254610444565b61066282828561059e565b600060209050601f8311600181146106955760008415610683578287015190505b61068d858261060f565b8655506106f5565b601f1984166106a386610475565b60005b828110156106cb578489015182556001820191506020850194506020810190506106a6565b868310156106e857848901516106e4601f8916826105f1565b8355505b6001600288020188555050505b505050505050565b7f4e487b7100000000000000000000000000000000000000000000000000000000600052601160045260246000fd5b6000610737826104f9565b91507fffffffffffffffffffffffffffffffffffffffffffffffffffffffffffffffff8203610769576107686106fd565b5b600182019050919050565b600081905092915050565b60005b8381101561079d578082015181840152602081019050610782565b60008484015250505050565b60006107b4826103db565b6107be8185610774565b93506107ce81856020860161077f565b80840191505092915050565b60006107e682846107a9565b915081905092915050565b60006107fc826104f9565b9150610807836104f9565b925082820390508181111561081f5761081e6106fd565b5b92915050565b61107e806108346000396000f3fe608060405234801561001057600080fd5b50600436106100575760003560e01c80630e029fe91461005c57806390b1de261461008c5780639a7083f9146100aa578063d7bc7b85146100db578063ea9da3701461010b575b600080fd5b610076600480360381019061007191906105bb565b61013b565b604051610083919061064c565b60405180910390f35b61009461021e565b6040516100a1919061064c565b60405180910390f35b6100c460048036038101906100bf9190610693565b610224565b6040516100d292919061073f565b60405180910390f35b6100f560048036038101906100f09190610776565b610358565b604051610102919061084a565b60405180910390f35b61012560048036038101906101209190610959565b6103e7565b604051610132919061084a565b60405180910390f35b60006040518060400160405280848152602001838152506001600080548152602001908152602001600020600082015181600001908161017b9190610c34565b5060208201518160010190816101919190610c34565b509050506000808154809291906101a790610d35565b9190505550816040516101ba9190610db9565b6040518091039020836040516101d09190610db9565b604051809103902060016000546101e79190610dd0565b7ff9318b0120271de03b8ce2df17779ba0fbec694e74567d0d97c12bf84f442aba60405160405180910390a4600054905092915050565b60005481565b600160205280600052604060002060009150905080600001805461024790610a57565b80601f016020809104026020016040519081016040528092919081815260200182805461027390610a57565b80156102c05780601f10610295576101008083540402835291602001916102c0565b820191906000526020600020905b8154815290600101906020018083116102a357829003601f168201915b5050505050908060010180546102d590610a57565b80601f016020809104026020016040519081016040528092919081815260200182805461030190610a57565b801561034e5780601f106103235761010080835404028352916020019161034e565b820191906000526020600020905b81548152906001019060200180831161033157829003601f168201915b5050505050905082565b6000848433426040516020016103719493929190610e45565b604051602081830303815290604052805190602001209050803373ffffffffffffffffffffffffffffffffffffffff16867fb17d133f2f381c245d9ca846761d2da89f5f2175caf7f89d311d44765878eeef868887426040516103d79493929190610e91565b60405180910390a4949350505050565b60003342866040516020016103fe93929190610eeb565b6040516020818303038152906040528051906020012090508085877fea62080f8d7f4d4c1a82256330bb551739d4b073762762281b9193826c00939d3388888842604051610450959493929190610fe0565b60405180910390a495945050505050565b6000604051905090565b600080fd5b600080fd5b600080fd5b600080fd5b6000601f19601f8301169050919050565b7f4e487b7100000000000000000000000000000000000000000000000000000000600052604160045260246000fd5b6104c88261047f565b810181811067ffffffffffffffff821117156104e7576104e6610490565b5b80604052505050565b60006104fa610461565b905061050682826104bf565b919050565b600067ffffffffffffffff82111561052657610525610490565b5b61052f8261047f565b9050602081019050919050565b82818337600083830152505050565b600061055e6105598461050b565b6104f0565b90508281526020810184848401111561057a5761057961047a565b5b61058584828561053c565b509392505050565b600082601f8301126105a2576105a1610475565b5b81356105b284826020860161054b565b91505092915050565b600080604083850312156105d2576105d161046b565b5b600083013567ffffffffffffffff8111156105f0576105ef610470565b5b6105fc8582860161058d565b925050602083013567ffffffffffffffff81111561061d5761061c610470565b5b6106298582860161058d565b9150509250929050565b6000819050919050565b61064681610633565b82525050565b6000602082019050610661600083018461063d565b92915050565b61067081610633565b811461067b57600080fd5b50565b60008135905061068d81610667565b92915050565b6000602082840312156106a9576106a861046b565b5b60006106b78482850161067e565b91505092915050565b600081519050919050565b600082825260208201905092915050565b60005b838110156106fa5780820151818401526020810190506106df565b60008484015250505050565b6000610711826106c0565b61071b81856106cb565b935061072b8185602086016106dc565b6107348161047f565b840191505092915050565b600060408201905081810360008301526107598185610706565b9050818103602083015261076d8184610706565b90509392505050565b600080600080608085870312156107905761078f61046b565b5b600061079e8782880161067e565b945050602085013567ffffffffffffffff8111156107bf576107be610470565b5b6107cb8782880161058d565b935050604085013567ffffffffffffffff8111156107ec576107eb610470565b5b6107f88782880161058d565b925050606085013567ffffffffffffffff81111561081957610818610470565b5b6108258782880161058d565b91505092959194509250565b6000819050919050565b61084481610831565b82525050565b600060208201905061085f600083018461083b565b92915050565b61086e81610831565b811461087957600080fd5b50565b60008135905061088b81610865565b92915050565b600067ffffffffffffffff8211156108ac576108ab610490565b5b602082029050602081019050919050565b600080fd5b60006108d56108d084610891565b6104f0565b905080838252602082019050602084028301858111156108f8576108f76108bd565b5b835b81811015610921578061090d888261087c565b8452602084019350506020810190506108fa565b5050509392505050565b600082601f8301126109405761093f610475565b5b81356109508482602086016108c2565b91505092915050565b600080600080600060a086880312156109755761097461046b565b5b60006109838882890161067e565b95505060206109948882890161087c565b945050604086013567ffffffffffffffff8111156109b5576109b4610470565b5b6109c18882890161092b565b935050606086013567ffffffffffffffff8111156109e2576109e1610470565b5b6109ee8882890161058d565b925050608086013567ffffffffffffffff811115610a0f57610a0e610470565b5b610a1b8882890161058d565b9150509295509295909350565b7f4e487b7100000000000000000000000000000000000000000000000000000000600052602260045260246000fd5b60006002820490506001821680610a6f57607f821691505b602082108103610a8257610a81610a28565b5b50919050565b60008190508160005260206000209050919050565b60006020601f8301049050919050565b600082821b905092915050565b600060088302610aea7fffffffffffffffffffffffffffffffffffffffffffffffffffffffffffffffff82610aad565b610af48683610aad565b95508019841693508086168417925050509392505050565b6000819050919050565b6000610b31610b2c610b2784610633565b610b0c565b610633565b9050919050565b6000819050919050565b610b4b83610b16565b610b5f610b5782610b38565b848454610aba565b825550505050565b600090565b610b74610b67565b610b7f818484610b42565b505050565b5b81811015610ba357610b98600082610b6c565b600181019050610b85565b5050565b601f821115610be857610bb981610a88565b610bc284610a9d565b81016020851015610bd1578190505b610be5610bdd85610a9d565b830182610b84565b50505b505050565b600082821c905092915050565b6000610c0b60001984600802610bed565b1980831691505092915050565b6000610c248383610bfa565b9150826002028217905092915050565b610c3d826106c0565b67ffffffffffffffff811115610c5657610c55610490565b5b610c608254610a57565b610c6b828285610ba7565b600060209050601f831160018114610c9e5760008415610c8c578287015190505b610c968582610c18565b865550610cfe565b601f198416610cac86610a88565b60005b82811015610cd457848901518255600182019150602085019450602081019050610caf565b86831015610cf15784890151610ced601f891682610bfa565b8355505b6001600288020188555050505b505050505050565b7f4e487b7100000000000000000000000000000000000000000000000000000000600052601160045260246000fd5b6000610d4082610633565b91507fffffffffffffffffffffffffffffffffffffffffffffffffffffffffffffffff8203610d7257610d71610d06565b5b600182019050919050565b600081905092915050565b6000610d93826106c0565b610d9d8185610d7d565b9350610dad8185602086016106dc565b80840191505092915050565b6000610dc58284610d88565b915081905092915050565b6000610ddb82610633565b9150610de683610633565b9250828203905081811115610dfe57610dfd610d06565b5b92915050565b600073ffffffffffffffffffffffffffffffffffffffff82169050919050565b6000610e2f82610e04565b9050919050565b610e3f81610e24565b82525050565b6000608082019050610e5a600083018761063d565b8181036020830152610e6c8186610706565b9050610e7b6040830185610e36565b610e88606083018461063d565b95945050505050565b60006080820190508181036000830152610eab8187610706565b90508181036020830152610ebf8186610706565b90508181036040830152610ed38185610706565b9050610ee2606083018461063d565b95945050505050565b6000606082019050610f006000830186610e36565b610f0d602083018561063d565b610f1a604083018461083b565b949350505050565b600081519050919050565b600082825260208201905092915050565b6000819050602082019050919050565b610f5781610831565b82525050565b6000610f698383610f4e565b60208301905092915050565b6000602082019050919050565b6000610f8d82610f22565b610f978185610f2d565b9350610fa283610f3e565b8060005b83811015610fd3578151610fba8882610f5d565b9750610fc583610f75565b925050600181019050610fa6565b5085935050505092915050565b600060a082019050610ff56000830188610e36565b81810360208301526110078187610f82565b9050818103604083015261101b8186610706565b9050818103606083015261102f8185610706565b905061103e608083018461063d565b969550505050505056fea26469706673582212201812acbe705cc9506c31f8fad6580748abc55f2b78b82bf546aca94a031584fe64736f6c634300081a0033",
  "linkReferences": {},
  "deployedLinkReferences": {}
}