{
  "11155111": {
    "address": "0x5ddF069Ee98e05571c1C9E90edcd08B5a388A7a1"
  },
  "_format": "hh-sol-artifact-1",
  "contractName": "HashChan3",
  "sourceName": "contracts/HashChan3.sol",
  "abi": [
    {
      "inputs": [],
      "stateMutability": "nonpayable",
      "type": "constructor"
    },
    {
      "anonymous": false,
      "inputs": [
        {
          "indexed": true,
          "internalType": "uint256",
          "name": "boardId",
          "type": "uint256"
        },
        {
          "indexed": false,
          "internalType": "string",
          "name": "name",
          "type": "string"
        },
        {
          "indexed": false,
          "internalType": "string",
          "name": "symbol",
          "type": "string"
        },
        {
          "indexed": false,
          "internalType": "string",
          "name": "description",
          "type": "string"
        },
        {
          "indexed": false,
          "internalType": "string",
          "name": "bannerUrl",
          "type": "string"
        },
        {
          "indexed": false,
          "internalType": "string",
          "name": "bannerCID",
          "type": "string"
        },
        {
          "indexed": false,
          "internalType": "string[]",
          "name": "rules",
          "type": "string[]"
        },
        {
          "indexed": false,
          "internalType": "uint256",
          "name": "timestamp",
          "type": "uint256"
        }
      ],
      "name": "NewBoard",
      "type": "event"
    },
    {
      "anonymous": false,
      "inputs": [
        {
          "indexed": false,
          "internalType": "uint256",
          "name": "boardId",
          "type": "uint256"
        },
        {
          "indexed": true,
          "internalType": "bytes32",
          "name": "threadId",
          "type": "bytes32"
        },
        {
          "indexed": true,
          "internalType": "bytes32",
          "name": "postId",
          "type": "bytes32"
        },
        {
          "indexed": false,
          "internalType": "bytes32[]",
          "name": "replyIds",
          "type": "bytes32[]"
        },
        {
          "indexed": true,
          "internalType": "address",
          "name": "creator",
          "type": "address"
        },
        {
          "indexed": false,
          "internalType": "string",
          "name": "imgUrl",
          "type": "string"
        },
        {
          "indexed": false,
          "internalType": "string",
          "name": "imgCID",
          "type": "string"
        },
        {
          "indexed": false,
          "internalType": "string",
          "name": "content",
          "type": "string"
        },
        {
          "indexed": false,
          "internalType": "uint256",
          "name": "timestamp",
          "type": "uint256"
        }
      ],
      "name": "NewPost",
      "type": "event"
    },
    {
      "anonymous": false,
      "inputs": [
        {
          "indexed": true,
          "internalType": "uint256",
          "name": "boardId",
          "type": "uint256"
        },
        {
          "indexed": true,
          "internalType": "bytes32",
          "name": "threadId",
          "type": "bytes32"
        },
        {
          "indexed": true,
          "internalType": "address",
          "name": "creator",
          "type": "address"
        },
        {
          "indexed": false,
          "internalType": "string",
          "name": "imgUrl",
          "type": "string"
        },
        {
          "indexed": false,
          "internalType": "string",
          "name": "imgCID",
          "type": "string"
        },
        {
          "indexed": false,
          "internalType": "string",
          "name": "title",
          "type": "string"
        },
        {
          "indexed": false,
          "internalType": "string",
          "name": "content",
          "type": "string"
        },
        {
          "indexed": false,
          "internalType": "uint256",
          "name": "timestamp",
          "type": "uint256"
        }
      ],
      "name": "NewThread",
      "type": "event"
    },
    {
      "inputs": [],
      "name": "boardCount",
      "outputs": [
        {
          "internalType": "uint256",
          "name": "",
          "type": "uint256"
        }
      ],
      "stateMutability": "view",
      "type": "function"
    },
    {
      "inputs": [
        {
          "internalType": "uint256",
          "name": "",
          "type": "uint256"
        }
      ],
      "name": "boards",
      "outputs": [
        {
          "internalType": "string",
          "name": "name",
          "type": "string"
        },
        {
          "internalType": "string",
          "name": "symbol",
          "type": "string"
        },
        {
          "internalType": "string",
          "name": "description",
          "type": "string"
        },
        {
          "internalType": "string",
          "name": "bannerUrl",
          "type": "string"
        },
        {
          "internalType": "string",
          "name": "bannerCID",
          "type": "string"
        }
      ],
      "stateMutability": "view",
      "type": "function"
    },
    {
      "inputs": [
        {
          "internalType": "string",
          "name": "name",
          "type": "string"
        },
        {
          "internalType": "string",
          "name": "symbol",
          "type": "string"
        },
        {
          "internalType": "string",
          "name": "description",
          "type": "string"
        },
        {
          "internalType": "string",
          "name": "bannerUrl",
          "type": "string"
        },
        {
          "internalType": "string",
          "name": "bannerCID",
          "type": "string"
        },
        {
          "internalType": "string[]",
          "name": "rules",
          "type": "string[]"
        }
      ],
      "name": "createBoard",
      "outputs": [
        {
          "internalType": "uint256",
          "name": "",
          "type": "uint256"
        }
      ],
      "stateMutability": "nonpayable",
      "type": "function"
    },
    {
      "inputs": [
        {
          "internalType": "uint256",
          "name": "boardId",
          "type": "uint256"
        },
        {
          "internalType": "bytes32",
          "name": "threadId",
          "type": "bytes32"
        },
        {
          "internalType": "bytes32[]",
          "name": "replyIds",
          "type": "bytes32[]"
        },
        {
          "internalType": "string",
          "name": "imgUrl",
          "type": "string"
        },
        {
          "internalType": "string",
          "name": "imgCID",
          "type": "string"
        },
        {
          "internalType": "string",
          "name": "content",
          "type": "string"
        }
      ],
      "name": "createPost",
      "outputs": [
        {
          "internalType": "bytes32",
          "name": "postId",
          "type": "bytes32"
        }
      ],
      "stateMutability": "nonpayable",
      "type": "function"
    },
    {
      "inputs": [
        {
          "internalType": "uint256",
          "name": "boardId",
          "type": "uint256"
        },
        {
          "internalType": "string",
          "name": "title",
          "type": "string"
        },
        {
          "internalType": "string",
          "name": "imgUrl",
          "type": "string"
        },
        {
          "internalType": "string",
          "name": "imgCID",
          "type": "string"
        },
        {
          "internalType": "string",
          "name": "content",
          "type": "string"
        }
      ],
      "name": "createThread",
      "outputs": [
        {
          "internalType": "bytes32",
          "name": "threadId",
          "type": "bytes32"
        }
      ],
      "stateMutability": "nonpayable",
      "type": "function"
    },
    {
      "inputs": [
        {
          "internalType": "uint256",
          "name": "id",
          "type": "uint256"
        }
      ],
      "name": "getBoard",
      "outputs": [
        {
          "components": [
            {
              "internalType": "string",
              "name": "name",
              "type": "string"
            },
            {
              "internalType": "string",
              "name": "symbol",
              "type": "string"
            },
            {
              "internalType": "string",
              "name": "description",
              "type": "string"
            },
            {
              "internalType": "string",
              "name": "bannerUrl",
              "type": "string"
            },
            {
              "internalType": "string",
              "name": "bannerCID",
              "type": "string"
            },
            {
              "internalType": "string[]",
              "name": "rules",
              "type": "string[]"
            }
          ],
          "internalType": "struct HashChan3.Board",
          "name": "",
          "type": "tuple"
        }
      ],
      "stateMutability": "view",
      "type": "function"
    }
  ],
  "bytecode": "0x608060405234801561001057600080fd5b5060408051600380825260808201909252600091816020015b6060815260200190600190039081610029579050509050604051806080016040528060488152602001611c88604891398160008151811061006c5761006c6103eb565b60200260200101819052506040518060a0016040528060718152602001611c1760719139816001815181106100a3576100a36103eb565b6020026020010181905250604051806080016040528060518152602001611d3360519139816002815181106100da576100da6103eb565b602002602001018190525061018b6040518060400160405280601581526020017f506f6c69746963616c6c7920496e636f72726563740000000000000000000000815250604051806040016040528060038152602001621c1bdb60ea1b8152506040518060a0016040528060638152602001611d8460639139604051806060016040528060288152602001611cd0602891396040518060600160405280603b8152602001611cf8603b913986610192565b50506106aa565b60006004865111156101dc5760405162461bcd60e51b815260206004820152600f60248201526e73796d626f6c20746f6f206c6f6e6760881b604482015260640160405180910390fd5b6040805160c0810182528881526020808201899052818301889052606082018790526080820186905260a0820185905260008054815260019091529190912081518190610229908261048a565b506020820151600182019061023e908261048a565b5060408201516002820190610253908261048a565b5060608201516003820190610268908261048a565b506080820151600482019061027d908261048a565b5060a08201518051610299916005840191602090910190610310565b5050600080549150806102ab8361055e565b919050555060016000546102bf9190610577565b7fccb9b1cd83f22fb2f6344df2f5953739f1b38df363adf90e0cf2e0b153e5bae3888888888888426040516102fa97969594939291906105d6565b60405180910390a2506000549695505050505050565b828054828255906000526020600020908101928215610356579160200282015b828111156103565782518290610346908261048a565b5091602001919060010190610330565b50610362929150610366565b5090565b8082111561036257600061037a8282610383565b50600101610366565b50805461038f90610401565b6000825580601f1061039f575050565b601f0160209004906000526020600020908101906103bd91906103c0565b50565b5b8082111561036257600081556001016103c1565b634e487b7160e01b600052604160045260246000fd5b634e487b7160e01b600052603260045260246000fd5b600181811c9082168061041557607f821691505b60208210810361043557634e487b7160e01b600052602260045260246000fd5b50919050565b601f82111561048557806000526020600020601f840160051c810160208510156104625750805b601f840160051c820191505b81811015610482576000815560010161046e565b50505b505050565b81516001600160401b038111156104a3576104a36103d5565b6104b7816104b18454610401565b8461043b565b6020601f8211600181146104eb57600083156104d35750848201515b600019600385901b1c1916600184901b178455610482565b600084815260208120601f198516915b8281101561051b57878501518255602094850194600190920191016104fb565b50848210156105395786840151600019600387901b60f8161c191681555b50505050600190811b01905550565b634e487b7160e01b600052601160045260246000fd5b60006001820161057057610570610548565b5060010190565b8181038181111561058a5761058a610548565b92915050565b6000815180845260005b818110156105b65760208185018101518683018201520161059a565b506000602082860101526020601f19601f83011685010191505092915050565b60e0815260006105e960e083018a610590565b82810360208401526105fb818a610590565b9050828103604084015261060f8189610590565b905082810360608401526106238188610590565b905082810360808401526106378187610590565b905082810360a084015280855180835260208301915060208160051b8401016020880160005b8381101561068f57601f19868403018552610679838351610590565b602095860195909350919091019060010161065d565b5050809450505050508260c083015298975050505050505050565b61155e806106b96000396000f3fe608060405234801561001057600080fd5b50600436106100625760003560e01c806345e09e541461006757806390b1de26146100905780639a7083f9146100a7578063b9037db1146100cb578063f6001a48146100de578063fbdf895a146100f1575b600080fd5b61007a610075366004610b36565b610104565b6040516100879190610b95565b60405180910390f35b61009960005481565b604051908152602001610087565b6100ba6100b5366004610b36565b61050e565b604051610087959493929190610c95565b6100996100d9366004610db7565b6107e4565b6100996100ec366004610f0d565b610869565b6100996100ff36600461105d565b6108f3565b61013d6040518060c001604052806060815260200160608152602001606081526020016060815260200160608152602001606081525090565b60008281526001602052604090819020815160c0810190925280548290829061016590611160565b80601f016020809104026020016040519081016040528092919081815260200182805461019190611160565b80156101de5780601f106101b3576101008083540402835291602001916101de565b820191906000526020600020905b8154815290600101906020018083116101c157829003601f168201915b505050505081526020016001820180546101f790611160565b80601f016020809104026020016040519081016040528092919081815260200182805461022390611160565b80156102705780601f1061024557610100808354040283529160200191610270565b820191906000526020600020905b81548152906001019060200180831161025357829003601f168201915b5050505050815260200160028201805461028990611160565b80601f01602080910402602001604051908101604052809291908181526020018280546102b590611160565b80156103025780601f106102d757610100808354040283529160200191610302565b820191906000526020600020905b8154815290600101906020018083116102e557829003601f168201915b5050505050815260200160038201805461031b90611160565b80601f016020809104026020016040519081016040528092919081815260200182805461034790611160565b80156103945780601f1061036957610100808354040283529160200191610394565b820191906000526020600020905b81548152906001019060200180831161037757829003601f168201915b505050505081526020016004820180546103ad90611160565b80601f01602080910402602001604051908101604052809291908181526020018280546103d990611160565b80156104265780601f106103fb57610100808354040283529160200191610426565b820191906000526020600020905b81548152906001019060200180831161040957829003601f168201915b5050505050815260200160058201805480602002602001604051908101604052809291908181526020016000905b8282101561050057838290600052602060002001805461047390611160565b80601f016020809104026020016040519081016040528092919081815260200182805461049f90611160565b80156104ec5780601f106104c1576101008083540402835291602001916104ec565b820191906000526020600020905b8154815290600101906020018083116104cf57829003601f168201915b505050505081526020019060010190610454565b505050915250909392505050565b60016020526000908152604090208054819061052990611160565b80601f016020809104026020016040519081016040528092919081815260200182805461055590611160565b80156105a25780601f10610577576101008083540402835291602001916105a2565b820191906000526020600020905b81548152906001019060200180831161058557829003601f168201915b5050505050908060010180546105b790611160565b80601f01602080910402602001604051908101604052809291908181526020018280546105e390611160565b80156106305780601f1061060557610100808354040283529160200191610630565b820191906000526020600020905b81548152906001019060200180831161061357829003601f168201915b50505050509080600201805461064590611160565b80601f016020809104026020016040519081016040528092919081815260200182805461067190611160565b80156106be5780601f10610693576101008083540402835291602001916106be565b820191906000526020600020905b8154815290600101906020018083116106a157829003601f168201915b5050505050908060030180546106d390611160565b80601f01602080910402602001604051908101604052809291908181526020018280546106ff90611160565b801561074c5780601f106107215761010080835404028352916020019161074c565b820191906000526020600020905b81548152906001019060200180831161072f57829003601f168201915b50505050509080600401805461076190611160565b80601f016020809104026020016040519081016040528092919081815260200182805461078d90611160565b80156107da5780601f106107af576101008083540402835291602001916107da565b820191906000526020600020905b8154815290600101906020018083116107bd57829003601f168201915b5050505050905085565b6000858333436040516020016107fd949392919061119a565b604051602081830303815290604052805190602001209050336001600160a01b031681877fe3d9c787ff9a2c8c020bf81ee081af0ab9a252c80b41af438db2e09a0489ba9987878a88426040516108589594939291906111cf565b60405180910390a495945050505050565b6000868684334360405160200161088495949392919061122f565b604051602081830303815290604052805190602001209050336001600160a01b031681877f5cdd9da62c61eaafed9065aca74de82e597f04385ead6ad0574b510eaafb5b748a89898989426040516108e19695949392919061126b565b60405180910390a49695505050505050565b600060048651111561093d5760405162461bcd60e51b815260206004820152600f60248201526e73796d626f6c20746f6f206c6f6e6760881b604482015260640160405180910390fd5b6040805160c0810182528881526020808201899052818301889052606082018790526080820186905260a082018590526000805481526001909152919091208151819061098a908261134e565b506020820151600182019061099f908261134e565b50604082015160028201906109b4908261134e565b50606082015160038201906109c9908261134e565b50608082015160048201906109de908261134e565b5060a082015180516109fa916005840191602090910190610a71565b505060008054915080610a0c83611422565b91905055506001600054610a20919061143b565b7fccb9b1cd83f22fb2f6344df2f5953739f1b38df363adf90e0cf2e0b153e5bae388888888888842604051610a5b9796959493929190611454565b60405180910390a2506000549695505050505050565b828054828255906000526020600020908101928215610ab7579160200282015b82811115610ab75782518290610aa7908261134e565b5091602001919060010190610a91565b50610ac3929150610ac7565b5090565b80821115610ac3576000610adb8282610ae4565b50600101610ac7565b508054610af090611160565b6000825580601f10610b00575050565b601f016020900490600052602060002090810190610b1e9190610b21565b50565b5b80821115610ac35760008155600101610b22565b600060208284031215610b4857600080fd5b5035919050565b6000815180845260005b81811015610b7557602081850181015186830182015201610b59565b506000602082860101526020601f19601f83011685010191505092915050565b602081526000825160c06020840152610bb160e0840182610b4f565b90506020840151601f19848303016040850152610bce8282610b4f565b9150506040840151601f19848303016060850152610bec8282610b4f565b9150506060840151601f19848303016080850152610c0a8282610b4f565b9150506080840151601f198483030160a0850152610c288282610b4f565b60a0860151858203601f190160c08701528051808352919350602090810192508084019190600582901b85010160005b82811015610c8957601f19868303018452610c74828651610b4f565b60209586019594909401939150600101610c58565b50979650505050505050565b60a081526000610ca860a0830188610b4f565b8281036020840152610cba8188610b4f565b90508281036040840152610cce8187610b4f565b90508281036060840152610ce28186610b4f565b90508281036080840152610cf68185610b4f565b98975050505050505050565b634e487b7160e01b600052604160045260246000fd5b604051601f8201601f191681016001600160401b0381118282101715610d4057610d40610d02565b604052919050565b600082601f830112610d5957600080fd5b81356001600160401b03811115610d7257610d72610d02565b610d85601f8201601f1916602001610d18565b818152846020838601011115610d9a57600080fd5b816020850160208301376000918101602001919091529392505050565b600080600080600060a08688031215610dcf57600080fd5b8535945060208601356001600160401b03811115610dec57600080fd5b610df888828901610d48565b94505060408601356001600160401b03811115610e1457600080fd5b610e2088828901610d48565b93505060608601356001600160401b03811115610e3c57600080fd5b610e4888828901610d48565b92505060808601356001600160401b03811115610e6457600080fd5b610e7088828901610d48565b9150509295509295909350565b60006001600160401b03821115610e9657610e96610d02565b5060051b60200190565b600082601f830112610eb157600080fd5b8135610ec4610ebf82610e7d565b610d18565b8082825260208201915060208360051b860101925085831115610ee657600080fd5b602085015b83811015610f03578035835260209283019201610eeb565b5095945050505050565b60008060008060008060c08789031215610f2657600080fd5b863595506020870135945060408701356001600160401b03811115610f4a57600080fd5b610f5689828a01610ea0565b94505060608701356001600160401b03811115610f7257600080fd5b610f7e89828a01610d48565b93505060808701356001600160401b03811115610f9a57600080fd5b610fa689828a01610d48565b92505060a08701356001600160401b03811115610fc257600080fd5b610fce89828a01610d48565b9150509295509295509295565b600082601f830112610fec57600080fd5b8135610ffa610ebf82610e7d565b8082825260208201915060208360051b86010192508583111561101c57600080fd5b602085015b83811015610f035780356001600160401b0381111561103f57600080fd5b61104e886020838a0101610d48565b84525060209283019201611021565b60008060008060008060c0878903121561107657600080fd5b86356001600160401b0381111561108c57600080fd5b61109889828a01610d48565b96505060208701356001600160401b038111156110b457600080fd5b6110c089828a01610d48565b95505060408701356001600160401b038111156110dc57600080fd5b6110e889828a01610d48565b94505060608701356001600160401b0381111561110457600080fd5b61111089828a01610d48565b93505060808701356001600160401b0381111561112c57600080fd5b61113889828a01610d48565b92505060a08701356001600160401b0381111561115457600080fd5b610fce89828a01610fdb565b600181811c9082168061117457607f821691505b60208210810361119457634e487b7160e01b600052602260045260246000fd5b50919050565b8481526080602082015260006111b36080830186610b4f565b6001600160a01b03949094166040830152506060015292915050565b60a0815260006111e260a0830188610b4f565b82810360208401526111f48188610b4f565b905082810360408401526112088187610b4f565b9050828103606084015261121c8186610b4f565b9150508260808301529695505050505050565b85815284602082015260a06040820152600061124e60a0830186610b4f565b6001600160a01b0394909416606083015250608001529392505050565b600060c0820188835260c0602084015280885180835260e08501915060208a01925060005b818110156112ae578351835260209384019390920191600101611290565b505083810360408501526112c28189610b4f565b91505082810360608401526112d78187610b4f565b905082810360808401526112eb8186610b4f565b9150508260a0830152979650505050505050565b601f82111561134957806000526020600020601f840160051c810160208510156113265750805b601f840160051c820191505b818110156113465760008155600101611332565b50505b505050565b81516001600160401b0381111561136757611367610d02565b61137b816113758454611160565b846112ff565b6020601f8211600181146113af57600083156113975750848201515b600019600385901b1c1916600184901b178455611346565b600084815260208120601f198516915b828110156113df57878501518255602094850194600190920191016113bf565b50848210156113fd5786840151600019600387901b60f8161c191681555b50505050600190811b01905550565b634e487b7160e01b600052601160045260246000fd5b6000600182016114345761143461140c565b5060010190565b8181038181111561144e5761144e61140c565b92915050565b60e08152600061146760e083018a610b4f565b8281036020840152611479818a610b4f565b9050828103604084015261148d8189610b4f565b905082810360608401526114a18188610b4f565b905082810360808401526114b58187610b4f565b905082810360a084015280855180835260208301915060208160051b8401016020880160005b8381101561150d57601f198684030185526114f7838351610b4f565b60209586019590935091909101906001016114db565b5050809450505050508260c08301529897505050505050505056fea26469706673582212209e7089fc50f8f0463bb504b965d5afee81489a58721addb9c2617177a8d4243a64736f6c634300081c0033596f7520617265206672656520746f20737065616b20796f7572206d696e642c2062757420646f206e6f742061747461636b206f746865722075736572732e20596f75206d6179206368616c6c656e6765206f6e6520616e6f746865722c20627574206b65657020697420636976696c2144656261746520616e642064697363757373696f6e2072656c6174656420746f20706f6c697469637320616e642063757272656e74206576656e74732069732077656c636f6d652e68747470733a2f2f692e3463646e2e6f72672f706f6c2f313439333939333232363735302e6a70676261666b726569623763767471793565786d796d6e6d3332686b736179616f6b37797766356c736f7a3378676c6970666e7665727064676d726b69506f7374696e6720706f726e6f677261706879206973206e6f74207065726d69747465642e2054686973206973206120706f6c697469637320626f6172642c206e6f74206120706f726e20626f6172642e5468697320626f61726420697320666f72207468652064697363757373696f6e206f66206e6577732c20776f726c64206576656e74732c20706f6c69746963616c206973737565732c20616e64206f746865722072656c6174656420746f706963732e",
  "linkReferences": {},
  "deployedLinkReferences": {}
}