{
  "8453": {
    "address": "0xc525af851fa283190d6e13d0f164c06ab51c266a"
  },
  "11155111": {
    "address": "0x147211461d47c8a4f5712cba079c521cacedb16b"
  },
  "_format": "hh-sol-artifact-1",
  "contractName": "ModerationServiceFactory",
  "sourceName": "contracts/ModerationServiceFactory.sol",
  "abi": [
    {
      "inputs": [
        {
          "internalType": "address",
          "name": "_hashChan3",
          "type": "address"
        }
      ],
      "stateMutability": "nonpayable",
      "type": "constructor"
    },
    {
      "anonymous": false,
      "inputs": [
        {
          "indexed": true,
          "internalType": "address",
          "name": "owner",
          "type": "address"
        },
        {
          "indexed": true,
          "internalType": "address",
          "name": "moderationService",
          "type": "address"
        },
        {
          "indexed": true,
          "internalType": "uint256",
          "name": "blockNumber",
          "type": "uint256"
        },
        {
          "indexed": false,
          "internalType": "string",
          "name": "name",
          "type": "string"
        }
      ],
      "name": "NewModerationService",
      "type": "event"
    },
    {
      "inputs": [
        {
          "internalType": "string",
          "name": "name",
          "type": "string"
        },
        {
          "internalType": "string",
          "name": "uri",
          "type": "string"
        },
        {
          "internalType": "uint256",
          "name": "port",
          "type": "uint256"
        }
      ],
      "name": "createModerationService",
      "outputs": [],
      "stateMutability": "nonpayable",
      "type": "function"
    },
    {
      "inputs": [],
      "name": "getModerationServices",
      "outputs": [
        {
          "internalType": "address[]",
          "name": "",
          "type": "address[]"
        }
      ],
      "stateMutability": "view",
      "type": "function"
    },
    {
      "inputs": [],
      "name": "hashChan3",
      "outputs": [
        {
          "internalType": "contract HashChan3",
          "name": "",
          "type": "address"
        }
      ],
      "stateMutability": "view",
      "type": "function"
    },
    {
      "inputs": [],
      "name": "modServiceIterator",
      "outputs": [
        {
          "internalType": "uint256",
          "name": "",
          "type": "uint256"
        }
      ],
      "stateMutability": "view",
      "type": "function"
    },
    {
      "inputs": [
        {
          "internalType": "uint256",
          "name": "",
          "type": "uint256"
        }
      ],
      "name": "modServices",
      "outputs": [
        {
          "internalType": "address",
          "name": "",
          "type": "address"
        }
      ],
      "stateMutability": "view",
      "type": "function"
    }
  ],
  "bytecode": "0x6080604052348015600f57600080fd5b50604051612452380380612452833981016040819052602c916050565b600080546001600160a01b0319166001600160a01b0392909216919091179055607e565b600060208284031215606157600080fd5b81516001600160a01b0381168114607757600080fd5b9392505050565b6123c58061008d6000396000f3fe608060405234801561001057600080fd5b50600436106100575760003560e01c8063222d03a61461005c5780633dfac0d71461008c578063ab109e2b146100a1578063d52b4d0d146100b6578063dd8c46f0146100c9575b600080fd5b61006f61006a36600461027c565b6100e0565b6040516001600160a01b0390911681526020015b60405180910390f35b61009461010a565b6040516100839190610295565b6100b46100af366004610386565b61016c565b005b60005461006f906001600160a01b031681565b6100d260025481565b604051908152602001610083565b600181815481106100f057600080fd5b6000918252602090912001546001600160a01b0316905081565b6060600180548060200260200160405190810160405280929190818152602001828054801561016257602002820191906000526020600020905b81546001600160a01b03168152600190910190602001808311610144575b5050505050905090565b60008060009054906101000a90046001600160a01b0316843385856040516101939061026f565b6101a195949392919061043f565b604051809103906000f0801580156101bd573d6000803e3d6000fd5b5060018054808201825560009182527fb10e2d527612073b26eecdfd717e6a320cf44b4afac2b0732d9fcbe2b7fa0cf60180546001600160a01b0319166001600160a01b038416179055600280549293509061021883610497565b919050555043816001600160a01b0316336001600160a01b03167f6edda9f990e5d27946a8b10cf2302f72dc57b9ac6205f11c4f8404971e3aef8e8760405161026191906104be565b60405180910390a450505050565b611eb7806104d983390190565b60006020828403121561028e57600080fd5b5035919050565b602080825282518282018190526000918401906040840190835b818110156102d65783516001600160a01b03168352602093840193909201916001016102af565b509095945050505050565b634e487b7160e01b600052604160045260246000fd5b600082601f83011261030857600080fd5b813567ffffffffffffffff811115610322576103226102e1565b604051601f8201601f19908116603f0116810167ffffffffffffffff81118282101715610351576103516102e1565b60405281815283820160200185101561036957600080fd5b816020850160208301376000918101602001919091529392505050565b60008060006060848603121561039b57600080fd5b833567ffffffffffffffff8111156103b257600080fd5b6103be868287016102f7565b935050602084013567ffffffffffffffff8111156103db57600080fd5b6103e7868287016102f7565b93969395505050506040919091013590565b6000815180845260005b8181101561041f57602081850181015186830182015201610403565b506000602082860101526020601f19601f83011685010191505092915050565b6001600160a01b038616815260a060208201819052600090610463908301876103f9565b6001600160a01b0386166040840152828103606084015261048481866103f9565b9150508260808301529695505050505050565b6000600182016104b757634e487b7160e01b600052601160045260246000fd5b5060010190565b6020815260006104d160208301846103f9565b939250505056fe6101606040526101f4600b556107d0600c5534801561001d57600080fd5b50604051611eb7380380611eb783398101604081905261003c91610322565b6040805180820190915260018152603160f81b60208201528490846001600160a01b03811661008657604051631e4fbdf760e01b8152600060048201526024015b60405180910390fd5b61008f81610182565b5061009b8260016101d2565b610120526100aa8160026101d2565b61014052815160208084019190912060e052815190820120610100524660a05261013760e05161010051604080517f8b73c3c69bb8fe3d512ecc4cf759cc79239f7b179b0ffacaa9a75d522b39400f60208201529081019290925260608201524660808201523060a082015260009060c00160405160208183030381529060405280519060200120905090565b60805250503060c052600380546001600160a01b0319166001600160a01b0387161790556004610167858261043f565b506005610174838261043f565b506006555061055492505050565b600080546001600160a01b038381166001600160a01b0319831681178455604051919092169283917f8be0079c531659141344cd1fd0a4f28419497f9722a3daafe3b4186f6b6457e09190a35050565b60006020835110156101ee576101e783610205565b90506101ff565b816101f9848261043f565b5060ff90505b92915050565b600080829050601f81511115610230578260405163305a27a960e01b815260040161007d91906104fd565b805161023b82610530565b179392505050565b80516001600160a01b038116811461025a57600080fd5b919050565b634e487b7160e01b600052604160045260246000fd5b60005b83811015610290578181015183820152602001610278565b50506000910152565b600082601f8301126102aa57600080fd5b81516001600160401b038111156102c3576102c361025f565b604051601f8201601f19908116603f011681016001600160401b03811182821017156102f1576102f161025f565b60405281815283820160200185101561030957600080fd5b61031a826020830160208701610275565b949350505050565b600080600080600060a0868803121561033a57600080fd5b61034386610243565b60208701519095506001600160401b0381111561035f57600080fd5b61036b88828901610299565b94505061037a60408701610243565b60608701519093506001600160401b0381111561039657600080fd5b6103a288828901610299565b925050608086015190509295509295909350565b600181811c908216806103ca57607f821691505b6020821081036103ea57634e487b7160e01b600052602260045260246000fd5b50919050565b601f82111561043a57806000526020600020601f840160051c810160208510156104175750805b601f840160051c820191505b818110156104375760008155600101610423565b50505b505050565b81516001600160401b038111156104585761045861025f565b61046c8161046684546103b6565b846103f0565b6020601f8211600181146104a057600083156104885750848201515b600019600385901b1c1916600184901b178455610437565b600084815260208120601f198516915b828110156104d057878501518255602094850194600190920191016104b0565b50848210156104ee5786840151600019600387901b60f8161c191681555b50505050600190811b01905550565b602081526000825180602084015261051c816040850160208701610275565b601f01601f19169190910160400192915050565b805160208083015191908110156103ea5760001960209190910360031b1b16919050565b60805160a05160c05160e0516101005161012051610140516119096105ae6000396000610e8901526000610e57015260006110910152600061106901526000610fc401526000610fee0152600061101801526119096000f3fe60806040526004361061012a5760003560e01c806384b0196e116100ab578063d52b4d0d1161006f578063d52b4d0d1461039f578063eac989f8146103bf578063eec4a5b7146103d4578063f2cf2b81146103f4578063f2fde38b1461040a578063fc5e54ed1461042a57600080fd5b806384b0196e146102bf5780638da5cb5b146102e7578063a59e615d14610319578063b74097b014610339578063c4584ab11461038c57600080fd5b806351a5074f116100f257806351a5074f1461021e5780636112232114610234578063715018a61461025657806377ca84c81461026b5780637d5779be1461029f57600080fd5b806306fdde031461012f57806326b3c68b1461015a57806336b725401461017e57806343564ee5146101e05780635036bc5314610208575b600080fd5b34801561013b57600080fd5b50610144610440565b6040516101519190611368565b60405180910390f35b34801561016657600080fd5b5061017060065481565b604051908152602001610151565b34801561018a57600080fd5b506101c061019936600461139e565b600d6020526000908152604090208054600182015460028301546003909301549192909184565b604080519485526020850193909352918301526060820152608001610151565b3480156101ec57600080fd5b506101f56104ce565b60405161015197969594939291906113b9565b34801561021457600080fd5b50610170600a5481565b34801561022a57600080fd5b5061017060085481565b34801561024057600080fd5b5061025461024f3660046114bb565b61062a565b005b34801561026257600080fd5b50610254610682565b34801561027757600080fd5b506101707fd27e0d617618530b38c33fdfb6b0f18274d37f4691af58f6829122cf002eeae881565b3480156102ab57600080fd5b506102546102ba36600461139e565b610696565b3480156102cb57600080fd5b506102d461078d565b6040516101519796959493929190611500565b3480156102f357600080fd5b506000546001600160a01b03165b6040516001600160a01b039091168152602001610151565b34801561032557600080fd5b50610254610334366004611598565b6107d3565b34801561034557600080fd5b5061035961035436600461139e565b610883565b60405161015191908151815260208083015190820152604080830151908201526060918201519181019190915260800190565b61025461039a3660046115c9565b6108fc565b3480156103ab57600080fd5b50600354610301906001600160a01b031681565b3480156103cb57600080fd5b50610144610d01565b3480156103e057600080fd5b506102546103ef36600461139e565b610d0e565b34801561040057600080fd5b5061017060095481565b34801561041657600080fd5b5061025461042536600461139e565b610d95565b34801561043657600080fd5b5061017060075481565b6004805461044d906116a3565b80601f0160208091040260200160405190810160405280929190818152602001828054610479906116a3565b80156104c65780601f1061049b576101008083540402835291602001916104c6565b820191906000526020600020905b8154815290600101906020018083116104a957829003601f168201915b505050505081565b60006060806000806000806104eb6000546001600160a01b031690565b60046005600654600754600854600954858054610507906116a3565b80601f0160208091040260200160405190810160405280929190818152602001828054610533906116a3565b80156105805780601f1061055557610100808354040283529160200191610580565b820191906000526020600020905b81548152906001019060200180831161056357829003601f168201915b50505050509550848054610593906116a3565b80601f01602080910402602001604051908101604052809291908181526020018280546105bf906116a3565b801561060c5780601f106105e15761010080835404028352916020019161060c565b820191906000526020600020905b8154815290600101906020018083116105ef57829003601f168201915b50505050509450965096509650965096509650965090919293949596565b610632610dd3565b600561063e8382611726565b5060068190556040517f595cea80bc1db66c13b3e1aeb38a61ba4bf1bf4041ffc0bce02feddfa255eb729061067690849084906117e5565b60405180910390a15050565b61068a610dd3565b6106946000610e00565b565b61069e610dd3565b6001600160a01b0381166000908152600d6020526040902060010154600a11156107355760405162461bcd60e51b815260206004820152603f60248201527f4a616e69746f7273207769746820696e737566696369656e74206e656761746960448201527f766520666565646261636b2077696c6c206e6f742062652072656d6f7665640060648201526084015b60405180910390fd5b6001600160a01b0381166000818152600d60205260408082208281556001810183905560028101839055600301829055517f63d5a0113e1b12984791a24ad2df3d97e99840b68b4dec6d2adc790689bcb8959190a250565b6000606080600080600060606107a1610e50565b6107a9610e82565b60408051600080825260208201909252600f60f81b9b939a50919850469750309650945092509050565b6107db610dd3565b600c5481111561082d5760405162461bcd60e51b815260206004820152601760248201527f6f776e657220666565207261746520746f6f2068696768000000000000000000604482015260640161072c565b600b8190556000546001600160a01b03166001600160a01b03167feda4f839338f7877785ddaa99193c8f3237884604d285a033529fde0c216b5448260405161087891815260200190565b60405180910390a250565b6108ae6040518060800160405280600081526020016000815260200160008152602001600081525090565b506001600160a01b03166000908152600d6020908152604091829020825160808101845281548152600182015492810192909252600281015492820192909252600390910154606082015290565b6001600160a01b0386166000908152600d6020526040812060028101549091036109685760405162461bcd60e51b815260206004820152601a60248201527f4a616e69746f72206861736e2774207374617274656420796574000000000000604482015260640161072c565b604080517fd27e0d617618530b38c33fdfb6b0f18274d37f4691af58f6829122cf002eeae8602082810191909152843582840152840135606082810191909152918401356080828101919091529184013560a08201529083013560c08201526000906109ec9060e00160405160208183030381529060405280519060200120610eaf565b90506000610a3286868080601f0160208091040260200160405190810160405280939291908181526020018383808284376000920191909152508693925050610ee29050565b9050886001600160a01b0316816001600160a01b031614610a955760405162461bcd60e51b815260206004820152601860248201527f7369676e6572206a616e69746f72206d6973206d617463680000000000000000604482015260640161072c565b8715610ac8578254836000610aa98361181d565b909155505060078054906000610abe8361181d565b9190505550610af5565b600183018054906000610ada8361181d565b909155505060088054906000610aef8361181d565b91905055505b600061271034600b54610b089190611836565b610b12919061184d565b90506000610b20823461186f565b905080856003016000828254610b369190611882565b9250508190555081600a6000828254610b4f9190611882565b925050819055503460096000828254610b689190611882565b90915550506040516000906001600160a01b038d169083908381818185875af1925050503d8060008114610bb8576040519150601f19603f3d011682016040523d82523d6000602084013e610bbd565b606091505b5050905080610c035760405162461bcd60e51b815260206004820152601260248201527108cc2d2d8cac840e8de40e6cadcc8408aa8960731b604482015260640161072c565b6000546001600160a01b03166001600160a01b03168360405160006040518083038185875af1925050503d8060008114610c59576040519150601f19603f3d011682016040523d82523d6000602084013e610c5e565b606091505b50508091505080610ca65760405162461bcd60e51b815260206004820152601260248201527108cc2d2d8cac840e8de40e6cadcc8408aa8960731b604482015260640161072c565b8a151587606001358d6001600160a01b03167fc8cea78310005ff07e246ad29a453ba1ae17c9f2e188ea7ce16074e5b78ef22e85878f604051610ceb93929190611895565b60405180910390a4505050505050505050505050565b6005805461044d906116a3565b610d16610dd3565b604080516080810182526000808252602080830182815242848601908152606085018481526001600160a01b038816808652600d909452868520955186559151600186015551600285015551600390930192909255915190917f2bc1d8d2d115e2d66e35a5c4f909caff0d23eca30f4c7ef33a0a0dd0b612865791a250565b610d9d610dd3565b6001600160a01b038116610dc757604051631e4fbdf760e01b81526000600482015260240161072c565b610dd081610e00565b50565b6000546001600160a01b031633146106945760405163118cdaa760e01b815233600482015260240161072c565b600080546001600160a01b038381166001600160a01b0319831681178455604051919092169283917f8be0079c531659141344cd1fd0a4f28419497f9722a3daafe3b4186f6b6457e09190a35050565b6060610e7d7f00000000000000000000000000000000000000000000000000000000000000006001610f0c565b905090565b6060610e7d7f00000000000000000000000000000000000000000000000000000000000000006002610f0c565b6000610edc610ebc610fb7565b8360405161190160f01b8152600281019290925260228201526042902090565b92915050565b600080600080610ef286866110e2565b925092509250610f02828261112f565b5090949350505050565b606060ff8314610f2657610f1f836111ec565b9050610edc565b818054610f32906116a3565b80601f0160208091040260200160405190810160405280929190818152602001828054610f5e906116a3565b8015610fab5780601f10610f8057610100808354040283529160200191610fab565b820191906000526020600020905b815481529060010190602001808311610f8e57829003601f168201915b50505050509050610edc565b6000306001600160a01b037f00000000000000000000000000000000000000000000000000000000000000001614801561101057507f000000000000000000000000000000000000000000000000000000000000000046145b1561103a57507f000000000000000000000000000000000000000000000000000000000000000090565b610e7d604080517f8b73c3c69bb8fe3d512ecc4cf759cc79239f7b179b0ffacaa9a75d522b39400f60208201527f0000000000000000000000000000000000000000000000000000000000000000918101919091527f000000000000000000000000000000000000000000000000000000000000000060608201524660808201523060a082015260009060c00160405160208183030381529060405280519060200120905090565b6000806000835160410361111c5760208401516040850151606086015160001a61110e8882858561122b565b955095509550505050611128565b50508151600091506002905b9250925092565b6000826003811115611143576111436118bd565b0361114c575050565b6001826003811115611160576111606118bd565b0361117e5760405163f645eedf60e01b815260040160405180910390fd5b6002826003811115611192576111926118bd565b036111b35760405163fce698f760e01b81526004810182905260240161072c565b60038260038111156111c7576111c76118bd565b036111e8576040516335e2f38360e21b81526004810182905260240161072c565b5050565b606060006111f9836112fa565b604080516020808252818301909252919250600091906020820181803683375050509182525060208101929092525090565b600080807f7fffffffffffffffffffffffffffffff5d576e7357a4501ddfe92f46681b20a084111561126657506000915060039050826112f0565b604080516000808252602082018084528a905260ff891692820192909252606081018790526080810186905260019060a0016020604051602081039080840390855afa1580156112ba573d6000803e3d6000fd5b5050604051601f1901519150506001600160a01b0381166112e6575060009250600191508290506112f0565b9250600091508190505b9450945094915050565b600060ff8216601f811115610edc57604051632cd44ac360e21b815260040160405180910390fd5b6000815180845260005b818110156113485760208185018101518683018201520161132c565b506000602082860101526020601f19601f83011685010191505092915050565b60208152600061137b6020830184611322565b9392505050565b80356001600160a01b038116811461139957600080fd5b919050565b6000602082840312156113b057600080fd5b61137b82611382565b6001600160a01b038816815260e0602082018190526000906113dd90830189611322565b82810360408401526113ef8189611322565b9150508560608301528460808301528360a08301528260c083015298975050505050505050565b634e487b7160e01b600052604160045260246000fd5b600082601f83011261143d57600080fd5b813567ffffffffffffffff81111561145757611457611416565b604051601f8201601f19908116603f0116810167ffffffffffffffff8111828210171561148657611486611416565b60405281815283820160200185101561149e57600080fd5b816020850160208301376000918101602001919091529392505050565b600080604083850312156114ce57600080fd5b823567ffffffffffffffff8111156114e557600080fd5b6114f18582860161142c565b95602094909401359450505050565b60ff60f81b8816815260e06020820152600061151f60e0830189611322565b82810360408401526115318189611322565b606084018890526001600160a01b038716608085015260a0840186905283810360c08501528451808252602080870193509091019060005b81811015611587578351835260209384019390920191600101611569565b50909b9a5050505050505050505050565b6000602082840312156115aa57600080fd5b5035919050565b600060a082840312156115c357600080fd5b50919050565b60008060008060008061012087890312156115e357600080fd5b6115ec87611382565b95506020870135801515811461160157600080fd5b9450604087013567ffffffffffffffff81111561161d57600080fd5b61162989828a0161142c565b945050606087013567ffffffffffffffff81111561164657600080fd5b8701601f8101891361165757600080fd5b803567ffffffffffffffff81111561166e57600080fd5b89602082840101111561168057600080fd5b6020919091019350915061169788608089016115b1565b90509295509295509295565b600181811c908216806116b757607f821691505b6020821081036115c357634e487b7160e01b600052602260045260246000fd5b601f82111561172157806000526020600020601f840160051c810160208510156116fe5750805b601f840160051c820191505b8181101561171e576000815560010161170a565b50505b505050565b815167ffffffffffffffff81111561174057611740611416565b6117548161174e84546116a3565b846116d7565b6020601f82116001811461178857600083156117705750848201515b600019600385901b1c1916600184901b17845561171e565b600084815260208120601f198516915b828110156117b85787850151825560209485019460019092019101611798565b50848210156117d65786840151600019600387901b60f8161c191681555b50505050600190811b01905550565b6040815260006117f86040830185611322565b90508260208301529392505050565b634e487b7160e01b600052601160045260246000fd5b60006001820161182f5761182f611807565b5060010190565b8082028115828204841417610edc57610edc611807565b60008261186a57634e487b7160e01b600052601260045260246000fd5b500490565b81810381811115610edc57610edc611807565b80820180821115610edc57610edc611807565b8381528260208201526060604082015260006118b46060830184611322565b95945050505050565b634e487b7160e01b600052602160045260246000fdfea264697066735822122069f194f97e69a3da7abb194156b5b475a5dff36ec99fd63013aa4e0cf95b245364736f6c634300081c0033a264697066735822122050d56bb4fdaf7802f66e53bc7f5b6aa5ac504c1abb9f914b14c4f0b933dee6b364736f6c634300081c0033",
  "linkReferences": {},
  "deployedLinkReferences": {}
}