{
  "11155111": {
    "address": "0x7D2588292C4437Fa94b60cE96433a4Bb8666a829"
  },
  "_format": "hh-sol-artifact-1",
  "contractName": "ModerationServiceFactory",
  "sourceName": "contracts/ModerationServiceFactory.sol",
  "abi": [
    {
      "inputs": [
        {
          "internalType": "address",
          "name": "_hashChan3",
          "type": "address"
        }
      ],
      "stateMutability": "nonpayable",
      "type": "constructor"
    },
    {
      "anonymous": false,
      "inputs": [
        {
          "indexed": true,
          "internalType": "address",
          "name": "owner",
          "type": "address"
        },
        {
          "indexed": true,
          "internalType": "address",
          "name": "moderationService",
          "type": "address"
        },
        {
          "indexed": true,
          "internalType": "uint256",
          "name": "blockNumber",
          "type": "uint256"
        },
        {
          "indexed": false,
          "internalType": "string",
          "name": "name",
          "type": "string"
        }
      ],
      "name": "NewModerationService",
      "type": "event"
    },
    {
      "inputs": [
        {
          "internalType": "string",
          "name": "name",
          "type": "string"
        },
        {
          "internalType": "string",
          "name": "uri",
          "type": "string"
        },
        {
          "internalType": "uint256",
          "name": "port",
          "type": "uint256"
        }
      ],
      "name": "createModerationService",
      "outputs": [],
      "stateMutability": "nonpayable",
      "type": "function"
    },
    {
      "inputs": [],
      "name": "getModerationServices",
      "outputs": [
        {
          "internalType": "address[]",
          "name": "",
          "type": "address[]"
        }
      ],
      "stateMutability": "view",
      "type": "function"
    },
    {
      "inputs": [],
      "name": "hashChan3",
      "outputs": [
        {
          "internalType": "contract HashChan3",
          "name": "",
          "type": "address"
        }
      ],
      "stateMutability": "view",
      "type": "function"
    },
    {
      "inputs": [],
      "name": "modServiceIterator",
      "outputs": [
        {
          "internalType": "uint256",
          "name": "",
          "type": "uint256"
        }
      ],
      "stateMutability": "view",
      "type": "function"
    },
    {
      "inputs": [
        {
          "internalType": "uint256",
          "name": "",
          "type": "uint256"
        }
      ],
      "name": "modServices",
      "outputs": [
        {
          "internalType": "address",
          "name": "",
          "type": "address"
        }
      ],
      "stateMutability": "view",
      "type": "function"
    }
  ],
  "bytecode": "0x6080604052348015600f57600080fd5b5060405161217d38038061217d833981016040819052602c916050565b600080546001600160a01b0319166001600160a01b0392909216919091179055607e565b600060208284031215606157600080fd5b81516001600160a01b0381168114607757600080fd5b9392505050565b6120f08061008d6000396000f3fe608060405234801561001057600080fd5b50600436106100575760003560e01c8063222d03a61461005c5780633dfac0d71461008c578063ab109e2b146100a1578063d52b4d0d146100b6578063dd8c46f0146100c9575b600080fd5b61006f61006a36600461027c565b6100e0565b6040516001600160a01b0390911681526020015b60405180910390f35b61009461010a565b6040516100839190610295565b6100b46100af366004610386565b61016c565b005b60005461006f906001600160a01b031681565b6100d260025481565b604051908152602001610083565b600181815481106100f057600080fd5b6000918252602090912001546001600160a01b0316905081565b6060600180548060200260200160405190810160405280929190818152602001828054801561016257602002820191906000526020600020905b81546001600160a01b03168152600190910190602001808311610144575b5050505050905090565b60008060009054906101000a90046001600160a01b0316843385856040516101939061026f565b6101a195949392919061043f565b604051809103906000f0801580156101bd573d6000803e3d6000fd5b5060018054808201825560009182527fb10e2d527612073b26eecdfd717e6a320cf44b4afac2b0732d9fcbe2b7fa0cf60180546001600160a01b0319166001600160a01b038416179055600280549293509061021883610497565b919050555043816001600160a01b0316336001600160a01b03167f6edda9f990e5d27946a8b10cf2302f72dc57b9ac6205f11c4f8404971e3aef8e8760405161026191906104be565b60405180910390a450505050565b611be2806104d983390190565b60006020828403121561028e57600080fd5b5035919050565b602080825282518282018190526000918401906040840190835b818110156102d65783516001600160a01b03168352602093840193909201916001016102af565b509095945050505050565b634e487b7160e01b600052604160045260246000fd5b600082601f83011261030857600080fd5b813567ffffffffffffffff811115610322576103226102e1565b604051601f8201601f19908116603f0116810167ffffffffffffffff81118282101715610351576103516102e1565b60405281815283820160200185101561036957600080fd5b816020850160208301376000918101602001919091529392505050565b60008060006060848603121561039b57600080fd5b833567ffffffffffffffff8111156103b257600080fd5b6103be868287016102f7565b935050602084013567ffffffffffffffff8111156103db57600080fd5b6103e7868287016102f7565b93969395505050506040919091013590565b6000815180845260005b8181101561041f57602081850181015186830182015201610403565b506000602082860101526020601f19601f83011685010191505092915050565b6001600160a01b038616815260a060208201819052600090610463908301876103f9565b6001600160a01b0386166040840152828103606084015261048481866103f9565b9150508260808301529695505050505050565b6000600182016104b757634e487b7160e01b600052601160045260246000fd5b5060010190565b6020815260006104d160208301846103f9565b939250505056fe61016060405234801561001157600080fd5b50604051611be2380380611be283398101604081905261003091610316565b6040805180820190915260018152603160f81b60208201528490846001600160a01b03811661007a57604051631e4fbdf760e01b8152600060048201526024015b60405180910390fd5b61008381610176565b5061008f8260016101c6565b6101205261009e8160026101c6565b61014052815160208084019190912060e052815190820120610100524660a05261012b60e05161010051604080517f8b73c3c69bb8fe3d512ecc4cf759cc79239f7b179b0ffacaa9a75d522b39400f60208201529081019290925260608201524660808201523060a082015260009060c00160405160208183030381529060405280519060200120905090565b60805250503060c052600380546001600160a01b0319166001600160a01b038716179055600461015b8582610433565b5060056101688382610433565b506006555061054892505050565b600080546001600160a01b038381166001600160a01b0319831681178455604051919092169283917f8be0079c531659141344cd1fd0a4f28419497f9722a3daafe3b4186f6b6457e09190a35050565b60006020835110156101e2576101db836101f9565b90506101f3565b816101ed8482610433565b5060ff90505b92915050565b600080829050601f81511115610224578260405163305a27a960e01b815260040161007191906104f1565b805161022f82610524565b179392505050565b80516001600160a01b038116811461024e57600080fd5b919050565b634e487b7160e01b600052604160045260246000fd5b60005b8381101561028457818101518382015260200161026c565b50506000910152565b600082601f83011261029e57600080fd5b81516001600160401b038111156102b7576102b7610253565b604051601f8201601f19908116603f011681016001600160401b03811182821017156102e5576102e5610253565b6040528181528382016020018510156102fd57600080fd5b61030e826020830160208701610269565b949350505050565b600080600080600060a0868803121561032e57600080fd5b61033786610237565b60208701519095506001600160401b0381111561035357600080fd5b61035f8882890161028d565b94505061036e60408701610237565b60608701519093506001600160401b0381111561038a57600080fd5b6103968882890161028d565b925050608086015190509295509295909350565b600181811c908216806103be57607f821691505b6020821081036103de57634e487b7160e01b600052602260045260246000fd5b50919050565b601f82111561042e57806000526020600020601f840160051c8101602085101561040b5750805b601f840160051c820191505b8181101561042b5760008155600101610417565b50505b505050565b81516001600160401b0381111561044c5761044c610253565b6104608161045a84546103aa565b846103e4565b6020601f821160018114610494576000831561047c5750848201515b600019600385901b1c1916600184901b17845561042b565b600084815260208120601f198516915b828110156104c457878501518255602094850194600190920191016104a4565b50848210156104e25786840151600019600387901b60f8161c191681555b50505050600190811b01905550565b6020815260008251806020840152610510816040850160208701610269565b601f01601f19169190910160400192915050565b805160208083015191908110156103de5760001960209190910360031b1b16919050565b60805160a05160c05160e0516101005161012051610140516116406105a26000396000610c4601526000610c1401526000610e4e01526000610e2601526000610d8101526000610dab01526000610dd501526116406000f3fe6080604052600436106101095760003560e01c806384b0196e11610095578063d52b4d0d11610064578063d52b4d0d14610346578063eac989f814610366578063eec4a5b71461037b578063f2fde38b1461039b578063fc5e54ed146103bb57600080fd5b806384b0196e146102865780638da5cb5b146102ae578063b74097b0146102e0578063c4584ab11461033357600080fd5b806351a5074f116100dc57806351a5074f146101e557806361122321146101fb578063715018a61461021d57806377ca84c8146102325780637d5779be1461026657600080fd5b806306fdde031461010e57806326b3c68b1461013957806336b725401461015d57806343564ee5146101bf575b600080fd5b34801561011a57600080fd5b506101236103d1565b6040516101309190611125565b60405180910390f35b34801561014557600080fd5b5061014f60065481565b604051908152602001610130565b34801561016957600080fd5b5061019f61017836600461115b565b60096020526000908152604090208054600182015460028301546003909301549192909184565b604080519485526020850193909352918301526060820152608001610130565b3480156101cb57600080fd5b506101d461045f565b604051610130959493929190611176565b3480156101f157600080fd5b5061014f60085481565b34801561020757600080fd5b5061021b61021636600461125e565b61059d565b005b34801561022957600080fd5b5061021b6105f5565b34801561023e57600080fd5b5061014f7fd27e0d617618530b38c33fdfb6b0f18274d37f4691af58f6829122cf002eeae881565b34801561027257600080fd5b5061021b61028136600461115b565b610609565b34801561029257600080fd5b5061029b610700565b60405161013097969594939291906112a3565b3480156102ba57600080fd5b506000546001600160a01b03165b6040516001600160a01b039091168152602001610130565b3480156102ec57600080fd5b506103006102fb36600461115b565b610746565b60405161013091908151815260208083015190820152604080830151908201526060918201519181019190915260800190565b61021b610341366004611353565b6107bf565b34801561035257600080fd5b506003546102c8906001600160a01b031681565b34801561037257600080fd5b50610123610abe565b34801561038757600080fd5b5061021b61039636600461115b565b610acb565b3480156103a757600080fd5b5061021b6103b636600461115b565b610b52565b3480156103c757600080fd5b5061014f60075481565b600480546103de9061142d565b80601f016020809104026020016040519081016040528092919081815260200182805461040a9061142d565b80156104575780601f1061042c57610100808354040283529160200191610457565b820191906000526020600020905b81548152906001019060200180831161043a57829003601f168201915b505050505081565b6060806000806000600460056006546007546008548480546104809061142d565b80601f01602080910402602001604051908101604052809291908181526020018280546104ac9061142d565b80156104f95780601f106104ce576101008083540402835291602001916104f9565b820191906000526020600020905b8154815290600101906020018083116104dc57829003601f168201915b5050505050945083805461050c9061142d565b80601f01602080910402602001604051908101604052809291908181526020018280546105389061142d565b80156105855780601f1061055a57610100808354040283529160200191610585565b820191906000526020600020905b81548152906001019060200180831161056857829003601f168201915b50505050509350945094509450945094509091929394565b6105a5610b90565b60056105b183826114b0565b5060068190556040517f595cea80bc1db66c13b3e1aeb38a61ba4bf1bf4041ffc0bce02feddfa255eb72906105e9908490849061156f565b60405180910390a15050565b6105fd610b90565b6106076000610bbd565b565b610611610b90565b6001600160a01b038116600090815260096020526040902060010154600a11156106a85760405162461bcd60e51b815260206004820152603f60248201527f4a616e69746f7273207769746820696e737566696369656e74206e656761746960448201527f766520666565646261636b2077696c6c206e6f742062652072656d6f7665640060648201526084015b60405180910390fd5b6001600160a01b0381166000818152600960205260408082208281556001810183905560028101839055600301829055517f63d5a0113e1b12984791a24ad2df3d97e99840b68b4dec6d2adc790689bcb8959190a250565b600060608060008060006060610714610c0d565b61071c610c3f565b60408051600080825260208201909252600f60f81b9b939a50919850469750309650945092509050565b6107716040518060800160405280600081526020016000815260200160008152602001600081525090565b506001600160a01b0316600090815260096020908152604091829020825160808101845281548152600182015492810192909252600281015492820192909252600390910154606082015290565b6001600160a01b0386166000908152600960205260408120600281015490910361082b5760405162461bcd60e51b815260206004820152601a60248201527f4a616e69746f72206861736e2774207374617274656420796574000000000000604482015260640161069f565b604080517fd27e0d617618530b38c33fdfb6b0f18274d37f4691af58f6829122cf002eeae8602082810191909152843582840152840135606082810191909152918401356080828101919091529184013560a08201529083013560c08201526000906108af9060e00160405160208183030381529060405280519060200120610c6c565b905060006108f586868080601f0160208091040260200160405190810160405280939291908181526020018383808284376000920191909152508693925050610c9f9050565b9050886001600160a01b0316816001600160a01b0316146109585760405162461bcd60e51b815260206004820152601860248201527f7369676e6572206a616e69746f72206d6973206d617463680000000000000000604482015260640161069f565b871561098b57825483600061096c836115a7565b909155505060078054906000610981836115a7565b91905055506109b8565b60018301805490600061099d836115a7565b9091555050600880549060006109b2836115a7565b91905055505b348360030160008282546109cc91906115c0565b90915550506040516000906001600160a01b038b169034908381818185875af1925050503d8060008114610a1c576040519150601f19603f3d011682016040523d82523d6000602084013e610a21565b606091505b5050905080610a675760405162461bcd60e51b815260206004820152601260248201527108cc2d2d8cac840e8de40e6cadcc8408aa8960731b604482015260640161069f565b88151585606001358b6001600160a01b03167fc672afc0519b502fbb878fca0e6744b9bee5b6d2d2ba68714acd20a05f92c87a348c604051610aaa9291906115d3565b60405180910390a450505050505050505050565b600580546103de9061142d565b610ad3610b90565b604080516080810182526000808252602080830182815243848601908152606085018481526001600160a01b0388168086526009909452868520955186559151600186015551600285015551600390930192909255915190917f2bc1d8d2d115e2d66e35a5c4f909caff0d23eca30f4c7ef33a0a0dd0b612865791a250565b610b5a610b90565b6001600160a01b038116610b8457604051631e4fbdf760e01b81526000600482015260240161069f565b610b8d81610bbd565b50565b6000546001600160a01b031633146106075760405163118cdaa760e01b815233600482015260240161069f565b600080546001600160a01b038381166001600160a01b0319831681178455604051919092169283917f8be0079c531659141344cd1fd0a4f28419497f9722a3daafe3b4186f6b6457e09190a35050565b6060610c3a7f00000000000000000000000000000000000000000000000000000000000000006001610cc9565b905090565b6060610c3a7f00000000000000000000000000000000000000000000000000000000000000006002610cc9565b6000610c99610c79610d74565b8360405161190160f01b8152600281019290925260228201526042902090565b92915050565b600080600080610caf8686610e9f565b925092509250610cbf8282610eec565b5090949350505050565b606060ff8314610ce357610cdc83610fa9565b9050610c99565b818054610cef9061142d565b80601f0160208091040260200160405190810160405280929190818152602001828054610d1b9061142d565b8015610d685780601f10610d3d57610100808354040283529160200191610d68565b820191906000526020600020905b815481529060010190602001808311610d4b57829003601f168201915b50505050509050610c99565b6000306001600160a01b037f000000000000000000000000000000000000000000000000000000000000000016148015610dcd57507f000000000000000000000000000000000000000000000000000000000000000046145b15610df757507f000000000000000000000000000000000000000000000000000000000000000090565b610c3a604080517f8b73c3c69bb8fe3d512ecc4cf759cc79239f7b179b0ffacaa9a75d522b39400f60208201527f0000000000000000000000000000000000000000000000000000000000000000918101919091527f000000000000000000000000000000000000000000000000000000000000000060608201524660808201523060a082015260009060c00160405160208183030381529060405280519060200120905090565b60008060008351604103610ed95760208401516040850151606086015160001a610ecb88828585610fe8565b955095509550505050610ee5565b50508151600091506002905b9250925092565b6000826003811115610f0057610f006115f4565b03610f09575050565b6001826003811115610f1d57610f1d6115f4565b03610f3b5760405163f645eedf60e01b815260040160405180910390fd5b6002826003811115610f4f57610f4f6115f4565b03610f705760405163fce698f760e01b81526004810182905260240161069f565b6003826003811115610f8457610f846115f4565b03610fa5576040516335e2f38360e21b81526004810182905260240161069f565b5050565b60606000610fb6836110b7565b604080516020808252818301909252919250600091906020820181803683375050509182525060208101929092525090565b600080807f7fffffffffffffffffffffffffffffff5d576e7357a4501ddfe92f46681b20a084111561102357506000915060039050826110ad565b604080516000808252602082018084528a905260ff891692820192909252606081018790526080810186905260019060a0016020604051602081039080840390855afa158015611077573d6000803e3d6000fd5b5050604051601f1901519150506001600160a01b0381166110a3575060009250600191508290506110ad565b9250600091508190505b9450945094915050565b600060ff8216601f811115610c9957604051632cd44ac360e21b815260040160405180910390fd5b6000815180845260005b81811015611105576020818501810151868301820152016110e9565b506000602082860101526020601f19601f83011685010191505092915050565b60208152600061113860208301846110df565b9392505050565b80356001600160a01b038116811461115657600080fd5b919050565b60006020828403121561116d57600080fd5b6111388261113f565b60a08152600061118960a08301886110df565b828103602084015261119b81886110df565b60408401969096525050606081019290925260809091015292915050565b634e487b7160e01b600052604160045260246000fd5b600082601f8301126111e057600080fd5b813567ffffffffffffffff8111156111fa576111fa6111b9565b604051601f8201601f19908116603f0116810167ffffffffffffffff81118282101715611229576112296111b9565b60405281815283820160200185101561124157600080fd5b816020850160208301376000918101602001919091529392505050565b6000806040838503121561127157600080fd5b823567ffffffffffffffff81111561128857600080fd5b611294858286016111cf565b95602094909401359450505050565b60ff60f81b8816815260e0602082015260006112c260e08301896110df565b82810360408401526112d481896110df565b606084018890526001600160a01b038716608085015260a0840186905283810360c08501528451808252602080870193509091019060005b8181101561132a57835183526020938401939092019160010161130c565b50909b9a5050505050505050505050565b600060a0828403121561134d57600080fd5b50919050565b600080600080600080610120878903121561136d57600080fd5b6113768761113f565b95506020870135801515811461138b57600080fd5b9450604087013567ffffffffffffffff8111156113a757600080fd5b6113b389828a016111cf565b945050606087013567ffffffffffffffff8111156113d057600080fd5b8701601f810189136113e157600080fd5b803567ffffffffffffffff8111156113f857600080fd5b89602082840101111561140a57600080fd5b60209190910193509150611421886080890161133b565b90509295509295509295565b600181811c9082168061144157607f821691505b60208210810361134d57634e487b7160e01b600052602260045260246000fd5b601f8211156114ab57806000526020600020601f840160051c810160208510156114885750805b601f840160051c820191505b818110156114a85760008155600101611494565b50505b505050565b815167ffffffffffffffff8111156114ca576114ca6111b9565b6114de816114d8845461142d565b84611461565b6020601f82116001811461151257600083156114fa5750848201515b600019600385901b1c1916600184901b1784556114a8565b600084815260208120601f198516915b828110156115425787850151825560209485019460019092019101611522565b50848210156115605786840151600019600387901b60f8161c191681555b50505050600190811b01905550565b60408152600061158260408301856110df565b90508260208301529392505050565b634e487b7160e01b600052601160045260246000fd5b6000600182016115b9576115b9611591565b5060010190565b80820180821115610c9957610c99611591565b8281526040602082015260006115ec60408301846110df565b949350505050565b634e487b7160e01b600052602160045260246000fdfea2646970667358221220231172f2b13e580716b6c245dbcd4fc5e00591176a2b2b4236601695145e177a64736f6c634300081c0033a2646970667358221220255cad7634bd48e5a28b7694aa909fc84a1a20b4a41af50587efe3e37f3e603364736f6c634300081c0033",
  "linkReferences": {},
  "deployedLinkReferences": {}
}