{
  "contracts/HashChan2.sol": {
    "HashChan2": {
      "abi": [
        {
          "inputs": [],
          "stateMutability": "nonpayable",
          "type": "constructor"
        },
        {
          "anonymous": false,
          "inputs": [
            {
              "indexed": true,
              "internalType": "uint256",
              "name": "id",
              "type": "uint256"
            },
            {
              "indexed": true,
              "internalType": "string",
              "name": "name",
              "type": "string"
            },
            {
              "indexed": true,
              "internalType": "string",
              "name": "symbol",
              "type": "string"
            }
          ],
          "name": "NewBoard",
          "type": "event"
        },
        {
          "anonymous": false,
          "inputs": [
            {
              "indexed": true,
              "internalType": "uint256",
              "name": "board",
              "type": "uint256"
            },
            {
              "indexed": true,
              "internalType": "bytes32",
              "name": "threadId",
              "type": "bytes32"
            },
            {
              "indexed": true,
              "internalType": "bytes32",
              "name": "id",
              "type": "bytes32"
            },
            {
              "indexed": false,
              "internalType": "address",
              "name": "creator",
              "type": "address"
            },
            {
              "indexed": false,
              "internalType": "bytes32[]",
              "name": "replyIds",
              "type": "bytes32[]"
            },
            {
              "indexed": false,
              "internalType": "string",
              "name": "imgUrl",
              "type": "string"
            },
            {
              "indexed": false,
              "internalType": "string",
              "name": "content",
              "type": "string"
            },
            {
              "indexed": false,
              "internalType": "uint256",
              "name": "timestamp",
              "type": "uint256"
            }
          ],
          "name": "NewPost",
          "type": "event"
        },
        {
          "anonymous": false,
          "inputs": [
            {
              "indexed": true,
              "internalType": "uint256",
              "name": "board",
              "type": "uint256"
            },
            {
              "indexed": true,
              "internalType": "address",
              "name": "creator",
              "type": "address"
            },
            {
              "indexed": true,
              "internalType": "bytes32",
              "name": "id",
              "type": "bytes32"
            },
            {
              "indexed": false,
              "internalType": "string",
              "name": "imgUrl",
              "type": "string"
            },
            {
              "indexed": false,
              "internalType": "string",
              "name": "title",
              "type": "string"
            },
            {
              "indexed": false,
              "internalType": "string",
              "name": "content",
              "type": "string"
            },
            {
              "indexed": false,
              "internalType": "uint256",
              "name": "timestamp",
              "type": "uint256"
            }
          ],
          "name": "NewThread",
          "type": "event"
        },
        {
          "inputs": [],
          "name": "boardCount",
          "outputs": [
            {
              "internalType": "uint256",
              "name": "",
              "type": "uint256"
            }
          ],
          "stateMutability": "view",
          "type": "function"
        },
        {
          "inputs": [
            {
              "internalType": "uint256",
              "name": "",
              "type": "uint256"
            }
          ],
          "name": "boards",
          "outputs": [
            {
              "internalType": "string",
              "name": "name",
              "type": "string"
            },
            {
              "internalType": "string",
              "name": "symbol",
              "type": "string"
            }
          ],
          "stateMutability": "view",
          "type": "function"
        },
        {
          "inputs": [
            {
              "internalType": "string",
              "name": "name",
              "type": "string"
            },
            {
              "internalType": "string",
              "name": "symbol",
              "type": "string"
            }
          ],
          "name": "createBoard",
          "outputs": [
            {
              "internalType": "uint256",
              "name": "",
              "type": "uint256"
            }
          ],
          "stateMutability": "nonpayable",
          "type": "function"
        },
        {
          "inputs": [
            {
              "internalType": "uint256",
              "name": "board",
              "type": "uint256"
            },
            {
              "internalType": "bytes32",
              "name": "threadId",
              "type": "bytes32"
            },
            {
              "internalType": "bytes32[]",
              "name": "replyIds",
              "type": "bytes32[]"
            },
            {
              "internalType": "string",
              "name": "imgUrl",
              "type": "string"
            },
            {
              "internalType": "string",
              "name": "content",
              "type": "string"
            }
          ],
          "name": "createPost",
          "outputs": [
            {
              "internalType": "bytes32",
              "name": "id",
              "type": "bytes32"
            }
          ],
          "stateMutability": "nonpayable",
          "type": "function"
        },
        {
          "inputs": [
            {
              "internalType": "uint256",
              "name": "board",
              "type": "uint256"
            },
            {
              "internalType": "string",
              "name": "title",
              "type": "string"
            },
            {
              "internalType": "string",
              "name": "url",
              "type": "string"
            },
            {
              "internalType": "string",
              "name": "content",
              "type": "string"
            }
          ],
          "name": "createThread",
          "outputs": [
            {
              "internalType": "bytes32",
              "name": "threadId",
              "type": "bytes32"
            }
          ],
          "stateMutability": "nonpayable",
          "type": "function"
        }
      ],
      "evm": {
        "bytecode": {
          "linkReferences": {},
          "object": "608060405234801561001057600080fd5b5061008b6040518060400160405280601581526020017f506f6c69746963616c6c7920496e636f727265637400000000000000000000008152506040518060400160405280600381526020017f706f6c00000000000000000000000000000000000000000000000000000000008152506102f860201b60201c565b506101066040518060400160405280601281526020017f427573696e65737320262046696e616e636500000000000000000000000000008152506040518060400160405280600381526020017f62697a00000000000000000000000000000000000000000000000000000000008152506102f860201b60201c565b506101816040518060400160405280600a81526020017f546563686e6f6c6f6779000000000000000000000000000000000000000000008152506040518060400160405280600181526020017f67000000000000000000000000000000000000000000000000000000000000008152506102f860201b60201c565b506101fc6040518060400160405280600e81526020017f536369656e63652026204d6174680000000000000000000000000000000000008152506040518060400160405280600381526020017f73636900000000000000000000000000000000000000000000000000000000008152506102f860201b60201c565b506102776040518060400160405280600681526020017f4672696e676500000000000000000000000000000000000000000000000000008152506040518060400160405280600181526020017f78000000000000000000000000000000000000000000000000000000000000008152506102f860201b60201c565b506102f26040518060400160405280600481526020017f4d616964000000000000000000000000000000000000000000000000000000008152506040518060400160405280600481526020017f6d616964000000000000000000000000000000000000000000000000000000008152506102f860201b60201c565b50610825565b600060405180604001604052808481526020018381525060016000805481526020019081526020016000206000820151816000019081610338919061062b565b50602082015181600101908161034e919061062b565b509050506000808154809291906103649061072c565b91905055508160405161037791906107da565b60405180910390208360405161038d91906107da565b604051809103902060016000546103a491906107f1565b7ff9318b0120271de03b8ce2df17779ba0fbec694e74567d0d97c12bf84f442aba60405160405180910390a4600054905092915050565b600081519050919050565b7f4e487b7100000000000000000000000000000000000000000000000000000000600052604160045260246000fd5b7f4e487b7100000000000000000000000000000000000000000000000000000000600052602260045260246000fd5b6000600282049050600182168061045c57607f821691505b60208210810361046f5761046e610415565b5b50919050565b60008190508160005260206000209050919050565b60006020601f8301049050919050565b600082821b905092915050565b6000600883026104d77fffffffffffffffffffffffffffffffffffffffffffffffffffffffffffffffff8261049a565b6104e1868361049a565b95508019841693508086168417925050509392505050565b6000819050919050565b6000819050919050565b600061052861052361051e846104f9565b610503565b6104f9565b9050919050565b6000819050919050565b6105428361050d565b61055661054e8261052f565b8484546104a7565b825550505050565b600090565b61056b61055e565b610576818484610539565b505050565b5b8181101561059a5761058f600082610563565b60018101905061057c565b5050565b601f8211156105df576105b081610475565b6105b98461048a565b810160208510156105c8578190505b6105dc6105d48561048a565b83018261057b565b50505b505050565b600082821c905092915050565b6000610602600019846008026105e4565b1980831691505092915050565b600061061b83836105f1565b9150826002028217905092915050565b610634826103db565b67ffffffffffffffff81111561064d5761064c6103e6565b5b6106578254610444565b61066282828561059e565b600060209050601f8311600181146106955760008415610683578287015190505b61068d858261060f565b8655506106f5565b601f1984166106a386610475565b60005b828110156106cb578489015182556001820191506020850194506020810190506106a6565b868310156106e857848901516106e4601f8916826105f1565b8355505b6001600288020188555050505b505050505050565b7f4e487b7100000000000000000000000000000000000000000000000000000000600052601160045260246000fd5b6000610737826104f9565b91507fffffffffffffffffffffffffffffffffffffffffffffffffffffffffffffffff8203610769576107686106fd565b5b600182019050919050565b600081905092915050565b60005b8381101561079d578082015181840152602081019050610782565b60008484015250505050565b60006107b4826103db565b6107be8185610774565b93506107ce81856020860161077f565b80840191505092915050565b60006107e682846107a9565b915081905092915050565b60006107fc826104f9565b9150610807836104f9565b925082820390508181111561081f5761081e6106fd565b5b92915050565b61107e806108346000396000f3fe608060405234801561001057600080fd5b50600436106100575760003560e01c80630e029fe91461005c57806390b1de261461008c5780639a7083f9146100aa578063d7bc7b85146100db578063ea9da3701461010b575b600080fd5b610076600480360381019061007191906105bb565b61013b565b604051610083919061064c565b60405180910390f35b61009461021e565b6040516100a1919061064c565b60405180910390f35b6100c460048036038101906100bf9190610693565b610224565b6040516100d292919061073f565b60405180910390f35b6100f560048036038101906100f09190610776565b610358565b604051610102919061084a565b60405180910390f35b61012560048036038101906101209190610959565b6103e7565b604051610132919061084a565b60405180910390f35b60006040518060400160405280848152602001838152506001600080548152602001908152602001600020600082015181600001908161017b9190610c34565b5060208201518160010190816101919190610c34565b509050506000808154809291906101a790610d35565b9190505550816040516101ba9190610db9565b6040518091039020836040516101d09190610db9565b604051809103902060016000546101e79190610dd0565b7ff9318b0120271de03b8ce2df17779ba0fbec694e74567d0d97c12bf84f442aba60405160405180910390a4600054905092915050565b60005481565b600160205280600052604060002060009150905080600001805461024790610a57565b80601f016020809104026020016040519081016040528092919081815260200182805461027390610a57565b80156102c05780601f10610295576101008083540402835291602001916102c0565b820191906000526020600020905b8154815290600101906020018083116102a357829003601f168201915b5050505050908060010180546102d590610a57565b80601f016020809104026020016040519081016040528092919081815260200182805461030190610a57565b801561034e5780601f106103235761010080835404028352916020019161034e565b820191906000526020600020905b81548152906001019060200180831161033157829003601f168201915b5050505050905082565b6000848433426040516020016103719493929190610e45565b604051602081830303815290604052805190602001209050803373ffffffffffffffffffffffffffffffffffffffff16867fb17d133f2f381c245d9ca846761d2da89f5f2175caf7f89d311d44765878eeef868887426040516103d79493929190610e91565b60405180910390a4949350505050565b60003342866040516020016103fe93929190610eeb565b6040516020818303038152906040528051906020012090508085877fea62080f8d7f4d4c1a82256330bb551739d4b073762762281b9193826c00939d3388888842604051610450959493929190610fe0565b60405180910390a495945050505050565b6000604051905090565b600080fd5b600080fd5b600080fd5b600080fd5b6000601f19601f8301169050919050565b7f4e487b7100000000000000000000000000000000000000000000000000000000600052604160045260246000fd5b6104c88261047f565b810181811067ffffffffffffffff821117156104e7576104e6610490565b5b80604052505050565b60006104fa610461565b905061050682826104bf565b919050565b600067ffffffffffffffff82111561052657610525610490565b5b61052f8261047f565b9050602081019050919050565b82818337600083830152505050565b600061055e6105598461050b565b6104f0565b90508281526020810184848401111561057a5761057961047a565b5b61058584828561053c565b509392505050565b600082601f8301126105a2576105a1610475565b5b81356105b284826020860161054b565b91505092915050565b600080604083850312156105d2576105d161046b565b5b600083013567ffffffffffffffff8111156105f0576105ef610470565b5b6105fc8582860161058d565b925050602083013567ffffffffffffffff81111561061d5761061c610470565b5b6106298582860161058d565b9150509250929050565b6000819050919050565b61064681610633565b82525050565b6000602082019050610661600083018461063d565b92915050565b61067081610633565b811461067b57600080fd5b50565b60008135905061068d81610667565b92915050565b6000602082840312156106a9576106a861046b565b5b60006106b78482850161067e565b91505092915050565b600081519050919050565b600082825260208201905092915050565b60005b838110156106fa5780820151818401526020810190506106df565b60008484015250505050565b6000610711826106c0565b61071b81856106cb565b935061072b8185602086016106dc565b6107348161047f565b840191505092915050565b600060408201905081810360008301526107598185610706565b9050818103602083015261076d8184610706565b90509392505050565b600080600080608085870312156107905761078f61046b565b5b600061079e8782880161067e565b945050602085013567ffffffffffffffff8111156107bf576107be610470565b5b6107cb8782880161058d565b935050604085013567ffffffffffffffff8111156107ec576107eb610470565b5b6107f88782880161058d565b925050606085013567ffffffffffffffff81111561081957610818610470565b5b6108258782880161058d565b91505092959194509250565b6000819050919050565b61084481610831565b82525050565b600060208201905061085f600083018461083b565b92915050565b61086e81610831565b811461087957600080fd5b50565b60008135905061088b81610865565b92915050565b600067ffffffffffffffff8211156108ac576108ab610490565b5b602082029050602081019050919050565b600080fd5b60006108d56108d084610891565b6104f0565b905080838252602082019050602084028301858111156108f8576108f76108bd565b5b835b81811015610921578061090d888261087c565b8452602084019350506020810190506108fa565b5050509392505050565b600082601f8301126109405761093f610475565b5b81356109508482602086016108c2565b91505092915050565b600080600080600060a086880312156109755761097461046b565b5b60006109838882890161067e565b95505060206109948882890161087c565b945050604086013567ffffffffffffffff8111156109b5576109b4610470565b5b6109c18882890161092b565b935050606086013567ffffffffffffffff8111156109e2576109e1610470565b5b6109ee8882890161058d565b925050608086013567ffffffffffffffff811115610a0f57610a0e610470565b5b610a1b8882890161058d565b9150509295509295909350565b7f4e487b7100000000000000000000000000000000000000000000000000000000600052602260045260246000fd5b60006002820490506001821680610a6f57607f821691505b602082108103610a8257610a81610a28565b5b50919050565b60008190508160005260206000209050919050565b60006020601f8301049050919050565b600082821b905092915050565b600060088302610aea7fffffffffffffffffffffffffffffffffffffffffffffffffffffffffffffffff82610aad565b610af48683610aad565b95508019841693508086168417925050509392505050565b6000819050919050565b6000610b31610b2c610b2784610633565b610b0c565b610633565b9050919050565b6000819050919050565b610b4b83610b16565b610b5f610b5782610b38565b848454610aba565b825550505050565b600090565b610b74610b67565b610b7f818484610b42565b505050565b5b81811015610ba357610b98600082610b6c565b600181019050610b85565b5050565b601f821115610be857610bb981610a88565b610bc284610a9d565b81016020851015610bd1578190505b610be5610bdd85610a9d565b830182610b84565b50505b505050565b600082821c905092915050565b6000610c0b60001984600802610bed565b1980831691505092915050565b6000610c248383610bfa565b9150826002028217905092915050565b610c3d826106c0565b67ffffffffffffffff811115610c5657610c55610490565b5b610c608254610a57565b610c6b828285610ba7565b600060209050601f831160018114610c9e5760008415610c8c578287015190505b610c968582610c18565b865550610cfe565b601f198416610cac86610a88565b60005b82811015610cd457848901518255600182019150602085019450602081019050610caf565b86831015610cf15784890151610ced601f891682610bfa565b8355505b6001600288020188555050505b505050505050565b7f4e487b7100000000000000000000000000000000000000000000000000000000600052601160045260246000fd5b6000610d4082610633565b91507fffffffffffffffffffffffffffffffffffffffffffffffffffffffffffffffff8203610d7257610d71610d06565b5b600182019050919050565b600081905092915050565b6000610d93826106c0565b610d9d8185610d7d565b9350610dad8185602086016106dc565b80840191505092915050565b6000610dc58284610d88565b915081905092915050565b6000610ddb82610633565b9150610de683610633565b9250828203905081811115610dfe57610dfd610d06565b5b92915050565b600073ffffffffffffffffffffffffffffffffffffffff82169050919050565b6000610e2f82610e04565b9050919050565b610e3f81610e24565b82525050565b6000608082019050610e5a600083018761063d565b8181036020830152610e6c8186610706565b9050610e7b6040830185610e36565b610e88606083018461063d565b95945050505050565b60006080820190508181036000830152610eab8187610706565b90508181036020830152610ebf8186610706565b90508181036040830152610ed38185610706565b9050610ee2606083018461063d565b95945050505050565b6000606082019050610f006000830186610e36565b610f0d602083018561063d565b610f1a604083018461083b565b949350505050565b600081519050919050565b600082825260208201905092915050565b6000819050602082019050919050565b610f5781610831565b82525050565b6000610f698383610f4e565b60208301905092915050565b6000602082019050919050565b6000610f8d82610f22565b610f978185610f2d565b9350610fa283610f3e565b8060005b83811015610fd3578151610fba8882610f5d565b9750610fc583610f75565b925050600181019050610fa6565b5085935050505092915050565b600060a082019050610ff56000830188610e36565b81810360208301526110078187610f82565b9050818103604083015261101b8186610706565b9050818103606083015261102f8185610706565b905061103e608083018461063d565b969550505050505056fea2646970667358221220f4cab099cc572db746cd7124ab99f53aec66f592ea8c22d345dd09dceaebdc7a64736f6c634300081a0033",
          "opcodes": "PUSH1 0x80 PUSH1 0x40 MSTORE CALLVALUE DUP1 ISZERO PUSH2 0x10 JUMPI PUSH1 0x0 DUP1 REVERT JUMPDEST POP PUSH2 0x8B PUSH1 0x40 MLOAD DUP1 PUSH1 0x40 ADD PUSH1 0x40 MSTORE DUP1 PUSH1 0x15 DUP2 MSTORE PUSH1 0x20 ADD PUSH32 0x506F6C69746963616C6C7920496E636F72726563740000000000000000000000 DUP2 MSTORE POP PUSH1 0x40 MLOAD DUP1 PUSH1 0x40 ADD PUSH1 0x40 MSTORE DUP1 PUSH1 0x3 DUP2 MSTORE PUSH1 0x20 ADD PUSH32 0x706F6C0000000000000000000000000000000000000000000000000000000000 DUP2 MSTORE POP PUSH2 0x2F8 PUSH1 0x20 SHL PUSH1 0x20 SHR JUMP JUMPDEST POP PUSH2 0x106 PUSH1 0x40 MLOAD DUP1 PUSH1 0x40 ADD PUSH1 0x40 MSTORE DUP1 PUSH1 0x12 DUP2 MSTORE PUSH1 0x20 ADD PUSH32 0x427573696E65737320262046696E616E63650000000000000000000000000000 DUP2 MSTORE POP PUSH1 0x40 MLOAD DUP1 PUSH1 0x40 ADD PUSH1 0x40 MSTORE DUP1 PUSH1 0x3 DUP2 MSTORE PUSH1 0x20 ADD PUSH32 0x62697A0000000000000000000000000000000000000000000000000000000000 DUP2 MSTORE POP PUSH2 0x2F8 PUSH1 0x20 SHL PUSH1 0x20 SHR JUMP JUMPDEST POP PUSH2 0x181 PUSH1 0x40 MLOAD DUP1 PUSH1 0x40 ADD PUSH1 0x40 MSTORE DUP1 PUSH1 0xA DUP2 MSTORE PUSH1 0x20 ADD PUSH32 0x546563686E6F6C6F677900000000000000000000000000000000000000000000 DUP2 MSTORE POP PUSH1 0x40 MLOAD DUP1 PUSH1 0x40 ADD PUSH1 0x40 MSTORE DUP1 PUSH1 0x1 DUP2 MSTORE PUSH1 0x20 ADD PUSH32 0x6700000000000000000000000000000000000000000000000000000000000000 DUP2 MSTORE POP PUSH2 0x2F8 PUSH1 0x20 SHL PUSH1 0x20 SHR JUMP JUMPDEST POP PUSH2 0x1FC PUSH1 0x40 MLOAD DUP1 PUSH1 0x40 ADD PUSH1 0x40 MSTORE DUP1 PUSH1 0xE DUP2 MSTORE PUSH1 0x20 ADD PUSH32 0x536369656E63652026204D617468000000000000000000000000000000000000 DUP2 MSTORE POP PUSH1 0x40 MLOAD DUP1 PUSH1 0x40 ADD PUSH1 0x40 MSTORE DUP1 PUSH1 0x3 DUP2 MSTORE PUSH1 0x20 ADD PUSH32 0x7363690000000000000000000000000000000000000000000000000000000000 DUP2 MSTORE POP PUSH2 0x2F8 PUSH1 0x20 SHL PUSH1 0x20 SHR JUMP JUMPDEST POP PUSH2 0x277 PUSH1 0x40 MLOAD DUP1 PUSH1 0x40 ADD PUSH1 0x40 MSTORE DUP1 PUSH1 0x6 DUP2 MSTORE PUSH1 0x20 ADD PUSH32 0x4672696E67650000000000000000000000000000000000000000000000000000 DUP2 MSTORE POP PUSH1 0x40 MLOAD DUP1 PUSH1 0x40 ADD PUSH1 0x40 MSTORE DUP1 PUSH1 0x1 DUP2 MSTORE PUSH1 0x20 ADD PUSH32 0x7800000000000000000000000000000000000000000000000000000000000000 DUP2 MSTORE POP PUSH2 0x2F8 PUSH1 0x20 SHL PUSH1 0x20 SHR JUMP JUMPDEST POP PUSH2 0x2F2 PUSH1 0x40 MLOAD DUP1 PUSH1 0x40 ADD PUSH1 0x40 MSTORE DUP1 PUSH1 0x4 DUP2 MSTORE PUSH1 0x20 ADD PUSH32 0x4D61696400000000000000000000000000000000000000000000000000000000 DUP2 MSTORE POP PUSH1 0x40 MLOAD DUP1 PUSH1 0x40 ADD PUSH1 0x40 MSTORE DUP1 PUSH1 0x4 DUP2 MSTORE PUSH1 0x20 ADD PUSH32 0x6D61696400000000000000000000000000000000000000000000000000000000 DUP2 MSTORE POP PUSH2 0x2F8 PUSH1 0x20 SHL PUSH1 0x20 SHR JUMP JUMPDEST POP PUSH2 0x825 JUMP JUMPDEST PUSH1 0x0 PUSH1 0x40 MLOAD DUP1 PUSH1 0x40 ADD PUSH1 0x40 MSTORE DUP1 DUP5 DUP2 MSTORE PUSH1 0x20 ADD DUP4 DUP2 MSTORE POP PUSH1 0x1 PUSH1 0x0 DUP1 SLOAD DUP2 MSTORE PUSH1 0x20 ADD SWAP1 DUP2 MSTORE PUSH1 0x20 ADD PUSH1 0x0 KECCAK256 PUSH1 0x0 DUP3 ADD MLOAD DUP2 PUSH1 0x0 ADD SWAP1 DUP2 PUSH2 0x338 SWAP2 SWAP1 PUSH2 0x62B JUMP JUMPDEST POP PUSH1 0x20 DUP3 ADD MLOAD DUP2 PUSH1 0x1 ADD SWAP1 DUP2 PUSH2 0x34E SWAP2 SWAP1 PUSH2 0x62B JUMP JUMPDEST POP SWAP1 POP POP PUSH1 0x0 DUP1 DUP2 SLOAD DUP1 SWAP3 SWAP2 SWAP1 PUSH2 0x364 SWAP1 PUSH2 0x72C JUMP JUMPDEST SWAP2 SWAP1 POP SSTORE POP DUP2 PUSH1 0x40 MLOAD PUSH2 0x377 SWAP2 SWAP1 PUSH2 0x7DA JUMP JUMPDEST PUSH1 0x40 MLOAD DUP1 SWAP2 SUB SWAP1 KECCAK256 DUP4 PUSH1 0x40 MLOAD PUSH2 0x38D SWAP2 SWAP1 PUSH2 0x7DA JUMP JUMPDEST PUSH1 0x40 MLOAD DUP1 SWAP2 SUB SWAP1 KECCAK256 PUSH1 0x1 PUSH1 0x0 SLOAD PUSH2 0x3A4 SWAP2 SWAP1 PUSH2 0x7F1 JUMP JUMPDEST PUSH32 0xF9318B0120271DE03B8CE2DF17779BA0FBEC694E74567D0D97C12BF84F442ABA PUSH1 0x40 MLOAD PUSH1 0x40 MLOAD DUP1 SWAP2 SUB SWAP1 LOG4 PUSH1 0x0 SLOAD SWAP1 POP SWAP3 SWAP2 POP POP JUMP JUMPDEST PUSH1 0x0 DUP2 MLOAD SWAP1 POP SWAP2 SWAP1 POP JUMP JUMPDEST PUSH32 0x4E487B7100000000000000000000000000000000000000000000000000000000 PUSH1 0x0 MSTORE PUSH1 0x41 PUSH1 0x4 MSTORE PUSH1 0x24 PUSH1 0x0 REVERT JUMPDEST PUSH32 0x4E487B7100000000000000000000000000000000000000000000000000000000 PUSH1 0x0 MSTORE PUSH1 0x22 PUSH1 0x4 MSTORE PUSH1 0x24 PUSH1 0x0 REVERT JUMPDEST PUSH1 0x0 PUSH1 0x2 DUP3 DIV SWAP1 POP PUSH1 0x1 DUP3 AND DUP1 PUSH2 0x45C JUMPI PUSH1 0x7F DUP3 AND SWAP2 POP JUMPDEST PUSH1 0x20 DUP3 LT DUP2 SUB PUSH2 0x46F JUMPI PUSH2 0x46E PUSH2 0x415 JUMP JUMPDEST JUMPDEST POP SWAP2 SWAP1 POP JUMP JUMPDEST PUSH1 0x0 DUP2 SWAP1 POP DUP2 PUSH1 0x0 MSTORE PUSH1 0x20 PUSH1 0x0 KECCAK256 SWAP1 POP SWAP2 SWAP1 POP JUMP JUMPDEST PUSH1 0x0 PUSH1 0x20 PUSH1 0x1F DUP4 ADD DIV SWAP1 POP SWAP2 SWAP1 POP JUMP JUMPDEST PUSH1 0x0 DUP3 DUP3 SHL SWAP1 POP SWAP3 SWAP2 POP POP JUMP JUMPDEST PUSH1 0x0 PUSH1 0x8 DUP4 MUL PUSH2 0x4D7 PUSH32 0xFFFFFFFFFFFFFFFFFFFFFFFFFFFFFFFFFFFFFFFFFFFFFFFFFFFFFFFFFFFFFFFF DUP3 PUSH2 0x49A JUMP JUMPDEST PUSH2 0x4E1 DUP7 DUP4 PUSH2 0x49A JUMP JUMPDEST SWAP6 POP DUP1 NOT DUP5 AND SWAP4 POP DUP1 DUP7 AND DUP5 OR SWAP3 POP POP POP SWAP4 SWAP3 POP POP POP JUMP JUMPDEST PUSH1 0x0 DUP2 SWAP1 POP SWAP2 SWAP1 POP JUMP JUMPDEST PUSH1 0x0 DUP2 SWAP1 POP SWAP2 SWAP1 POP JUMP JUMPDEST PUSH1 0x0 PUSH2 0x528 PUSH2 0x523 PUSH2 0x51E DUP5 PUSH2 0x4F9 JUMP JUMPDEST PUSH2 0x503 JUMP JUMPDEST PUSH2 0x4F9 JUMP JUMPDEST SWAP1 POP SWAP2 SWAP1 POP JUMP JUMPDEST PUSH1 0x0 DUP2 SWAP1 POP SWAP2 SWAP1 POP JUMP JUMPDEST PUSH2 0x542 DUP4 PUSH2 0x50D JUMP JUMPDEST PUSH2 0x556 PUSH2 0x54E DUP3 PUSH2 0x52F JUMP JUMPDEST DUP5 DUP5 SLOAD PUSH2 0x4A7 JUMP JUMPDEST DUP3 SSTORE POP POP POP POP JUMP JUMPDEST PUSH1 0x0 SWAP1 JUMP JUMPDEST PUSH2 0x56B PUSH2 0x55E JUMP JUMPDEST PUSH2 0x576 DUP2 DUP5 DUP5 PUSH2 0x539 JUMP JUMPDEST POP POP POP JUMP JUMPDEST JUMPDEST DUP2 DUP2 LT ISZERO PUSH2 0x59A JUMPI PUSH2 0x58F PUSH1 0x0 DUP3 PUSH2 0x563 JUMP JUMPDEST PUSH1 0x1 DUP2 ADD SWAP1 POP PUSH2 0x57C JUMP JUMPDEST POP POP JUMP JUMPDEST PUSH1 0x1F DUP3 GT ISZERO PUSH2 0x5DF JUMPI PUSH2 0x5B0 DUP2 PUSH2 0x475 JUMP JUMPDEST PUSH2 0x5B9 DUP5 PUSH2 0x48A JUMP JUMPDEST DUP2 ADD PUSH1 0x20 DUP6 LT ISZERO PUSH2 0x5C8 JUMPI DUP2 SWAP1 POP JUMPDEST PUSH2 0x5DC PUSH2 0x5D4 DUP6 PUSH2 0x48A JUMP JUMPDEST DUP4 ADD DUP3 PUSH2 0x57B JUMP JUMPDEST POP POP JUMPDEST POP POP POP JUMP JUMPDEST PUSH1 0x0 DUP3 DUP3 SHR SWAP1 POP SWAP3 SWAP2 POP POP JUMP JUMPDEST PUSH1 0x0 PUSH2 0x602 PUSH1 0x0 NOT DUP5 PUSH1 0x8 MUL PUSH2 0x5E4 JUMP JUMPDEST NOT DUP1 DUP4 AND SWAP2 POP POP SWAP3 SWAP2 POP POP JUMP JUMPDEST PUSH1 0x0 PUSH2 0x61B DUP4 DUP4 PUSH2 0x5F1 JUMP JUMPDEST SWAP2 POP DUP3 PUSH1 0x2 MUL DUP3 OR SWAP1 POP SWAP3 SWAP2 POP POP JUMP JUMPDEST PUSH2 0x634 DUP3 PUSH2 0x3DB JUMP JUMPDEST PUSH8 0xFFFFFFFFFFFFFFFF DUP2 GT ISZERO PUSH2 0x64D JUMPI PUSH2 0x64C PUSH2 0x3E6 JUMP JUMPDEST JUMPDEST PUSH2 0x657 DUP3 SLOAD PUSH2 0x444 JUMP JUMPDEST PUSH2 0x662 DUP3 DUP3 DUP6 PUSH2 0x59E JUMP JUMPDEST PUSH1 0x0 PUSH1 0x20 SWAP1 POP PUSH1 0x1F DUP4 GT PUSH1 0x1 DUP2 EQ PUSH2 0x695 JUMPI PUSH1 0x0 DUP5 ISZERO PUSH2 0x683 JUMPI DUP3 DUP8 ADD MLOAD SWAP1 POP JUMPDEST PUSH2 0x68D DUP6 DUP3 PUSH2 0x60F JUMP JUMPDEST DUP7 SSTORE POP PUSH2 0x6F5 JUMP JUMPDEST PUSH1 0x1F NOT DUP5 AND PUSH2 0x6A3 DUP7 PUSH2 0x475 JUMP JUMPDEST PUSH1 0x0 JUMPDEST DUP3 DUP2 LT ISZERO PUSH2 0x6CB JUMPI DUP5 DUP10 ADD MLOAD DUP3 SSTORE PUSH1 0x1 DUP3 ADD SWAP2 POP PUSH1 0x20 DUP6 ADD SWAP5 POP PUSH1 0x20 DUP2 ADD SWAP1 POP PUSH2 0x6A6 JUMP JUMPDEST DUP7 DUP4 LT ISZERO PUSH2 0x6E8 JUMPI DUP5 DUP10 ADD MLOAD PUSH2 0x6E4 PUSH1 0x1F DUP10 AND DUP3 PUSH2 0x5F1 JUMP JUMPDEST DUP4 SSTORE POP JUMPDEST PUSH1 0x1 PUSH1 0x2 DUP9 MUL ADD DUP9 SSTORE POP POP POP JUMPDEST POP POP POP POP POP POP JUMP JUMPDEST PUSH32 0x4E487B7100000000000000000000000000000000000000000000000000000000 PUSH1 0x0 MSTORE PUSH1 0x11 PUSH1 0x4 MSTORE PUSH1 0x24 PUSH1 0x0 REVERT JUMPDEST PUSH1 0x0 PUSH2 0x737 DUP3 PUSH2 0x4F9 JUMP JUMPDEST SWAP2 POP PUSH32 0xFFFFFFFFFFFFFFFFFFFFFFFFFFFFFFFFFFFFFFFFFFFFFFFFFFFFFFFFFFFFFFFF DUP3 SUB PUSH2 0x769 JUMPI PUSH2 0x768 PUSH2 0x6FD JUMP JUMPDEST JUMPDEST PUSH1 0x1 DUP3 ADD SWAP1 POP SWAP2 SWAP1 POP JUMP JUMPDEST PUSH1 0x0 DUP2 SWAP1 POP SWAP3 SWAP2 POP POP JUMP JUMPDEST PUSH1 0x0 JUMPDEST DUP4 DUP2 LT ISZERO PUSH2 0x79D JUMPI DUP1 DUP3 ADD MLOAD DUP2 DUP5 ADD MSTORE PUSH1 0x20 DUP2 ADD SWAP1 POP PUSH2 0x782 JUMP JUMPDEST PUSH1 0x0 DUP5 DUP5 ADD MSTORE POP POP POP POP JUMP JUMPDEST PUSH1 0x0 PUSH2 0x7B4 DUP3 PUSH2 0x3DB JUMP JUMPDEST PUSH2 0x7BE DUP2 DUP6 PUSH2 0x774 JUMP JUMPDEST SWAP4 POP PUSH2 0x7CE DUP2 DUP6 PUSH1 0x20 DUP7 ADD PUSH2 0x77F JUMP JUMPDEST DUP1 DUP5 ADD SWAP2 POP POP SWAP3 SWAP2 POP POP JUMP JUMPDEST PUSH1 0x0 PUSH2 0x7E6 DUP3 DUP5 PUSH2 0x7A9 JUMP JUMPDEST SWAP2 POP DUP2 SWAP1 POP SWAP3 SWAP2 POP POP JUMP JUMPDEST PUSH1 0x0 PUSH2 0x7FC DUP3 PUSH2 0x4F9 JUMP JUMPDEST SWAP2 POP PUSH2 0x807 DUP4 PUSH2 0x4F9 JUMP JUMPDEST SWAP3 POP DUP3 DUP3 SUB SWAP1 POP DUP2 DUP2 GT ISZERO PUSH2 0x81F JUMPI PUSH2 0x81E PUSH2 0x6FD JUMP JUMPDEST JUMPDEST SWAP3 SWAP2 POP POP JUMP JUMPDEST PUSH2 0x107E DUP1 PUSH2 0x834 PUSH1 0x0 CODECOPY PUSH1 0x0 RETURN INVALID PUSH1 0x80 PUSH1 0x40 MSTORE CALLVALUE DUP1 ISZERO PUSH2 0x10 JUMPI PUSH1 0x0 DUP1 REVERT JUMPDEST POP PUSH1 0x4 CALLDATASIZE LT PUSH2 0x57 JUMPI PUSH1 0x0 CALLDATALOAD PUSH1 0xE0 SHR DUP1 PUSH4 0xE029FE9 EQ PUSH2 0x5C JUMPI DUP1 PUSH4 0x90B1DE26 EQ PUSH2 0x8C JUMPI DUP1 PUSH4 0x9A7083F9 EQ PUSH2 0xAA JUMPI DUP1 PUSH4 0xD7BC7B85 EQ PUSH2 0xDB JUMPI DUP1 PUSH4 0xEA9DA370 EQ PUSH2 0x10B JUMPI JUMPDEST PUSH1 0x0 DUP1 REVERT JUMPDEST PUSH2 0x76 PUSH1 0x4 DUP1 CALLDATASIZE SUB DUP2 ADD SWAP1 PUSH2 0x71 SWAP2 SWAP1 PUSH2 0x5BB JUMP JUMPDEST PUSH2 0x13B JUMP JUMPDEST PUSH1 0x40 MLOAD PUSH2 0x83 SWAP2 SWAP1 PUSH2 0x64C JUMP JUMPDEST PUSH1 0x40 MLOAD DUP1 SWAP2 SUB SWAP1 RETURN JUMPDEST PUSH2 0x94 PUSH2 0x21E JUMP JUMPDEST PUSH1 0x40 MLOAD PUSH2 0xA1 SWAP2 SWAP1 PUSH2 0x64C JUMP JUMPDEST PUSH1 0x40 MLOAD DUP1 SWAP2 SUB SWAP1 RETURN JUMPDEST PUSH2 0xC4 PUSH1 0x4 DUP1 CALLDATASIZE SUB DUP2 ADD SWAP1 PUSH2 0xBF SWAP2 SWAP1 PUSH2 0x693 JUMP JUMPDEST PUSH2 0x224 JUMP JUMPDEST PUSH1 0x40 MLOAD PUSH2 0xD2 SWAP3 SWAP2 SWAP1 PUSH2 0x73F JUMP JUMPDEST PUSH1 0x40 MLOAD DUP1 SWAP2 SUB SWAP1 RETURN JUMPDEST PUSH2 0xF5 PUSH1 0x4 DUP1 CALLDATASIZE SUB DUP2 ADD SWAP1 PUSH2 0xF0 SWAP2 SWAP1 PUSH2 0x776 JUMP JUMPDEST PUSH2 0x358 JUMP JUMPDEST PUSH1 0x40 MLOAD PUSH2 0x102 SWAP2 SWAP1 PUSH2 0x84A JUMP JUMPDEST PUSH1 0x40 MLOAD DUP1 SWAP2 SUB SWAP1 RETURN JUMPDEST PUSH2 0x125 PUSH1 0x4 DUP1 CALLDATASIZE SUB DUP2 ADD SWAP1 PUSH2 0x120 SWAP2 SWAP1 PUSH2 0x959 JUMP JUMPDEST PUSH2 0x3E7 JUMP JUMPDEST PUSH1 0x40 MLOAD PUSH2 0x132 SWAP2 SWAP1 PUSH2 0x84A JUMP JUMPDEST PUSH1 0x40 MLOAD DUP1 SWAP2 SUB SWAP1 RETURN JUMPDEST PUSH1 0x0 PUSH1 0x40 MLOAD DUP1 PUSH1 0x40 ADD PUSH1 0x40 MSTORE DUP1 DUP5 DUP2 MSTORE PUSH1 0x20 ADD DUP4 DUP2 MSTORE POP PUSH1 0x1 PUSH1 0x0 DUP1 SLOAD DUP2 MSTORE PUSH1 0x20 ADD SWAP1 DUP2 MSTORE PUSH1 0x20 ADD PUSH1 0x0 KECCAK256 PUSH1 0x0 DUP3 ADD MLOAD DUP2 PUSH1 0x0 ADD SWAP1 DUP2 PUSH2 0x17B SWAP2 SWAP1 PUSH2 0xC34 JUMP JUMPDEST POP PUSH1 0x20 DUP3 ADD MLOAD DUP2 PUSH1 0x1 ADD SWAP1 DUP2 PUSH2 0x191 SWAP2 SWAP1 PUSH2 0xC34 JUMP JUMPDEST POP SWAP1 POP POP PUSH1 0x0 DUP1 DUP2 SLOAD DUP1 SWAP3 SWAP2 SWAP1 PUSH2 0x1A7 SWAP1 PUSH2 0xD35 JUMP JUMPDEST SWAP2 SWAP1 POP SSTORE POP DUP2 PUSH1 0x40 MLOAD PUSH2 0x1BA SWAP2 SWAP1 PUSH2 0xDB9 JUMP JUMPDEST PUSH1 0x40 MLOAD DUP1 SWAP2 SUB SWAP1 KECCAK256 DUP4 PUSH1 0x40 MLOAD PUSH2 0x1D0 SWAP2 SWAP1 PUSH2 0xDB9 JUMP JUMPDEST PUSH1 0x40 MLOAD DUP1 SWAP2 SUB SWAP1 KECCAK256 PUSH1 0x1 PUSH1 0x0 SLOAD PUSH2 0x1E7 SWAP2 SWAP1 PUSH2 0xDD0 JUMP JUMPDEST PUSH32 0xF9318B0120271DE03B8CE2DF17779BA0FBEC694E74567D0D97C12BF84F442ABA PUSH1 0x40 MLOAD PUSH1 0x40 MLOAD DUP1 SWAP2 SUB SWAP1 LOG4 PUSH1 0x0 SLOAD SWAP1 POP SWAP3 SWAP2 POP POP JUMP JUMPDEST PUSH1 0x0 SLOAD DUP2 JUMP JUMPDEST PUSH1 0x1 PUSH1 0x20 MSTORE DUP1 PUSH1 0x0 MSTORE PUSH1 0x40 PUSH1 0x0 KECCAK256 PUSH1 0x0 SWAP2 POP SWAP1 POP DUP1 PUSH1 0x0 ADD DUP1 SLOAD PUSH2 0x247 SWAP1 PUSH2 0xA57 JUMP JUMPDEST DUP1 PUSH1 0x1F ADD PUSH1 0x20 DUP1 SWAP2 DIV MUL PUSH1 0x20 ADD PUSH1 0x40 MLOAD SWAP1 DUP2 ADD PUSH1 0x40 MSTORE DUP1 SWAP3 SWAP2 SWAP1 DUP2 DUP2 MSTORE PUSH1 0x20 ADD DUP3 DUP1 SLOAD PUSH2 0x273 SWAP1 PUSH2 0xA57 JUMP JUMPDEST DUP1 ISZERO PUSH2 0x2C0 JUMPI DUP1 PUSH1 0x1F LT PUSH2 0x295 JUMPI PUSH2 0x100 DUP1 DUP4 SLOAD DIV MUL DUP4 MSTORE SWAP2 PUSH1 0x20 ADD SWAP2 PUSH2 0x2C0 JUMP JUMPDEST DUP3 ADD SWAP2 SWAP1 PUSH1 0x0 MSTORE PUSH1 0x20 PUSH1 0x0 KECCAK256 SWAP1 JUMPDEST DUP2 SLOAD DUP2 MSTORE SWAP1 PUSH1 0x1 ADD SWAP1 PUSH1 0x20 ADD DUP1 DUP4 GT PUSH2 0x2A3 JUMPI DUP3 SWAP1 SUB PUSH1 0x1F AND DUP3 ADD SWAP2 JUMPDEST POP POP POP POP POP SWAP1 DUP1 PUSH1 0x1 ADD DUP1 SLOAD PUSH2 0x2D5 SWAP1 PUSH2 0xA57 JUMP JUMPDEST DUP1 PUSH1 0x1F ADD PUSH1 0x20 DUP1 SWAP2 DIV MUL PUSH1 0x20 ADD PUSH1 0x40 MLOAD SWAP1 DUP2 ADD PUSH1 0x40 MSTORE DUP1 SWAP3 SWAP2 SWAP1 DUP2 DUP2 MSTORE PUSH1 0x20 ADD DUP3 DUP1 SLOAD PUSH2 0x301 SWAP1 PUSH2 0xA57 JUMP JUMPDEST DUP1 ISZERO PUSH2 0x34E JUMPI DUP1 PUSH1 0x1F LT PUSH2 0x323 JUMPI PUSH2 0x100 DUP1 DUP4 SLOAD DIV MUL DUP4 MSTORE SWAP2 PUSH1 0x20 ADD SWAP2 PUSH2 0x34E JUMP JUMPDEST DUP3 ADD SWAP2 SWAP1 PUSH1 0x0 MSTORE PUSH1 0x20 PUSH1 0x0 KECCAK256 SWAP1 JUMPDEST DUP2 SLOAD DUP2 MSTORE SWAP1 PUSH1 0x1 ADD SWAP1 PUSH1 0x20 ADD DUP1 DUP4 GT PUSH2 0x331 JUMPI DUP3 SWAP1 SUB PUSH1 0x1F AND DUP3 ADD SWAP2 JUMPDEST POP POP POP POP POP SWAP1 POP DUP3 JUMP JUMPDEST PUSH1 0x0 DUP5 DUP5 CALLER TIMESTAMP PUSH1 0x40 MLOAD PUSH1 0x20 ADD PUSH2 0x371 SWAP5 SWAP4 SWAP3 SWAP2 SWAP1 PUSH2 0xE45 JUMP JUMPDEST PUSH1 0x40 MLOAD PUSH1 0x20 DUP2 DUP4 SUB SUB DUP2 MSTORE SWAP1 PUSH1 0x40 MSTORE DUP1 MLOAD SWAP1 PUSH1 0x20 ADD KECCAK256 SWAP1 POP DUP1 CALLER PUSH20 0xFFFFFFFFFFFFFFFFFFFFFFFFFFFFFFFFFFFFFFFF AND DUP7 PUSH32 0xB17D133F2F381C245D9CA846761D2DA89F5F2175CAF7F89D311D44765878EEEF DUP7 DUP9 DUP8 TIMESTAMP PUSH1 0x40 MLOAD PUSH2 0x3D7 SWAP5 SWAP4 SWAP3 SWAP2 SWAP1 PUSH2 0xE91 JUMP JUMPDEST PUSH1 0x40 MLOAD DUP1 SWAP2 SUB SWAP1 LOG4 SWAP5 SWAP4 POP POP POP POP JUMP JUMPDEST PUSH1 0x0 CALLER TIMESTAMP DUP7 PUSH1 0x40 MLOAD PUSH1 0x20 ADD PUSH2 0x3FE SWAP4 SWAP3 SWAP2 SWAP1 PUSH2 0xEEB JUMP JUMPDEST PUSH1 0x40 MLOAD PUSH1 0x20 DUP2 DUP4 SUB SUB DUP2 MSTORE SWAP1 PUSH1 0x40 MSTORE DUP1 MLOAD SWAP1 PUSH1 0x20 ADD KECCAK256 SWAP1 POP DUP1 DUP6 DUP8 PUSH32 0xEA62080F8D7F4D4C1A82256330BB551739D4B073762762281B9193826C00939D CALLER DUP9 DUP9 DUP9 TIMESTAMP PUSH1 0x40 MLOAD PUSH2 0x450 SWAP6 SWAP5 SWAP4 SWAP3 SWAP2 SWAP1 PUSH2 0xFE0 JUMP JUMPDEST PUSH1 0x40 MLOAD DUP1 SWAP2 SUB SWAP1 LOG4 SWAP6 SWAP5 POP POP POP POP POP JUMP JUMPDEST PUSH1 0x0 PUSH1 0x40 MLOAD SWAP1 POP SWAP1 JUMP JUMPDEST PUSH1 0x0 DUP1 REVERT JUMPDEST PUSH1 0x0 DUP1 REVERT JUMPDEST PUSH1 0x0 DUP1 REVERT JUMPDEST PUSH1 0x0 DUP1 REVERT JUMPDEST PUSH1 0x0 PUSH1 0x1F NOT PUSH1 0x1F DUP4 ADD AND SWAP1 POP SWAP2 SWAP1 POP JUMP JUMPDEST PUSH32 0x4E487B7100000000000000000000000000000000000000000000000000000000 PUSH1 0x0 MSTORE PUSH1 0x41 PUSH1 0x4 MSTORE PUSH1 0x24 PUSH1 0x0 REVERT JUMPDEST PUSH2 0x4C8 DUP3 PUSH2 0x47F JUMP JUMPDEST DUP2 ADD DUP2 DUP2 LT PUSH8 0xFFFFFFFFFFFFFFFF DUP3 GT OR ISZERO PUSH2 0x4E7 JUMPI PUSH2 0x4E6 PUSH2 0x490 JUMP JUMPDEST JUMPDEST DUP1 PUSH1 0x40 MSTORE POP POP POP JUMP JUMPDEST PUSH1 0x0 PUSH2 0x4FA PUSH2 0x461 JUMP JUMPDEST SWAP1 POP PUSH2 0x506 DUP3 DUP3 PUSH2 0x4BF JUMP JUMPDEST SWAP2 SWAP1 POP JUMP JUMPDEST PUSH1 0x0 PUSH8 0xFFFFFFFFFFFFFFFF DUP3 GT ISZERO PUSH2 0x526 JUMPI PUSH2 0x525 PUSH2 0x490 JUMP JUMPDEST JUMPDEST PUSH2 0x52F DUP3 PUSH2 0x47F JUMP JUMPDEST SWAP1 POP PUSH1 0x20 DUP2 ADD SWAP1 POP SWAP2 SWAP1 POP JUMP JUMPDEST DUP3 DUP2 DUP4 CALLDATACOPY PUSH1 0x0 DUP4 DUP4 ADD MSTORE POP POP POP JUMP JUMPDEST PUSH1 0x0 PUSH2 0x55E PUSH2 0x559 DUP5 PUSH2 0x50B JUMP JUMPDEST PUSH2 0x4F0 JUMP JUMPDEST SWAP1 POP DUP3 DUP2 MSTORE PUSH1 0x20 DUP2 ADD DUP5 DUP5 DUP5 ADD GT ISZERO PUSH2 0x57A JUMPI PUSH2 0x579 PUSH2 0x47A JUMP JUMPDEST JUMPDEST PUSH2 0x585 DUP5 DUP3 DUP6 PUSH2 0x53C JUMP JUMPDEST POP SWAP4 SWAP3 POP POP POP JUMP JUMPDEST PUSH1 0x0 DUP3 PUSH1 0x1F DUP4 ADD SLT PUSH2 0x5A2 JUMPI PUSH2 0x5A1 PUSH2 0x475 JUMP JUMPDEST JUMPDEST DUP2 CALLDATALOAD PUSH2 0x5B2 DUP5 DUP3 PUSH1 0x20 DUP7 ADD PUSH2 0x54B JUMP JUMPDEST SWAP2 POP POP SWAP3 SWAP2 POP POP JUMP JUMPDEST PUSH1 0x0 DUP1 PUSH1 0x40 DUP4 DUP6 SUB SLT ISZERO PUSH2 0x5D2 JUMPI PUSH2 0x5D1 PUSH2 0x46B JUMP JUMPDEST JUMPDEST PUSH1 0x0 DUP4 ADD CALLDATALOAD PUSH8 0xFFFFFFFFFFFFFFFF DUP2 GT ISZERO PUSH2 0x5F0 JUMPI PUSH2 0x5EF PUSH2 0x470 JUMP JUMPDEST JUMPDEST PUSH2 0x5FC DUP6 DUP3 DUP7 ADD PUSH2 0x58D JUMP JUMPDEST SWAP3 POP POP PUSH1 0x20 DUP4 ADD CALLDATALOAD PUSH8 0xFFFFFFFFFFFFFFFF DUP2 GT ISZERO PUSH2 0x61D JUMPI PUSH2 0x61C PUSH2 0x470 JUMP JUMPDEST JUMPDEST PUSH2 0x629 DUP6 DUP3 DUP7 ADD PUSH2 0x58D JUMP JUMPDEST SWAP2 POP POP SWAP3 POP SWAP3 SWAP1 POP JUMP JUMPDEST PUSH1 0x0 DUP2 SWAP1 POP SWAP2 SWAP1 POP JUMP JUMPDEST PUSH2 0x646 DUP2 PUSH2 0x633 JUMP JUMPDEST DUP3 MSTORE POP POP JUMP JUMPDEST PUSH1 0x0 PUSH1 0x20 DUP3 ADD SWAP1 POP PUSH2 0x661 PUSH1 0x0 DUP4 ADD DUP5 PUSH2 0x63D JUMP JUMPDEST SWAP3 SWAP2 POP POP JUMP JUMPDEST PUSH2 0x670 DUP2 PUSH2 0x633 JUMP JUMPDEST DUP2 EQ PUSH2 0x67B JUMPI PUSH1 0x0 DUP1 REVERT JUMPDEST POP JUMP JUMPDEST PUSH1 0x0 DUP2 CALLDATALOAD SWAP1 POP PUSH2 0x68D DUP2 PUSH2 0x667 JUMP JUMPDEST SWAP3 SWAP2 POP POP JUMP JUMPDEST PUSH1 0x0 PUSH1 0x20 DUP3 DUP5 SUB SLT ISZERO PUSH2 0x6A9 JUMPI PUSH2 0x6A8 PUSH2 0x46B JUMP JUMPDEST JUMPDEST PUSH1 0x0 PUSH2 0x6B7 DUP5 DUP3 DUP6 ADD PUSH2 0x67E JUMP JUMPDEST SWAP2 POP POP SWAP3 SWAP2 POP POP JUMP JUMPDEST PUSH1 0x0 DUP2 MLOAD SWAP1 POP SWAP2 SWAP1 POP JUMP JUMPDEST PUSH1 0x0 DUP3 DUP3 MSTORE PUSH1 0x20 DUP3 ADD SWAP1 POP SWAP3 SWAP2 POP POP JUMP JUMPDEST PUSH1 0x0 JUMPDEST DUP4 DUP2 LT ISZERO PUSH2 0x6FA JUMPI DUP1 DUP3 ADD MLOAD DUP2 DUP5 ADD MSTORE PUSH1 0x20 DUP2 ADD SWAP1 POP PUSH2 0x6DF JUMP JUMPDEST PUSH1 0x0 DUP5 DUP5 ADD MSTORE POP POP POP POP JUMP JUMPDEST PUSH1 0x0 PUSH2 0x711 DUP3 PUSH2 0x6C0 JUMP JUMPDEST PUSH2 0x71B DUP2 DUP6 PUSH2 0x6CB JUMP JUMPDEST SWAP4 POP PUSH2 0x72B DUP2 DUP6 PUSH1 0x20 DUP7 ADD PUSH2 0x6DC JUMP JUMPDEST PUSH2 0x734 DUP2 PUSH2 0x47F JUMP JUMPDEST DUP5 ADD SWAP2 POP POP SWAP3 SWAP2 POP POP JUMP JUMPDEST PUSH1 0x0 PUSH1 0x40 DUP3 ADD SWAP1 POP DUP2 DUP2 SUB PUSH1 0x0 DUP4 ADD MSTORE PUSH2 0x759 DUP2 DUP6 PUSH2 0x706 JUMP JUMPDEST SWAP1 POP DUP2 DUP2 SUB PUSH1 0x20 DUP4 ADD MSTORE PUSH2 0x76D DUP2 DUP5 PUSH2 0x706 JUMP JUMPDEST SWAP1 POP SWAP4 SWAP3 POP POP POP JUMP JUMPDEST PUSH1 0x0 DUP1 PUSH1 0x0 DUP1 PUSH1 0x80 DUP6 DUP8 SUB SLT ISZERO PUSH2 0x790 JUMPI PUSH2 0x78F PUSH2 0x46B JUMP JUMPDEST JUMPDEST PUSH1 0x0 PUSH2 0x79E DUP8 DUP3 DUP9 ADD PUSH2 0x67E JUMP JUMPDEST SWAP5 POP POP PUSH1 0x20 DUP6 ADD CALLDATALOAD PUSH8 0xFFFFFFFFFFFFFFFF DUP2 GT ISZERO PUSH2 0x7BF JUMPI PUSH2 0x7BE PUSH2 0x470 JUMP JUMPDEST JUMPDEST PUSH2 0x7CB DUP8 DUP3 DUP9 ADD PUSH2 0x58D JUMP JUMPDEST SWAP4 POP POP PUSH1 0x40 DUP6 ADD CALLDATALOAD PUSH8 0xFFFFFFFFFFFFFFFF DUP2 GT ISZERO PUSH2 0x7EC JUMPI PUSH2 0x7EB PUSH2 0x470 JUMP JUMPDEST JUMPDEST PUSH2 0x7F8 DUP8 DUP3 DUP9 ADD PUSH2 0x58D JUMP JUMPDEST SWAP3 POP POP PUSH1 0x60 DUP6 ADD CALLDATALOAD PUSH8 0xFFFFFFFFFFFFFFFF DUP2 GT ISZERO PUSH2 0x819 JUMPI PUSH2 0x818 PUSH2 0x470 JUMP JUMPDEST JUMPDEST PUSH2 0x825 DUP8 DUP3 DUP9 ADD PUSH2 0x58D JUMP JUMPDEST SWAP2 POP POP SWAP3 SWAP6 SWAP2 SWAP5 POP SWAP3 POP JUMP JUMPDEST PUSH1 0x0 DUP2 SWAP1 POP SWAP2 SWAP1 POP JUMP JUMPDEST PUSH2 0x844 DUP2 PUSH2 0x831 JUMP JUMPDEST DUP3 MSTORE POP POP JUMP JUMPDEST PUSH1 0x0 PUSH1 0x20 DUP3 ADD SWAP1 POP PUSH2 0x85F PUSH1 0x0 DUP4 ADD DUP5 PUSH2 0x83B JUMP JUMPDEST SWAP3 SWAP2 POP POP JUMP JUMPDEST PUSH2 0x86E DUP2 PUSH2 0x831 JUMP JUMPDEST DUP2 EQ PUSH2 0x879 JUMPI PUSH1 0x0 DUP1 REVERT JUMPDEST POP JUMP JUMPDEST PUSH1 0x0 DUP2 CALLDATALOAD SWAP1 POP PUSH2 0x88B DUP2 PUSH2 0x865 JUMP JUMPDEST SWAP3 SWAP2 POP POP JUMP JUMPDEST PUSH1 0x0 PUSH8 0xFFFFFFFFFFFFFFFF DUP3 GT ISZERO PUSH2 0x8AC JUMPI PUSH2 0x8AB PUSH2 0x490 JUMP JUMPDEST JUMPDEST PUSH1 0x20 DUP3 MUL SWAP1 POP PUSH1 0x20 DUP2 ADD SWAP1 POP SWAP2 SWAP1 POP JUMP JUMPDEST PUSH1 0x0 DUP1 REVERT JUMPDEST PUSH1 0x0 PUSH2 0x8D5 PUSH2 0x8D0 DUP5 PUSH2 0x891 JUMP JUMPDEST PUSH2 0x4F0 JUMP JUMPDEST SWAP1 POP DUP1 DUP4 DUP3 MSTORE PUSH1 0x20 DUP3 ADD SWAP1 POP PUSH1 0x20 DUP5 MUL DUP4 ADD DUP6 DUP2 GT ISZERO PUSH2 0x8F8 JUMPI PUSH2 0x8F7 PUSH2 0x8BD JUMP JUMPDEST JUMPDEST DUP4 JUMPDEST DUP2 DUP2 LT ISZERO PUSH2 0x921 JUMPI DUP1 PUSH2 0x90D DUP9 DUP3 PUSH2 0x87C JUMP JUMPDEST DUP5 MSTORE PUSH1 0x20 DUP5 ADD SWAP4 POP POP PUSH1 0x20 DUP2 ADD SWAP1 POP PUSH2 0x8FA JUMP JUMPDEST POP POP POP SWAP4 SWAP3 POP POP POP JUMP JUMPDEST PUSH1 0x0 DUP3 PUSH1 0x1F DUP4 ADD SLT PUSH2 0x940 JUMPI PUSH2 0x93F PUSH2 0x475 JUMP JUMPDEST JUMPDEST DUP2 CALLDATALOAD PUSH2 0x950 DUP5 DUP3 PUSH1 0x20 DUP7 ADD PUSH2 0x8C2 JUMP JUMPDEST SWAP2 POP POP SWAP3 SWAP2 POP POP JUMP JUMPDEST PUSH1 0x0 DUP1 PUSH1 0x0 DUP1 PUSH1 0x0 PUSH1 0xA0 DUP7 DUP9 SUB SLT ISZERO PUSH2 0x975 JUMPI PUSH2 0x974 PUSH2 0x46B JUMP JUMPDEST JUMPDEST PUSH1 0x0 PUSH2 0x983 DUP9 DUP3 DUP10 ADD PUSH2 0x67E JUMP JUMPDEST SWAP6 POP POP PUSH1 0x20 PUSH2 0x994 DUP9 DUP3 DUP10 ADD PUSH2 0x87C JUMP JUMPDEST SWAP5 POP POP PUSH1 0x40 DUP7 ADD CALLDATALOAD PUSH8 0xFFFFFFFFFFFFFFFF DUP2 GT ISZERO PUSH2 0x9B5 JUMPI PUSH2 0x9B4 PUSH2 0x470 JUMP JUMPDEST JUMPDEST PUSH2 0x9C1 DUP9 DUP3 DUP10 ADD PUSH2 0x92B JUMP JUMPDEST SWAP4 POP POP PUSH1 0x60 DUP7 ADD CALLDATALOAD PUSH8 0xFFFFFFFFFFFFFFFF DUP2 GT ISZERO PUSH2 0x9E2 JUMPI PUSH2 0x9E1 PUSH2 0x470 JUMP JUMPDEST JUMPDEST PUSH2 0x9EE DUP9 DUP3 DUP10 ADD PUSH2 0x58D JUMP JUMPDEST SWAP3 POP POP PUSH1 0x80 DUP7 ADD CALLDATALOAD PUSH8 0xFFFFFFFFFFFFFFFF DUP2 GT ISZERO PUSH2 0xA0F JUMPI PUSH2 0xA0E PUSH2 0x470 JUMP JUMPDEST JUMPDEST PUSH2 0xA1B DUP9 DUP3 DUP10 ADD PUSH2 0x58D JUMP JUMPDEST SWAP2 POP POP SWAP3 SWAP6 POP SWAP3 SWAP6 SWAP1 SWAP4 POP JUMP JUMPDEST PUSH32 0x4E487B7100000000000000000000000000000000000000000000000000000000 PUSH1 0x0 MSTORE PUSH1 0x22 PUSH1 0x4 MSTORE PUSH1 0x24 PUSH1 0x0 REVERT JUMPDEST PUSH1 0x0 PUSH1 0x2 DUP3 DIV SWAP1 POP PUSH1 0x1 DUP3 AND DUP1 PUSH2 0xA6F JUMPI PUSH1 0x7F DUP3 AND SWAP2 POP JUMPDEST PUSH1 0x20 DUP3 LT DUP2 SUB PUSH2 0xA82 JUMPI PUSH2 0xA81 PUSH2 0xA28 JUMP JUMPDEST JUMPDEST POP SWAP2 SWAP1 POP JUMP JUMPDEST PUSH1 0x0 DUP2 SWAP1 POP DUP2 PUSH1 0x0 MSTORE PUSH1 0x20 PUSH1 0x0 KECCAK256 SWAP1 POP SWAP2 SWAP1 POP JUMP JUMPDEST PUSH1 0x0 PUSH1 0x20 PUSH1 0x1F DUP4 ADD DIV SWAP1 POP SWAP2 SWAP1 POP JUMP JUMPDEST PUSH1 0x0 DUP3 DUP3 SHL SWAP1 POP SWAP3 SWAP2 POP POP JUMP JUMPDEST PUSH1 0x0 PUSH1 0x8 DUP4 MUL PUSH2 0xAEA PUSH32 0xFFFFFFFFFFFFFFFFFFFFFFFFFFFFFFFFFFFFFFFFFFFFFFFFFFFFFFFFFFFFFFFF DUP3 PUSH2 0xAAD JUMP JUMPDEST PUSH2 0xAF4 DUP7 DUP4 PUSH2 0xAAD JUMP JUMPDEST SWAP6 POP DUP1 NOT DUP5 AND SWAP4 POP DUP1 DUP7 AND DUP5 OR SWAP3 POP POP POP SWAP4 SWAP3 POP POP POP JUMP JUMPDEST PUSH1 0x0 DUP2 SWAP1 POP SWAP2 SWAP1 POP JUMP JUMPDEST PUSH1 0x0 PUSH2 0xB31 PUSH2 0xB2C PUSH2 0xB27 DUP5 PUSH2 0x633 JUMP JUMPDEST PUSH2 0xB0C JUMP JUMPDEST PUSH2 0x633 JUMP JUMPDEST SWAP1 POP SWAP2 SWAP1 POP JUMP JUMPDEST PUSH1 0x0 DUP2 SWAP1 POP SWAP2 SWAP1 POP JUMP JUMPDEST PUSH2 0xB4B DUP4 PUSH2 0xB16 JUMP JUMPDEST PUSH2 0xB5F PUSH2 0xB57 DUP3 PUSH2 0xB38 JUMP JUMPDEST DUP5 DUP5 SLOAD PUSH2 0xABA JUMP JUMPDEST DUP3 SSTORE POP POP POP POP JUMP JUMPDEST PUSH1 0x0 SWAP1 JUMP JUMPDEST PUSH2 0xB74 PUSH2 0xB67 JUMP JUMPDEST PUSH2 0xB7F DUP2 DUP5 DUP5 PUSH2 0xB42 JUMP JUMPDEST POP POP POP JUMP JUMPDEST JUMPDEST DUP2 DUP2 LT ISZERO PUSH2 0xBA3 JUMPI PUSH2 0xB98 PUSH1 0x0 DUP3 PUSH2 0xB6C JUMP JUMPDEST PUSH1 0x1 DUP2 ADD SWAP1 POP PUSH2 0xB85 JUMP JUMPDEST POP POP JUMP JUMPDEST PUSH1 0x1F DUP3 GT ISZERO PUSH2 0xBE8 JUMPI PUSH2 0xBB9 DUP2 PUSH2 0xA88 JUMP JUMPDEST PUSH2 0xBC2 DUP5 PUSH2 0xA9D JUMP JUMPDEST DUP2 ADD PUSH1 0x20 DUP6 LT ISZERO PUSH2 0xBD1 JUMPI DUP2 SWAP1 POP JUMPDEST PUSH2 0xBE5 PUSH2 0xBDD DUP6 PUSH2 0xA9D JUMP JUMPDEST DUP4 ADD DUP3 PUSH2 0xB84 JUMP JUMPDEST POP POP JUMPDEST POP POP POP JUMP JUMPDEST PUSH1 0x0 DUP3 DUP3 SHR SWAP1 POP SWAP3 SWAP2 POP POP JUMP JUMPDEST PUSH1 0x0 PUSH2 0xC0B PUSH1 0x0 NOT DUP5 PUSH1 0x8 MUL PUSH2 0xBED JUMP JUMPDEST NOT DUP1 DUP4 AND SWAP2 POP POP SWAP3 SWAP2 POP POP JUMP JUMPDEST PUSH1 0x0 PUSH2 0xC24 DUP4 DUP4 PUSH2 0xBFA JUMP JUMPDEST SWAP2 POP DUP3 PUSH1 0x2 MUL DUP3 OR SWAP1 POP SWAP3 SWAP2 POP POP JUMP JUMPDEST PUSH2 0xC3D DUP3 PUSH2 0x6C0 JUMP JUMPDEST PUSH8 0xFFFFFFFFFFFFFFFF DUP2 GT ISZERO PUSH2 0xC56 JUMPI PUSH2 0xC55 PUSH2 0x490 JUMP JUMPDEST JUMPDEST PUSH2 0xC60 DUP3 SLOAD PUSH2 0xA57 JUMP JUMPDEST PUSH2 0xC6B DUP3 DUP3 DUP6 PUSH2 0xBA7 JUMP JUMPDEST PUSH1 0x0 PUSH1 0x20 SWAP1 POP PUSH1 0x1F DUP4 GT PUSH1 0x1 DUP2 EQ PUSH2 0xC9E JUMPI PUSH1 0x0 DUP5 ISZERO PUSH2 0xC8C JUMPI DUP3 DUP8 ADD MLOAD SWAP1 POP JUMPDEST PUSH2 0xC96 DUP6 DUP3 PUSH2 0xC18 JUMP JUMPDEST DUP7 SSTORE POP PUSH2 0xCFE JUMP JUMPDEST PUSH1 0x1F NOT DUP5 AND PUSH2 0xCAC DUP7 PUSH2 0xA88 JUMP JUMPDEST PUSH1 0x0 JUMPDEST DUP3 DUP2 LT ISZERO PUSH2 0xCD4 JUMPI DUP5 DUP10 ADD MLOAD DUP3 SSTORE PUSH1 0x1 DUP3 ADD SWAP2 POP PUSH1 0x20 DUP6 ADD SWAP5 POP PUSH1 0x20 DUP2 ADD SWAP1 POP PUSH2 0xCAF JUMP JUMPDEST DUP7 DUP4 LT ISZERO PUSH2 0xCF1 JUMPI DUP5 DUP10 ADD MLOAD PUSH2 0xCED PUSH1 0x1F DUP10 AND DUP3 PUSH2 0xBFA JUMP JUMPDEST DUP4 SSTORE POP JUMPDEST PUSH1 0x1 PUSH1 0x2 DUP9 MUL ADD DUP9 SSTORE POP POP POP JUMPDEST POP POP POP POP POP POP JUMP JUMPDEST PUSH32 0x4E487B7100000000000000000000000000000000000000000000000000000000 PUSH1 0x0 MSTORE PUSH1 0x11 PUSH1 0x4 MSTORE PUSH1 0x24 PUSH1 0x0 REVERT JUMPDEST PUSH1 0x0 PUSH2 0xD40 DUP3 PUSH2 0x633 JUMP JUMPDEST SWAP2 POP PUSH32 0xFFFFFFFFFFFFFFFFFFFFFFFFFFFFFFFFFFFFFFFFFFFFFFFFFFFFFFFFFFFFFFFF DUP3 SUB PUSH2 0xD72 JUMPI PUSH2 0xD71 PUSH2 0xD06 JUMP JUMPDEST JUMPDEST PUSH1 0x1 DUP3 ADD SWAP1 POP SWAP2 SWAP1 POP JUMP JUMPDEST PUSH1 0x0 DUP2 SWAP1 POP SWAP3 SWAP2 POP POP JUMP JUMPDEST PUSH1 0x0 PUSH2 0xD93 DUP3 PUSH2 0x6C0 JUMP JUMPDEST PUSH2 0xD9D DUP2 DUP6 PUSH2 0xD7D JUMP JUMPDEST SWAP4 POP PUSH2 0xDAD DUP2 DUP6 PUSH1 0x20 DUP7 ADD PUSH2 0x6DC JUMP JUMPDEST DUP1 DUP5 ADD SWAP2 POP POP SWAP3 SWAP2 POP POP JUMP JUMPDEST PUSH1 0x0 PUSH2 0xDC5 DUP3 DUP5 PUSH2 0xD88 JUMP JUMPDEST SWAP2 POP DUP2 SWAP1 POP SWAP3 SWAP2 POP POP JUMP JUMPDEST PUSH1 0x0 PUSH2 0xDDB DUP3 PUSH2 0x633 JUMP JUMPDEST SWAP2 POP PUSH2 0xDE6 DUP4 PUSH2 0x633 JUMP JUMPDEST SWAP3 POP DUP3 DUP3 SUB SWAP1 POP DUP2 DUP2 GT ISZERO PUSH2 0xDFE JUMPI PUSH2 0xDFD PUSH2 0xD06 JUMP JUMPDEST JUMPDEST SWAP3 SWAP2 POP POP JUMP JUMPDEST PUSH1 0x0 PUSH20 0xFFFFFFFFFFFFFFFFFFFFFFFFFFFFFFFFFFFFFFFF DUP3 AND SWAP1 POP SWAP2 SWAP1 POP JUMP JUMPDEST PUSH1 0x0 PUSH2 0xE2F DUP3 PUSH2 0xE04 JUMP JUMPDEST SWAP1 POP SWAP2 SWAP1 POP JUMP JUMPDEST PUSH2 0xE3F DUP2 PUSH2 0xE24 JUMP JUMPDEST DUP3 MSTORE POP POP JUMP JUMPDEST PUSH1 0x0 PUSH1 0x80 DUP3 ADD SWAP1 POP PUSH2 0xE5A PUSH1 0x0 DUP4 ADD DUP8 PUSH2 0x63D JUMP JUMPDEST DUP2 DUP2 SUB PUSH1 0x20 DUP4 ADD MSTORE PUSH2 0xE6C DUP2 DUP7 PUSH2 0x706 JUMP JUMPDEST SWAP1 POP PUSH2 0xE7B PUSH1 0x40 DUP4 ADD DUP6 PUSH2 0xE36 JUMP JUMPDEST PUSH2 0xE88 PUSH1 0x60 DUP4 ADD DUP5 PUSH2 0x63D JUMP JUMPDEST SWAP6 SWAP5 POP POP POP POP POP JUMP JUMPDEST PUSH1 0x0 PUSH1 0x80 DUP3 ADD SWAP1 POP DUP2 DUP2 SUB PUSH1 0x0 DUP4 ADD MSTORE PUSH2 0xEAB DUP2 DUP8 PUSH2 0x706 JUMP JUMPDEST SWAP1 POP DUP2 DUP2 SUB PUSH1 0x20 DUP4 ADD MSTORE PUSH2 0xEBF DUP2 DUP7 PUSH2 0x706 JUMP JUMPDEST SWAP1 POP DUP2 DUP2 SUB PUSH1 0x40 DUP4 ADD MSTORE PUSH2 0xED3 DUP2 DUP6 PUSH2 0x706 JUMP JUMPDEST SWAP1 POP PUSH2 0xEE2 PUSH1 0x60 DUP4 ADD DUP5 PUSH2 0x63D JUMP JUMPDEST SWAP6 SWAP5 POP POP POP POP POP JUMP JUMPDEST PUSH1 0x0 PUSH1 0x60 DUP3 ADD SWAP1 POP PUSH2 0xF00 PUSH1 0x0 DUP4 ADD DUP7 PUSH2 0xE36 JUMP JUMPDEST PUSH2 0xF0D PUSH1 0x20 DUP4 ADD DUP6 PUSH2 0x63D JUMP JUMPDEST PUSH2 0xF1A PUSH1 0x40 DUP4 ADD DUP5 PUSH2 0x83B JUMP JUMPDEST SWAP5 SWAP4 POP POP POP POP JUMP JUMPDEST PUSH1 0x0 DUP2 MLOAD SWAP1 POP SWAP2 SWAP1 POP JUMP JUMPDEST PUSH1 0x0 DUP3 DUP3 MSTORE PUSH1 0x20 DUP3 ADD SWAP1 POP SWAP3 SWAP2 POP POP JUMP JUMPDEST PUSH1 0x0 DUP2 SWAP1 POP PUSH1 0x20 DUP3 ADD SWAP1 POP SWAP2 SWAP1 POP JUMP JUMPDEST PUSH2 0xF57 DUP2 PUSH2 0x831 JUMP JUMPDEST DUP3 MSTORE POP POP JUMP JUMPDEST PUSH1 0x0 PUSH2 0xF69 DUP4 DUP4 PUSH2 0xF4E JUMP JUMPDEST PUSH1 0x20 DUP4 ADD SWAP1 POP SWAP3 SWAP2 POP POP JUMP JUMPDEST PUSH1 0x0 PUSH1 0x20 DUP3 ADD SWAP1 POP SWAP2 SWAP1 POP JUMP JUMPDEST PUSH1 0x0 PUSH2 0xF8D DUP3 PUSH2 0xF22 JUMP JUMPDEST PUSH2 0xF97 DUP2 DUP6 PUSH2 0xF2D JUMP JUMPDEST SWAP4 POP PUSH2 0xFA2 DUP4 PUSH2 0xF3E JUMP JUMPDEST DUP1 PUSH1 0x0 JUMPDEST DUP4 DUP2 LT ISZERO PUSH2 0xFD3 JUMPI DUP2 MLOAD PUSH2 0xFBA DUP9 DUP3 PUSH2 0xF5D JUMP JUMPDEST SWAP8 POP PUSH2 0xFC5 DUP4 PUSH2 0xF75 JUMP JUMPDEST SWAP3 POP POP PUSH1 0x1 DUP2 ADD SWAP1 POP PUSH2 0xFA6 JUMP JUMPDEST POP DUP6 SWAP4 POP POP POP POP SWAP3 SWAP2 POP POP JUMP JUMPDEST PUSH1 0x0 PUSH1 0xA0 DUP3 ADD SWAP1 POP PUSH2 0xFF5 PUSH1 0x0 DUP4 ADD DUP9 PUSH2 0xE36 JUMP JUMPDEST DUP2 DUP2 SUB PUSH1 0x20 DUP4 ADD MSTORE PUSH2 0x1007 DUP2 DUP8 PUSH2 0xF82 JUMP JUMPDEST SWAP1 POP DUP2 DUP2 SUB PUSH1 0x40 DUP4 ADD MSTORE PUSH2 0x101B DUP2 DUP7 PUSH2 0x706 JUMP JUMPDEST SWAP1 POP DUP2 DUP2 SUB PUSH1 0x60 DUP4 ADD MSTORE PUSH2 0x102F DUP2 DUP6 PUSH2 0x706 JUMP JUMPDEST SWAP1 POP PUSH2 0x103E PUSH1 0x80 DUP4 ADD DUP5 PUSH2 0x63D JUMP JUMPDEST SWAP7 SWAP6 POP POP POP POP POP POP JUMP INVALID LOG2 PUSH5 0x6970667358 0x22 SLT KECCAK256 DELEGATECALL 0xCA 0xB0 SWAP10 0xCC JUMPI 0x2D 0xB7 CHAINID 0xCD PUSH18 0x24AB99F53AEC66F592EA8C22D345DD09DCEA 0xEB 0xDC PUSH27 0x64736F6C634300081A003300000000000000000000000000000000 "
        },
        "methodIdentifiers": {
          "boardCount()": "90b1de26",
          "boards(uint256)": "9a7083f9",
          "createBoard(string,string)": "0e029fe9",
          "createPost(uint256,bytes32,bytes32[],string,string)": "ea9da370",
          "createThread(uint256,string,string,string)": "d7bc7b85"
        }
      }
    }
  }
}