{
  "contracts/HashChan2.sol": {
    "HashChan2": {
      "abi": [
        {
          "inputs": [],
          "stateMutability": "nonpayable",
          "type": "constructor"
        },
        {
          "anonymous": false,
          "inputs": [
            {
              "indexed": true,
              "internalType": "uint256",
              "name": "id",
              "type": "uint256"
            },
            {
              "indexed": false,
              "internalType": "string",
              "name": "name",
              "type": "string"
            }
          ],
          "name": "Board",
          "type": "event"
        },
        {
          "anonymous": false,
          "inputs": [
            {
              "indexed": true,
              "internalType": "address",
              "name": "creator",
              "type": "address"
            },
            {
              "indexed": true,
              "internalType": "bytes32",
              "name": "threadId",
              "type": "bytes32"
            },
            {
              "indexed": true,
              "internalType": "bytes32",
              "name": "id",
              "type": "bytes32"
            },
            {
              "indexed": false,
              "internalType": "bytes32[]",
              "name": "replyIds",
              "type": "bytes32[]"
            },
            {
              "indexed": false,
              "internalType": "string",
              "name": "imgUrl",
              "type": "string"
            },
            {
              "indexed": false,
              "internalType": "string",
              "name": "content",
              "type": "string"
            },
            {
              "indexed": false,
              "internalType": "uint256",
              "name": "timestamp",
              "type": "uint256"
            }
          ],
          "name": "Post",
          "type": "event"
        },
        {
          "anonymous": false,
          "inputs": [
            {
              "indexed": true,
              "internalType": "uint256",
              "name": "board",
              "type": "uint256"
            },
            {
              "indexed": true,
              "internalType": "address",
              "name": "creator",
              "type": "address"
            },
            {
              "indexed": true,
              "internalType": "bytes32",
              "name": "id",
              "type": "bytes32"
            },
            {
              "indexed": false,
              "internalType": "string",
              "name": "imgUrl",
              "type": "string"
            },
            {
              "indexed": false,
              "internalType": "string",
              "name": "title",
              "type": "string"
            },
            {
              "indexed": false,
              "internalType": "string",
              "name": "content",
              "type": "string"
            },
            {
              "indexed": false,
              "internalType": "uint256",
              "name": "timestamp",
              "type": "uint256"
            }
          ],
          "name": "Thread",
          "type": "event"
        },
        {
          "inputs": [],
          "name": "boardCount",
          "outputs": [
            {
              "internalType": "uint256",
              "name": "",
              "type": "uint256"
            }
          ],
          "stateMutability": "view",
          "type": "function"
        },
        {
          "inputs": [
            {
              "internalType": "string",
              "name": "name",
              "type": "string"
            }
          ],
          "name": "createBoard",
          "outputs": [
            {
              "internalType": "uint256",
              "name": "",
              "type": "uint256"
            }
          ],
          "stateMutability": "nonpayable",
          "type": "function"
        },
        {
          "inputs": [
            {
              "internalType": "bytes32",
              "name": "threadId",
              "type": "bytes32"
            },
            {
              "internalType": "bytes32[]",
              "name": "replyIds",
              "type": "bytes32[]"
            },
            {
              "internalType": "string",
              "name": "imgUrl",
              "type": "string"
            },
            {
              "internalType": "string",
              "name": "content",
              "type": "string"
            }
          ],
          "name": "createPost",
          "outputs": [],
          "stateMutability": "nonpayable",
          "type": "function"
        },
        {
          "inputs": [
            {
              "internalType": "uint256",
              "name": "board",
              "type": "uint256"
            },
            {
              "internalType": "string",
              "name": "title",
              "type": "string"
            },
            {
              "internalType": "string",
              "name": "url",
              "type": "string"
            },
            {
              "internalType": "string",
              "name": "content",
              "type": "string"
            }
          ],
          "name": "createThread",
          "outputs": [],
          "stateMutability": "nonpayable",
          "type": "function"
        }
      ],
      "evm": {
        "bytecode": {
          "linkReferences": {},
          "object": "608060405234801561001057600080fd5b506100556040518060400160405280600381526020017f706f6c000000000000000000000000000000000000000000000000000000000081525061016f60201b60201c565b5061009a6040518060400160405280600381526020017f62697a000000000000000000000000000000000000000000000000000000000081525061016f60201b60201c565b506100df6040518060400160405280600181526020017f670000000000000000000000000000000000000000000000000000000000000081525061016f60201b60201c565b506101246040518060400160405280600381526020017f736369000000000000000000000000000000000000000000000000000000000081525061016f60201b60201c565b506101696040518060400160405280600181526020017f780000000000000000000000000000000000000000000000000000000000000081525061016f60201b60201c565b5061062e565b60008160016000805481526020019081526020016000209081610192919061043e565b506000808154809291906101a59061053f565b91905055506000547ff2b4d6f691db4b4ba526b273f4822d16e6ebbc057fcf5c47a34db32b73504f52836040516101dc919061060c565b60405180910390a26000549050919050565b600081519050919050565b7f4e487b7100000000000000000000000000000000000000000000000000000000600052604160045260246000fd5b7f4e487b7100000000000000000000000000000000000000000000000000000000600052602260045260246000fd5b6000600282049050600182168061026f57607f821691505b60208210810361028257610281610228565b5b50919050565b60008190508160005260206000209050919050565b60006020601f8301049050919050565b600082821b905092915050565b6000600883026102ea7fffffffffffffffffffffffffffffffffffffffffffffffffffffffffffffffff826102ad565b6102f486836102ad565b95508019841693508086168417925050509392505050565b6000819050919050565b6000819050919050565b600061033b6103366103318461030c565b610316565b61030c565b9050919050565b6000819050919050565b61035583610320565b61036961036182610342565b8484546102ba565b825550505050565b600090565b61037e610371565b61038981848461034c565b505050565b5b818110156103ad576103a2600082610376565b60018101905061038f565b5050565b601f8211156103f2576103c381610288565b6103cc8461029d565b810160208510156103db578190505b6103ef6103e78561029d565b83018261038e565b50505b505050565b600082821c905092915050565b6000610415600019846008026103f7565b1980831691505092915050565b600061042e8383610404565b9150826002028217905092915050565b610447826101ee565b67ffffffffffffffff8111156104605761045f6101f9565b5b61046a8254610257565b6104758282856103b1565b600060209050601f8311600181146104a85760008415610496578287015190505b6104a08582610422565b865550610508565b601f1984166104b686610288565b60005b828110156104de578489015182556001820191506020850194506020810190506104b9565b868310156104fb57848901516104f7601f891682610404565b8355505b6001600288020188555050505b505050505050565b7f4e487b7100000000000000000000000000000000000000000000000000000000600052601160045260246000fd5b600061054a8261030c565b91507fffffffffffffffffffffffffffffffffffffffffffffffffffffffffffffffff820361057c5761057b610510565b5b600182019050919050565b600082825260208201905092915050565b60005b838110156105b657808201518184015260208101905061059b565b60008484015250505050565b6000601f19601f8301169050919050565b60006105de826101ee565b6105e88185610587565b93506105f8818560208601610598565b610601816105c2565b840191505092915050565b6000602082019050818103600083015261062681846105d3565b905092915050565b610d5e8061063d6000396000f3fe608060405234801561001057600080fd5b506004361061004c5760003560e01c8063871597461461005157806390b1de2614610081578063921174111461009f578063d7bc7b85146100bb575b600080fd5b61006b600480360381019061006691906103d0565b6100d7565b6040516100789190610432565b60405180910390f35b610089610156565b6040516100969190610432565b60405180910390f35b6100b960048036038101906100b4919061054b565b61015c565b005b6100d560048036038101906100d09190610632565b6101e8565b005b600081600160008054815260200190815260200160002090816100fa9190610904565b5060008081548092919061010d90610a05565b91905055506000547ff2b4d6f691db4b4ba526b273f4822d16e6ebbc057fcf5c47a34db32b73504f52836040516101449190610ac1565b60405180910390a26000549050919050565b60005481565b600033428660405160200161017393929190610b33565b60405160208183030381529060405280519060200120905080853373ffffffffffffffffffffffffffffffffffffffff167f1c2faad59419cc2ad51c60d24ea447550218dedf81ec3ed7078cc2d350c312a7878787426040516101d99493929190610c28565b60405180910390a45050505050565b6000848433426040516020016102019493929190610c82565b604051602081830303815290604052805190602001209050803373ffffffffffffffffffffffffffffffffffffffff16867f65e20209d55c1234ce2c1a14fb392a6e2ad27e93a0f3646e1f5cde292afea423868887426040516102679493929190610cce565b60405180910390a45050505050565b6000604051905090565b600080fd5b600080fd5b600080fd5b600080fd5b6000601f19601f8301169050919050565b7f4e487b7100000000000000000000000000000000000000000000000000000000600052604160045260246000fd5b6102dd82610294565b810181811067ffffffffffffffff821117156102fc576102fb6102a5565b5b80604052505050565b600061030f610276565b905061031b82826102d4565b919050565b600067ffffffffffffffff82111561033b5761033a6102a5565b5b61034482610294565b9050602081019050919050565b82818337600083830152505050565b600061037361036e84610320565b610305565b90508281526020810184848401111561038f5761038e61028f565b5b61039a848285610351565b509392505050565b600082601f8301126103b7576103b661028a565b5b81356103c7848260208601610360565b91505092915050565b6000602082840312156103e6576103e5610280565b5b600082013567ffffffffffffffff81111561040457610403610285565b5b610410848285016103a2565b91505092915050565b6000819050919050565b61042c81610419565b82525050565b60006020820190506104476000830184610423565b92915050565b6000819050919050565b6104608161044d565b811461046b57600080fd5b50565b60008135905061047d81610457565b92915050565b600067ffffffffffffffff82111561049e5761049d6102a5565b5b602082029050602081019050919050565b600080fd5b60006104c76104c284610483565b610305565b905080838252602082019050602084028301858111156104ea576104e96104af565b5b835b8181101561051357806104ff888261046e565b8452602084019350506020810190506104ec565b5050509392505050565b600082601f8301126105325761053161028a565b5b81356105428482602086016104b4565b91505092915050565b6000806000806080858703121561056557610564610280565b5b60006105738782880161046e565b945050602085013567ffffffffffffffff81111561059457610593610285565b5b6105a08782880161051d565b935050604085013567ffffffffffffffff8111156105c1576105c0610285565b5b6105cd878288016103a2565b925050606085013567ffffffffffffffff8111156105ee576105ed610285565b5b6105fa878288016103a2565b91505092959194509250565b61060f81610419565b811461061a57600080fd5b50565b60008135905061062c81610606565b92915050565b6000806000806080858703121561064c5761064b610280565b5b600061065a8782880161061d565b945050602085013567ffffffffffffffff81111561067b5761067a610285565b5b610687878288016103a2565b935050604085013567ffffffffffffffff8111156106a8576106a7610285565b5b6106b4878288016103a2565b925050606085013567ffffffffffffffff8111156106d5576106d4610285565b5b6106e1878288016103a2565b91505092959194509250565b600081519050919050565b7f4e487b7100000000000000000000000000000000000000000000000000000000600052602260045260246000fd5b6000600282049050600182168061073f57607f821691505b602082108103610752576107516106f8565b5b50919050565b60008190508160005260206000209050919050565b60006020601f8301049050919050565b600082821b905092915050565b6000600883026107ba7fffffffffffffffffffffffffffffffffffffffffffffffffffffffffffffffff8261077d565b6107c4868361077d565b95508019841693508086168417925050509392505050565b6000819050919050565b60006108016107fc6107f784610419565b6107dc565b610419565b9050919050565b6000819050919050565b61081b836107e6565b61082f61082782610808565b84845461078a565b825550505050565b600090565b610844610837565b61084f818484610812565b505050565b5b818110156108735761086860008261083c565b600181019050610855565b5050565b601f8211156108b85761088981610758565b6108928461076d565b810160208510156108a1578190505b6108b56108ad8561076d565b830182610854565b50505b505050565b600082821c905092915050565b60006108db600019846008026108bd565b1980831691505092915050565b60006108f483836108ca565b9150826002028217905092915050565b61090d826106ed565b67ffffffffffffffff811115610926576109256102a5565b5b6109308254610727565b61093b828285610877565b600060209050601f83116001811461096e576000841561095c578287015190505b61096685826108e8565b8655506109ce565b601f19841661097c86610758565b60005b828110156109a45784890151825560018201915060208501945060208101905061097f565b868310156109c157848901516109bd601f8916826108ca565b8355505b6001600288020188555050505b505050505050565b7f4e487b7100000000000000000000000000000000000000000000000000000000600052601160045260246000fd5b6000610a1082610419565b91507fffffffffffffffffffffffffffffffffffffffffffffffffffffffffffffffff8203610a4257610a416109d6565b5b600182019050919050565b600082825260208201905092915050565b60005b83811015610a7c578082015181840152602081019050610a61565b60008484015250505050565b6000610a93826106ed565b610a9d8185610a4d565b9350610aad818560208601610a5e565b610ab681610294565b840191505092915050565b60006020820190508181036000830152610adb8184610a88565b905092915050565b600073ffffffffffffffffffffffffffffffffffffffff82169050919050565b6000610b0e82610ae3565b9050919050565b610b1e81610b03565b82525050565b610b2d8161044d565b82525050565b6000606082019050610b486000830186610b15565b610b556020830185610423565b610b626040830184610b24565b949350505050565b600081519050919050565b600082825260208201905092915050565b6000819050602082019050919050565b610b9f8161044d565b82525050565b6000610bb18383610b96565b60208301905092915050565b6000602082019050919050565b6000610bd582610b6a565b610bdf8185610b75565b9350610bea83610b86565b8060005b83811015610c1b578151610c028882610ba5565b9750610c0d83610bbd565b925050600181019050610bee565b5085935050505092915050565b60006080820190508181036000830152610c428187610bca565b90508181036020830152610c568186610a88565b90508181036040830152610c6a8185610a88565b9050610c796060830184610423565b95945050505050565b6000608082019050610c976000830187610423565b8181036020830152610ca98186610a88565b9050610cb86040830185610b15565b610cc56060830184610423565b95945050505050565b60006080820190508181036000830152610ce88187610a88565b90508181036020830152610cfc8186610a88565b90508181036040830152610d108185610a88565b9050610d1f6060830184610423565b9594505050505056fea2646970667358221220b91c77118ea9b35e4d47be6579b4b379b9772022314995fc479f978a64ada67b64736f6c634300081a0033",
          "opcodes": "PUSH1 0x80 PUSH1 0x40 MSTORE CALLVALUE DUP1 ISZERO PUSH2 0x10 JUMPI PUSH1 0x0 DUP1 REVERT JUMPDEST POP PUSH2 0x55 PUSH1 0x40 MLOAD DUP1 PUSH1 0x40 ADD PUSH1 0x40 MSTORE DUP1 PUSH1 0x3 DUP2 MSTORE PUSH1 0x20 ADD PUSH32 0x706F6C0000000000000000000000000000000000000000000000000000000000 DUP2 MSTORE POP PUSH2 0x16F PUSH1 0x20 SHL PUSH1 0x20 SHR JUMP JUMPDEST POP PUSH2 0x9A PUSH1 0x40 MLOAD DUP1 PUSH1 0x40 ADD PUSH1 0x40 MSTORE DUP1 PUSH1 0x3 DUP2 MSTORE PUSH1 0x20 ADD PUSH32 0x62697A0000000000000000000000000000000000000000000000000000000000 DUP2 MSTORE POP PUSH2 0x16F PUSH1 0x20 SHL PUSH1 0x20 SHR JUMP JUMPDEST POP PUSH2 0xDF PUSH1 0x40 MLOAD DUP1 PUSH1 0x40 ADD PUSH1 0x40 MSTORE DUP1 PUSH1 0x1 DUP2 MSTORE PUSH1 0x20 ADD PUSH32 0x6700000000000000000000000000000000000000000000000000000000000000 DUP2 MSTORE POP PUSH2 0x16F PUSH1 0x20 SHL PUSH1 0x20 SHR JUMP JUMPDEST POP PUSH2 0x124 PUSH1 0x40 MLOAD DUP1 PUSH1 0x40 ADD PUSH1 0x40 MSTORE DUP1 PUSH1 0x3 DUP2 MSTORE PUSH1 0x20 ADD PUSH32 0x7363690000000000000000000000000000000000000000000000000000000000 DUP2 MSTORE POP PUSH2 0x16F PUSH1 0x20 SHL PUSH1 0x20 SHR JUMP JUMPDEST POP PUSH2 0x169 PUSH1 0x40 MLOAD DUP1 PUSH1 0x40 ADD PUSH1 0x40 MSTORE DUP1 PUSH1 0x1 DUP2 MSTORE PUSH1 0x20 ADD PUSH32 0x7800000000000000000000000000000000000000000000000000000000000000 DUP2 MSTORE POP PUSH2 0x16F PUSH1 0x20 SHL PUSH1 0x20 SHR JUMP JUMPDEST POP PUSH2 0x62E JUMP JUMPDEST PUSH1 0x0 DUP2 PUSH1 0x1 PUSH1 0x0 DUP1 SLOAD DUP2 MSTORE PUSH1 0x20 ADD SWAP1 DUP2 MSTORE PUSH1 0x20 ADD PUSH1 0x0 KECCAK256 SWAP1 DUP2 PUSH2 0x192 SWAP2 SWAP1 PUSH2 0x43E JUMP JUMPDEST POP PUSH1 0x0 DUP1 DUP2 SLOAD DUP1 SWAP3 SWAP2 SWAP1 PUSH2 0x1A5 SWAP1 PUSH2 0x53F JUMP JUMPDEST SWAP2 SWAP1 POP SSTORE POP PUSH1 0x0 SLOAD PUSH32 0xF2B4D6F691DB4B4BA526B273F4822D16E6EBBC057FCF5C47A34DB32B73504F52 DUP4 PUSH1 0x40 MLOAD PUSH2 0x1DC SWAP2 SWAP1 PUSH2 0x60C JUMP JUMPDEST PUSH1 0x40 MLOAD DUP1 SWAP2 SUB SWAP1 LOG2 PUSH1 0x0 SLOAD SWAP1 POP SWAP2 SWAP1 POP JUMP JUMPDEST PUSH1 0x0 DUP2 MLOAD SWAP1 POP SWAP2 SWAP1 POP JUMP JUMPDEST PUSH32 0x4E487B7100000000000000000000000000000000000000000000000000000000 PUSH1 0x0 MSTORE PUSH1 0x41 PUSH1 0x4 MSTORE PUSH1 0x24 PUSH1 0x0 REVERT JUMPDEST PUSH32 0x4E487B7100000000000000000000000000000000000000000000000000000000 PUSH1 0x0 MSTORE PUSH1 0x22 PUSH1 0x4 MSTORE PUSH1 0x24 PUSH1 0x0 REVERT JUMPDEST PUSH1 0x0 PUSH1 0x2 DUP3 DIV SWAP1 POP PUSH1 0x1 DUP3 AND DUP1 PUSH2 0x26F JUMPI PUSH1 0x7F DUP3 AND SWAP2 POP JUMPDEST PUSH1 0x20 DUP3 LT DUP2 SUB PUSH2 0x282 JUMPI PUSH2 0x281 PUSH2 0x228 JUMP JUMPDEST JUMPDEST POP SWAP2 SWAP1 POP JUMP JUMPDEST PUSH1 0x0 DUP2 SWAP1 POP DUP2 PUSH1 0x0 MSTORE PUSH1 0x20 PUSH1 0x0 KECCAK256 SWAP1 POP SWAP2 SWAP1 POP JUMP JUMPDEST PUSH1 0x0 PUSH1 0x20 PUSH1 0x1F DUP4 ADD DIV SWAP1 POP SWAP2 SWAP1 POP JUMP JUMPDEST PUSH1 0x0 DUP3 DUP3 SHL SWAP1 POP SWAP3 SWAP2 POP POP JUMP JUMPDEST PUSH1 0x0 PUSH1 0x8 DUP4 MUL PUSH2 0x2EA PUSH32 0xFFFFFFFFFFFFFFFFFFFFFFFFFFFFFFFFFFFFFFFFFFFFFFFFFFFFFFFFFFFFFFFF DUP3 PUSH2 0x2AD JUMP JUMPDEST PUSH2 0x2F4 DUP7 DUP4 PUSH2 0x2AD JUMP JUMPDEST SWAP6 POP DUP1 NOT DUP5 AND SWAP4 POP DUP1 DUP7 AND DUP5 OR SWAP3 POP POP POP SWAP4 SWAP3 POP POP POP JUMP JUMPDEST PUSH1 0x0 DUP2 SWAP1 POP SWAP2 SWAP1 POP JUMP JUMPDEST PUSH1 0x0 DUP2 SWAP1 POP SWAP2 SWAP1 POP JUMP JUMPDEST PUSH1 0x0 PUSH2 0x33B PUSH2 0x336 PUSH2 0x331 DUP5 PUSH2 0x30C JUMP JUMPDEST PUSH2 0x316 JUMP JUMPDEST PUSH2 0x30C JUMP JUMPDEST SWAP1 POP SWAP2 SWAP1 POP JUMP JUMPDEST PUSH1 0x0 DUP2 SWAP1 POP SWAP2 SWAP1 POP JUMP JUMPDEST PUSH2 0x355 DUP4 PUSH2 0x320 JUMP JUMPDEST PUSH2 0x369 PUSH2 0x361 DUP3 PUSH2 0x342 JUMP JUMPDEST DUP5 DUP5 SLOAD PUSH2 0x2BA JUMP JUMPDEST DUP3 SSTORE POP POP POP POP JUMP JUMPDEST PUSH1 0x0 SWAP1 JUMP JUMPDEST PUSH2 0x37E PUSH2 0x371 JUMP JUMPDEST PUSH2 0x389 DUP2 DUP5 DUP5 PUSH2 0x34C JUMP JUMPDEST POP POP POP JUMP JUMPDEST JUMPDEST DUP2 DUP2 LT ISZERO PUSH2 0x3AD JUMPI PUSH2 0x3A2 PUSH1 0x0 DUP3 PUSH2 0x376 JUMP JUMPDEST PUSH1 0x1 DUP2 ADD SWAP1 POP PUSH2 0x38F JUMP JUMPDEST POP POP JUMP JUMPDEST PUSH1 0x1F DUP3 GT ISZERO PUSH2 0x3F2 JUMPI PUSH2 0x3C3 DUP2 PUSH2 0x288 JUMP JUMPDEST PUSH2 0x3CC DUP5 PUSH2 0x29D JUMP JUMPDEST DUP2 ADD PUSH1 0x20 DUP6 LT ISZERO PUSH2 0x3DB JUMPI DUP2 SWAP1 POP JUMPDEST PUSH2 0x3EF PUSH2 0x3E7 DUP6 PUSH2 0x29D JUMP JUMPDEST DUP4 ADD DUP3 PUSH2 0x38E JUMP JUMPDEST POP POP JUMPDEST POP POP POP JUMP JUMPDEST PUSH1 0x0 DUP3 DUP3 SHR SWAP1 POP SWAP3 SWAP2 POP POP JUMP JUMPDEST PUSH1 0x0 PUSH2 0x415 PUSH1 0x0 NOT DUP5 PUSH1 0x8 MUL PUSH2 0x3F7 JUMP JUMPDEST NOT DUP1 DUP4 AND SWAP2 POP POP SWAP3 SWAP2 POP POP JUMP JUMPDEST PUSH1 0x0 PUSH2 0x42E DUP4 DUP4 PUSH2 0x404 JUMP JUMPDEST SWAP2 POP DUP3 PUSH1 0x2 MUL DUP3 OR SWAP1 POP SWAP3 SWAP2 POP POP JUMP JUMPDEST PUSH2 0x447 DUP3 PUSH2 0x1EE JUMP JUMPDEST PUSH8 0xFFFFFFFFFFFFFFFF DUP2 GT ISZERO PUSH2 0x460 JUMPI PUSH2 0x45F PUSH2 0x1F9 JUMP JUMPDEST JUMPDEST PUSH2 0x46A DUP3 SLOAD PUSH2 0x257 JUMP JUMPDEST PUSH2 0x475 DUP3 DUP3 DUP6 PUSH2 0x3B1 JUMP JUMPDEST PUSH1 0x0 PUSH1 0x20 SWAP1 POP PUSH1 0x1F DUP4 GT PUSH1 0x1 DUP2 EQ PUSH2 0x4A8 JUMPI PUSH1 0x0 DUP5 ISZERO PUSH2 0x496 JUMPI DUP3 DUP8 ADD MLOAD SWAP1 POP JUMPDEST PUSH2 0x4A0 DUP6 DUP3 PUSH2 0x422 JUMP JUMPDEST DUP7 SSTORE POP PUSH2 0x508 JUMP JUMPDEST PUSH1 0x1F NOT DUP5 AND PUSH2 0x4B6 DUP7 PUSH2 0x288 JUMP JUMPDEST PUSH1 0x0 JUMPDEST DUP3 DUP2 LT ISZERO PUSH2 0x4DE JUMPI DUP5 DUP10 ADD MLOAD DUP3 SSTORE PUSH1 0x1 DUP3 ADD SWAP2 POP PUSH1 0x20 DUP6 ADD SWAP5 POP PUSH1 0x20 DUP2 ADD SWAP1 POP PUSH2 0x4B9 JUMP JUMPDEST DUP7 DUP4 LT ISZERO PUSH2 0x4FB JUMPI DUP5 DUP10 ADD MLOAD PUSH2 0x4F7 PUSH1 0x1F DUP10 AND DUP3 PUSH2 0x404 JUMP JUMPDEST DUP4 SSTORE POP JUMPDEST PUSH1 0x1 PUSH1 0x2 DUP9 MUL ADD DUP9 SSTORE POP POP POP JUMPDEST POP POP POP POP POP POP JUMP JUMPDEST PUSH32 0x4E487B7100000000000000000000000000000000000000000000000000000000 PUSH1 0x0 MSTORE PUSH1 0x11 PUSH1 0x4 MSTORE PUSH1 0x24 PUSH1 0x0 REVERT JUMPDEST PUSH1 0x0 PUSH2 0x54A DUP3 PUSH2 0x30C JUMP JUMPDEST SWAP2 POP PUSH32 0xFFFFFFFFFFFFFFFFFFFFFFFFFFFFFFFFFFFFFFFFFFFFFFFFFFFFFFFFFFFFFFFF DUP3 SUB PUSH2 0x57C JUMPI PUSH2 0x57B PUSH2 0x510 JUMP JUMPDEST JUMPDEST PUSH1 0x1 DUP3 ADD SWAP1 POP SWAP2 SWAP1 POP JUMP JUMPDEST PUSH1 0x0 DUP3 DUP3 MSTORE PUSH1 0x20 DUP3 ADD SWAP1 POP SWAP3 SWAP2 POP POP JUMP JUMPDEST PUSH1 0x0 JUMPDEST DUP4 DUP2 LT ISZERO PUSH2 0x5B6 JUMPI DUP1 DUP3 ADD MLOAD DUP2 DUP5 ADD MSTORE PUSH1 0x20 DUP2 ADD SWAP1 POP PUSH2 0x59B JUMP JUMPDEST PUSH1 0x0 DUP5 DUP5 ADD MSTORE POP POP POP POP JUMP JUMPDEST PUSH1 0x0 PUSH1 0x1F NOT PUSH1 0x1F DUP4 ADD AND SWAP1 POP SWAP2 SWAP1 POP JUMP JUMPDEST PUSH1 0x0 PUSH2 0x5DE DUP3 PUSH2 0x1EE JUMP JUMPDEST PUSH2 0x5E8 DUP2 DUP6 PUSH2 0x587 JUMP JUMPDEST SWAP4 POP PUSH2 0x5F8 DUP2 DUP6 PUSH1 0x20 DUP7 ADD PUSH2 0x598 JUMP JUMPDEST PUSH2 0x601 DUP2 PUSH2 0x5C2 JUMP JUMPDEST DUP5 ADD SWAP2 POP POP SWAP3 SWAP2 POP POP JUMP JUMPDEST PUSH1 0x0 PUSH1 0x20 DUP3 ADD SWAP1 POP DUP2 DUP2 SUB PUSH1 0x0 DUP4 ADD MSTORE PUSH2 0x626 DUP2 DUP5 PUSH2 0x5D3 JUMP JUMPDEST SWAP1 POP SWAP3 SWAP2 POP POP JUMP JUMPDEST PUSH2 0xD5E DUP1 PUSH2 0x63D PUSH1 0x0 CODECOPY PUSH1 0x0 RETURN INVALID PUSH1 0x80 PUSH1 0x40 MSTORE CALLVALUE DUP1 ISZERO PUSH2 0x10 JUMPI PUSH1 0x0 DUP1 REVERT JUMPDEST POP PUSH1 0x4 CALLDATASIZE LT PUSH2 0x4C JUMPI PUSH1 0x0 CALLDATALOAD PUSH1 0xE0 SHR DUP1 PUSH4 0x87159746 EQ PUSH2 0x51 JUMPI DUP1 PUSH4 0x90B1DE26 EQ PUSH2 0x81 JUMPI DUP1 PUSH4 0x92117411 EQ PUSH2 0x9F JUMPI DUP1 PUSH4 0xD7BC7B85 EQ PUSH2 0xBB JUMPI JUMPDEST PUSH1 0x0 DUP1 REVERT JUMPDEST PUSH2 0x6B PUSH1 0x4 DUP1 CALLDATASIZE SUB DUP2 ADD SWAP1 PUSH2 0x66 SWAP2 SWAP1 PUSH2 0x3D0 JUMP JUMPDEST PUSH2 0xD7 JUMP JUMPDEST PUSH1 0x40 MLOAD PUSH2 0x78 SWAP2 SWAP1 PUSH2 0x432 JUMP JUMPDEST PUSH1 0x40 MLOAD DUP1 SWAP2 SUB SWAP1 RETURN JUMPDEST PUSH2 0x89 PUSH2 0x156 JUMP JUMPDEST PUSH1 0x40 MLOAD PUSH2 0x96 SWAP2 SWAP1 PUSH2 0x432 JUMP JUMPDEST PUSH1 0x40 MLOAD DUP1 SWAP2 SUB SWAP1 RETURN JUMPDEST PUSH2 0xB9 PUSH1 0x4 DUP1 CALLDATASIZE SUB DUP2 ADD SWAP1 PUSH2 0xB4 SWAP2 SWAP1 PUSH2 0x54B JUMP JUMPDEST PUSH2 0x15C JUMP JUMPDEST STOP JUMPDEST PUSH2 0xD5 PUSH1 0x4 DUP1 CALLDATASIZE SUB DUP2 ADD SWAP1 PUSH2 0xD0 SWAP2 SWAP1 PUSH2 0x632 JUMP JUMPDEST PUSH2 0x1E8 JUMP JUMPDEST STOP JUMPDEST PUSH1 0x0 DUP2 PUSH1 0x1 PUSH1 0x0 DUP1 SLOAD DUP2 MSTORE PUSH1 0x20 ADD SWAP1 DUP2 MSTORE PUSH1 0x20 ADD PUSH1 0x0 KECCAK256 SWAP1 DUP2 PUSH2 0xFA SWAP2 SWAP1 PUSH2 0x904 JUMP JUMPDEST POP PUSH1 0x0 DUP1 DUP2 SLOAD DUP1 SWAP3 SWAP2 SWAP1 PUSH2 0x10D SWAP1 PUSH2 0xA05 JUMP JUMPDEST SWAP2 SWAP1 POP SSTORE POP PUSH1 0x0 SLOAD PUSH32 0xF2B4D6F691DB4B4BA526B273F4822D16E6EBBC057FCF5C47A34DB32B73504F52 DUP4 PUSH1 0x40 MLOAD PUSH2 0x144 SWAP2 SWAP1 PUSH2 0xAC1 JUMP JUMPDEST PUSH1 0x40 MLOAD DUP1 SWAP2 SUB SWAP1 LOG2 PUSH1 0x0 SLOAD SWAP1 POP SWAP2 SWAP1 POP JUMP JUMPDEST PUSH1 0x0 SLOAD DUP2 JUMP JUMPDEST PUSH1 0x0 CALLER TIMESTAMP DUP7 PUSH1 0x40 MLOAD PUSH1 0x20 ADD PUSH2 0x173 SWAP4 SWAP3 SWAP2 SWAP1 PUSH2 0xB33 JUMP JUMPDEST PUSH1 0x40 MLOAD PUSH1 0x20 DUP2 DUP4 SUB SUB DUP2 MSTORE SWAP1 PUSH1 0x40 MSTORE DUP1 MLOAD SWAP1 PUSH1 0x20 ADD KECCAK256 SWAP1 POP DUP1 DUP6 CALLER PUSH20 0xFFFFFFFFFFFFFFFFFFFFFFFFFFFFFFFFFFFFFFFF AND PUSH32 0x1C2FAAD59419CC2AD51C60D24EA447550218DEDF81EC3ED7078CC2D350C312A7 DUP8 DUP8 DUP8 TIMESTAMP PUSH1 0x40 MLOAD PUSH2 0x1D9 SWAP5 SWAP4 SWAP3 SWAP2 SWAP1 PUSH2 0xC28 JUMP JUMPDEST PUSH1 0x40 MLOAD DUP1 SWAP2 SUB SWAP1 LOG4 POP POP POP POP POP JUMP JUMPDEST PUSH1 0x0 DUP5 DUP5 CALLER TIMESTAMP PUSH1 0x40 MLOAD PUSH1 0x20 ADD PUSH2 0x201 SWAP5 SWAP4 SWAP3 SWAP2 SWAP1 PUSH2 0xC82 JUMP JUMPDEST PUSH1 0x40 MLOAD PUSH1 0x20 DUP2 DUP4 SUB SUB DUP2 MSTORE SWAP1 PUSH1 0x40 MSTORE DUP1 MLOAD SWAP1 PUSH1 0x20 ADD KECCAK256 SWAP1 POP DUP1 CALLER PUSH20 0xFFFFFFFFFFFFFFFFFFFFFFFFFFFFFFFFFFFFFFFF AND DUP7 PUSH32 0x65E20209D55C1234CE2C1A14FB392A6E2AD27E93A0F3646E1F5CDE292AFEA423 DUP7 DUP9 DUP8 TIMESTAMP PUSH1 0x40 MLOAD PUSH2 0x267 SWAP5 SWAP4 SWAP3 SWAP2 SWAP1 PUSH2 0xCCE JUMP JUMPDEST PUSH1 0x40 MLOAD DUP1 SWAP2 SUB SWAP1 LOG4 POP POP POP POP POP JUMP JUMPDEST PUSH1 0x0 PUSH1 0x40 MLOAD SWAP1 POP SWAP1 JUMP JUMPDEST PUSH1 0x0 DUP1 REVERT JUMPDEST PUSH1 0x0 DUP1 REVERT JUMPDEST PUSH1 0x0 DUP1 REVERT JUMPDEST PUSH1 0x0 DUP1 REVERT JUMPDEST PUSH1 0x0 PUSH1 0x1F NOT PUSH1 0x1F DUP4 ADD AND SWAP1 POP SWAP2 SWAP1 POP JUMP JUMPDEST PUSH32 0x4E487B7100000000000000000000000000000000000000000000000000000000 PUSH1 0x0 MSTORE PUSH1 0x41 PUSH1 0x4 MSTORE PUSH1 0x24 PUSH1 0x0 REVERT JUMPDEST PUSH2 0x2DD DUP3 PUSH2 0x294 JUMP JUMPDEST DUP2 ADD DUP2 DUP2 LT PUSH8 0xFFFFFFFFFFFFFFFF DUP3 GT OR ISZERO PUSH2 0x2FC JUMPI PUSH2 0x2FB PUSH2 0x2A5 JUMP JUMPDEST JUMPDEST DUP1 PUSH1 0x40 MSTORE POP POP POP JUMP JUMPDEST PUSH1 0x0 PUSH2 0x30F PUSH2 0x276 JUMP JUMPDEST SWAP1 POP PUSH2 0x31B DUP3 DUP3 PUSH2 0x2D4 JUMP JUMPDEST SWAP2 SWAP1 POP JUMP JUMPDEST PUSH1 0x0 PUSH8 0xFFFFFFFFFFFFFFFF DUP3 GT ISZERO PUSH2 0x33B JUMPI PUSH2 0x33A PUSH2 0x2A5 JUMP JUMPDEST JUMPDEST PUSH2 0x344 DUP3 PUSH2 0x294 JUMP JUMPDEST SWAP1 POP PUSH1 0x20 DUP2 ADD SWAP1 POP SWAP2 SWAP1 POP JUMP JUMPDEST DUP3 DUP2 DUP4 CALLDATACOPY PUSH1 0x0 DUP4 DUP4 ADD MSTORE POP POP POP JUMP JUMPDEST PUSH1 0x0 PUSH2 0x373 PUSH2 0x36E DUP5 PUSH2 0x320 JUMP JUMPDEST PUSH2 0x305 JUMP JUMPDEST SWAP1 POP DUP3 DUP2 MSTORE PUSH1 0x20 DUP2 ADD DUP5 DUP5 DUP5 ADD GT ISZERO PUSH2 0x38F JUMPI PUSH2 0x38E PUSH2 0x28F JUMP JUMPDEST JUMPDEST PUSH2 0x39A DUP5 DUP3 DUP6 PUSH2 0x351 JUMP JUMPDEST POP SWAP4 SWAP3 POP POP POP JUMP JUMPDEST PUSH1 0x0 DUP3 PUSH1 0x1F DUP4 ADD SLT PUSH2 0x3B7 JUMPI PUSH2 0x3B6 PUSH2 0x28A JUMP JUMPDEST JUMPDEST DUP2 CALLDATALOAD PUSH2 0x3C7 DUP5 DUP3 PUSH1 0x20 DUP7 ADD PUSH2 0x360 JUMP JUMPDEST SWAP2 POP POP SWAP3 SWAP2 POP POP JUMP JUMPDEST PUSH1 0x0 PUSH1 0x20 DUP3 DUP5 SUB SLT ISZERO PUSH2 0x3E6 JUMPI PUSH2 0x3E5 PUSH2 0x280 JUMP JUMPDEST JUMPDEST PUSH1 0x0 DUP3 ADD CALLDATALOAD PUSH8 0xFFFFFFFFFFFFFFFF DUP2 GT ISZERO PUSH2 0x404 JUMPI PUSH2 0x403 PUSH2 0x285 JUMP JUMPDEST JUMPDEST PUSH2 0x410 DUP5 DUP3 DUP6 ADD PUSH2 0x3A2 JUMP JUMPDEST SWAP2 POP POP SWAP3 SWAP2 POP POP JUMP JUMPDEST PUSH1 0x0 DUP2 SWAP1 POP SWAP2 SWAP1 POP JUMP JUMPDEST PUSH2 0x42C DUP2 PUSH2 0x419 JUMP JUMPDEST DUP3 MSTORE POP POP JUMP JUMPDEST PUSH1 0x0 PUSH1 0x20 DUP3 ADD SWAP1 POP PUSH2 0x447 PUSH1 0x0 DUP4 ADD DUP5 PUSH2 0x423 JUMP JUMPDEST SWAP3 SWAP2 POP POP JUMP JUMPDEST PUSH1 0x0 DUP2 SWAP1 POP SWAP2 SWAP1 POP JUMP JUMPDEST PUSH2 0x460 DUP2 PUSH2 0x44D JUMP JUMPDEST DUP2 EQ PUSH2 0x46B JUMPI PUSH1 0x0 DUP1 REVERT JUMPDEST POP JUMP JUMPDEST PUSH1 0x0 DUP2 CALLDATALOAD SWAP1 POP PUSH2 0x47D DUP2 PUSH2 0x457 JUMP JUMPDEST SWAP3 SWAP2 POP POP JUMP JUMPDEST PUSH1 0x0 PUSH8 0xFFFFFFFFFFFFFFFF DUP3 GT ISZERO PUSH2 0x49E JUMPI PUSH2 0x49D PUSH2 0x2A5 JUMP JUMPDEST JUMPDEST PUSH1 0x20 DUP3 MUL SWAP1 POP PUSH1 0x20 DUP2 ADD SWAP1 POP SWAP2 SWAP1 POP JUMP JUMPDEST PUSH1 0x0 DUP1 REVERT JUMPDEST PUSH1 0x0 PUSH2 0x4C7 PUSH2 0x4C2 DUP5 PUSH2 0x483 JUMP JUMPDEST PUSH2 0x305 JUMP JUMPDEST SWAP1 POP DUP1 DUP4 DUP3 MSTORE PUSH1 0x20 DUP3 ADD SWAP1 POP PUSH1 0x20 DUP5 MUL DUP4 ADD DUP6 DUP2 GT ISZERO PUSH2 0x4EA JUMPI PUSH2 0x4E9 PUSH2 0x4AF JUMP JUMPDEST JUMPDEST DUP4 JUMPDEST DUP2 DUP2 LT ISZERO PUSH2 0x513 JUMPI DUP1 PUSH2 0x4FF DUP9 DUP3 PUSH2 0x46E JUMP JUMPDEST DUP5 MSTORE PUSH1 0x20 DUP5 ADD SWAP4 POP POP PUSH1 0x20 DUP2 ADD SWAP1 POP PUSH2 0x4EC JUMP JUMPDEST POP POP POP SWAP4 SWAP3 POP POP POP JUMP JUMPDEST PUSH1 0x0 DUP3 PUSH1 0x1F DUP4 ADD SLT PUSH2 0x532 JUMPI PUSH2 0x531 PUSH2 0x28A JUMP JUMPDEST JUMPDEST DUP2 CALLDATALOAD PUSH2 0x542 DUP5 DUP3 PUSH1 0x20 DUP7 ADD PUSH2 0x4B4 JUMP JUMPDEST SWAP2 POP POP SWAP3 SWAP2 POP POP JUMP JUMPDEST PUSH1 0x0 DUP1 PUSH1 0x0 DUP1 PUSH1 0x80 DUP6 DUP8 SUB SLT ISZERO PUSH2 0x565 JUMPI PUSH2 0x564 PUSH2 0x280 JUMP JUMPDEST JUMPDEST PUSH1 0x0 PUSH2 0x573 DUP8 DUP3 DUP9 ADD PUSH2 0x46E JUMP JUMPDEST SWAP5 POP POP PUSH1 0x20 DUP6 ADD CALLDATALOAD PUSH8 0xFFFFFFFFFFFFFFFF DUP2 GT ISZERO PUSH2 0x594 JUMPI PUSH2 0x593 PUSH2 0x285 JUMP JUMPDEST JUMPDEST PUSH2 0x5A0 DUP8 DUP3 DUP9 ADD PUSH2 0x51D JUMP JUMPDEST SWAP4 POP POP PUSH1 0x40 DUP6 ADD CALLDATALOAD PUSH8 0xFFFFFFFFFFFFFFFF DUP2 GT ISZERO PUSH2 0x5C1 JUMPI PUSH2 0x5C0 PUSH2 0x285 JUMP JUMPDEST JUMPDEST PUSH2 0x5CD DUP8 DUP3 DUP9 ADD PUSH2 0x3A2 JUMP JUMPDEST SWAP3 POP POP PUSH1 0x60 DUP6 ADD CALLDATALOAD PUSH8 0xFFFFFFFFFFFFFFFF DUP2 GT ISZERO PUSH2 0x5EE JUMPI PUSH2 0x5ED PUSH2 0x285 JUMP JUMPDEST JUMPDEST PUSH2 0x5FA DUP8 DUP3 DUP9 ADD PUSH2 0x3A2 JUMP JUMPDEST SWAP2 POP POP SWAP3 SWAP6 SWAP2 SWAP5 POP SWAP3 POP JUMP JUMPDEST PUSH2 0x60F DUP2 PUSH2 0x419 JUMP JUMPDEST DUP2 EQ PUSH2 0x61A JUMPI PUSH1 0x0 DUP1 REVERT JUMPDEST POP JUMP JUMPDEST PUSH1 0x0 DUP2 CALLDATALOAD SWAP1 POP PUSH2 0x62C DUP2 PUSH2 0x606 JUMP JUMPDEST SWAP3 SWAP2 POP POP JUMP JUMPDEST PUSH1 0x0 DUP1 PUSH1 0x0 DUP1 PUSH1 0x80 DUP6 DUP8 SUB SLT ISZERO PUSH2 0x64C JUMPI PUSH2 0x64B PUSH2 0x280 JUMP JUMPDEST JUMPDEST PUSH1 0x0 PUSH2 0x65A DUP8 DUP3 DUP9 ADD PUSH2 0x61D JUMP JUMPDEST SWAP5 POP POP PUSH1 0x20 DUP6 ADD CALLDATALOAD PUSH8 0xFFFFFFFFFFFFFFFF DUP2 GT ISZERO PUSH2 0x67B JUMPI PUSH2 0x67A PUSH2 0x285 JUMP JUMPDEST JUMPDEST PUSH2 0x687 DUP8 DUP3 DUP9 ADD PUSH2 0x3A2 JUMP JUMPDEST SWAP4 POP POP PUSH1 0x40 DUP6 ADD CALLDATALOAD PUSH8 0xFFFFFFFFFFFFFFFF DUP2 GT ISZERO PUSH2 0x6A8 JUMPI PUSH2 0x6A7 PUSH2 0x285 JUMP JUMPDEST JUMPDEST PUSH2 0x6B4 DUP8 DUP3 DUP9 ADD PUSH2 0x3A2 JUMP JUMPDEST SWAP3 POP POP PUSH1 0x60 DUP6 ADD CALLDATALOAD PUSH8 0xFFFFFFFFFFFFFFFF DUP2 GT ISZERO PUSH2 0x6D5 JUMPI PUSH2 0x6D4 PUSH2 0x285 JUMP JUMPDEST JUMPDEST PUSH2 0x6E1 DUP8 DUP3 DUP9 ADD PUSH2 0x3A2 JUMP JUMPDEST SWAP2 POP POP SWAP3 SWAP6 SWAP2 SWAP5 POP SWAP3 POP JUMP JUMPDEST PUSH1 0x0 DUP2 MLOAD SWAP1 POP SWAP2 SWAP1 POP JUMP JUMPDEST PUSH32 0x4E487B7100000000000000000000000000000000000000000000000000000000 PUSH1 0x0 MSTORE PUSH1 0x22 PUSH1 0x4 MSTORE PUSH1 0x24 PUSH1 0x0 REVERT JUMPDEST PUSH1 0x0 PUSH1 0x2 DUP3 DIV SWAP1 POP PUSH1 0x1 DUP3 AND DUP1 PUSH2 0x73F JUMPI PUSH1 0x7F DUP3 AND SWAP2 POP JUMPDEST PUSH1 0x20 DUP3 LT DUP2 SUB PUSH2 0x752 JUMPI PUSH2 0x751 PUSH2 0x6F8 JUMP JUMPDEST JUMPDEST POP SWAP2 SWAP1 POP JUMP JUMPDEST PUSH1 0x0 DUP2 SWAP1 POP DUP2 PUSH1 0x0 MSTORE PUSH1 0x20 PUSH1 0x0 KECCAK256 SWAP1 POP SWAP2 SWAP1 POP JUMP JUMPDEST PUSH1 0x0 PUSH1 0x20 PUSH1 0x1F DUP4 ADD DIV SWAP1 POP SWAP2 SWAP1 POP JUMP JUMPDEST PUSH1 0x0 DUP3 DUP3 SHL SWAP1 POP SWAP3 SWAP2 POP POP JUMP JUMPDEST PUSH1 0x0 PUSH1 0x8 DUP4 MUL PUSH2 0x7BA PUSH32 0xFFFFFFFFFFFFFFFFFFFFFFFFFFFFFFFFFFFFFFFFFFFFFFFFFFFFFFFFFFFFFFFF DUP3 PUSH2 0x77D JUMP JUMPDEST PUSH2 0x7C4 DUP7 DUP4 PUSH2 0x77D JUMP JUMPDEST SWAP6 POP DUP1 NOT DUP5 AND SWAP4 POP DUP1 DUP7 AND DUP5 OR SWAP3 POP POP POP SWAP4 SWAP3 POP POP POP JUMP JUMPDEST PUSH1 0x0 DUP2 SWAP1 POP SWAP2 SWAP1 POP JUMP JUMPDEST PUSH1 0x0 PUSH2 0x801 PUSH2 0x7FC PUSH2 0x7F7 DUP5 PUSH2 0x419 JUMP JUMPDEST PUSH2 0x7DC JUMP JUMPDEST PUSH2 0x419 JUMP JUMPDEST SWAP1 POP SWAP2 SWAP1 POP JUMP JUMPDEST PUSH1 0x0 DUP2 SWAP1 POP SWAP2 SWAP1 POP JUMP JUMPDEST PUSH2 0x81B DUP4 PUSH2 0x7E6 JUMP JUMPDEST PUSH2 0x82F PUSH2 0x827 DUP3 PUSH2 0x808 JUMP JUMPDEST DUP5 DUP5 SLOAD PUSH2 0x78A JUMP JUMPDEST DUP3 SSTORE POP POP POP POP JUMP JUMPDEST PUSH1 0x0 SWAP1 JUMP JUMPDEST PUSH2 0x844 PUSH2 0x837 JUMP JUMPDEST PUSH2 0x84F DUP2 DUP5 DUP5 PUSH2 0x812 JUMP JUMPDEST POP POP POP JUMP JUMPDEST JUMPDEST DUP2 DUP2 LT ISZERO PUSH2 0x873 JUMPI PUSH2 0x868 PUSH1 0x0 DUP3 PUSH2 0x83C JUMP JUMPDEST PUSH1 0x1 DUP2 ADD SWAP1 POP PUSH2 0x855 JUMP JUMPDEST POP POP JUMP JUMPDEST PUSH1 0x1F DUP3 GT ISZERO PUSH2 0x8B8 JUMPI PUSH2 0x889 DUP2 PUSH2 0x758 JUMP JUMPDEST PUSH2 0x892 DUP5 PUSH2 0x76D JUMP JUMPDEST DUP2 ADD PUSH1 0x20 DUP6 LT ISZERO PUSH2 0x8A1 JUMPI DUP2 SWAP1 POP JUMPDEST PUSH2 0x8B5 PUSH2 0x8AD DUP6 PUSH2 0x76D JUMP JUMPDEST DUP4 ADD DUP3 PUSH2 0x854 JUMP JUMPDEST POP POP JUMPDEST POP POP POP JUMP JUMPDEST PUSH1 0x0 DUP3 DUP3 SHR SWAP1 POP SWAP3 SWAP2 POP POP JUMP JUMPDEST PUSH1 0x0 PUSH2 0x8DB PUSH1 0x0 NOT DUP5 PUSH1 0x8 MUL PUSH2 0x8BD JUMP JUMPDEST NOT DUP1 DUP4 AND SWAP2 POP POP SWAP3 SWAP2 POP POP JUMP JUMPDEST PUSH1 0x0 PUSH2 0x8F4 DUP4 DUP4 PUSH2 0x8CA JUMP JUMPDEST SWAP2 POP DUP3 PUSH1 0x2 MUL DUP3 OR SWAP1 POP SWAP3 SWAP2 POP POP JUMP JUMPDEST PUSH2 0x90D DUP3 PUSH2 0x6ED JUMP JUMPDEST PUSH8 0xFFFFFFFFFFFFFFFF DUP2 GT ISZERO PUSH2 0x926 JUMPI PUSH2 0x925 PUSH2 0x2A5 JUMP JUMPDEST JUMPDEST PUSH2 0x930 DUP3 SLOAD PUSH2 0x727 JUMP JUMPDEST PUSH2 0x93B DUP3 DUP3 DUP6 PUSH2 0x877 JUMP JUMPDEST PUSH1 0x0 PUSH1 0x20 SWAP1 POP PUSH1 0x1F DUP4 GT PUSH1 0x1 DUP2 EQ PUSH2 0x96E JUMPI PUSH1 0x0 DUP5 ISZERO PUSH2 0x95C JUMPI DUP3 DUP8 ADD MLOAD SWAP1 POP JUMPDEST PUSH2 0x966 DUP6 DUP3 PUSH2 0x8E8 JUMP JUMPDEST DUP7 SSTORE POP PUSH2 0x9CE JUMP JUMPDEST PUSH1 0x1F NOT DUP5 AND PUSH2 0x97C DUP7 PUSH2 0x758 JUMP JUMPDEST PUSH1 0x0 JUMPDEST DUP3 DUP2 LT ISZERO PUSH2 0x9A4 JUMPI DUP5 DUP10 ADD MLOAD DUP3 SSTORE PUSH1 0x1 DUP3 ADD SWAP2 POP PUSH1 0x20 DUP6 ADD SWAP5 POP PUSH1 0x20 DUP2 ADD SWAP1 POP PUSH2 0x97F JUMP JUMPDEST DUP7 DUP4 LT ISZERO PUSH2 0x9C1 JUMPI DUP5 DUP10 ADD MLOAD PUSH2 0x9BD PUSH1 0x1F DUP10 AND DUP3 PUSH2 0x8CA JUMP JUMPDEST DUP4 SSTORE POP JUMPDEST PUSH1 0x1 PUSH1 0x2 DUP9 MUL ADD DUP9 SSTORE POP POP POP JUMPDEST POP POP POP POP POP POP JUMP JUMPDEST PUSH32 0x4E487B7100000000000000000000000000000000000000000000000000000000 PUSH1 0x0 MSTORE PUSH1 0x11 PUSH1 0x4 MSTORE PUSH1 0x24 PUSH1 0x0 REVERT JUMPDEST PUSH1 0x0 PUSH2 0xA10 DUP3 PUSH2 0x419 JUMP JUMPDEST SWAP2 POP PUSH32 0xFFFFFFFFFFFFFFFFFFFFFFFFFFFFFFFFFFFFFFFFFFFFFFFFFFFFFFFFFFFFFFFF DUP3 SUB PUSH2 0xA42 JUMPI PUSH2 0xA41 PUSH2 0x9D6 JUMP JUMPDEST JUMPDEST PUSH1 0x1 DUP3 ADD SWAP1 POP SWAP2 SWAP1 POP JUMP JUMPDEST PUSH1 0x0 DUP3 DUP3 MSTORE PUSH1 0x20 DUP3 ADD SWAP1 POP SWAP3 SWAP2 POP POP JUMP JUMPDEST PUSH1 0x0 JUMPDEST DUP4 DUP2 LT ISZERO PUSH2 0xA7C JUMPI DUP1 DUP3 ADD MLOAD DUP2 DUP5 ADD MSTORE PUSH1 0x20 DUP2 ADD SWAP1 POP PUSH2 0xA61 JUMP JUMPDEST PUSH1 0x0 DUP5 DUP5 ADD MSTORE POP POP POP POP JUMP JUMPDEST PUSH1 0x0 PUSH2 0xA93 DUP3 PUSH2 0x6ED JUMP JUMPDEST PUSH2 0xA9D DUP2 DUP6 PUSH2 0xA4D JUMP JUMPDEST SWAP4 POP PUSH2 0xAAD DUP2 DUP6 PUSH1 0x20 DUP7 ADD PUSH2 0xA5E JUMP JUMPDEST PUSH2 0xAB6 DUP2 PUSH2 0x294 JUMP JUMPDEST DUP5 ADD SWAP2 POP POP SWAP3 SWAP2 POP POP JUMP JUMPDEST PUSH1 0x0 PUSH1 0x20 DUP3 ADD SWAP1 POP DUP2 DUP2 SUB PUSH1 0x0 DUP4 ADD MSTORE PUSH2 0xADB DUP2 DUP5 PUSH2 0xA88 JUMP JUMPDEST SWAP1 POP SWAP3 SWAP2 POP POP JUMP JUMPDEST PUSH1 0x0 PUSH20 0xFFFFFFFFFFFFFFFFFFFFFFFFFFFFFFFFFFFFFFFF DUP3 AND SWAP1 POP SWAP2 SWAP1 POP JUMP JUMPDEST PUSH1 0x0 PUSH2 0xB0E DUP3 PUSH2 0xAE3 JUMP JUMPDEST SWAP1 POP SWAP2 SWAP1 POP JUMP JUMPDEST PUSH2 0xB1E DUP2 PUSH2 0xB03 JUMP JUMPDEST DUP3 MSTORE POP POP JUMP JUMPDEST PUSH2 0xB2D DUP2 PUSH2 0x44D JUMP JUMPDEST DUP3 MSTORE POP POP JUMP JUMPDEST PUSH1 0x0 PUSH1 0x60 DUP3 ADD SWAP1 POP PUSH2 0xB48 PUSH1 0x0 DUP4 ADD DUP7 PUSH2 0xB15 JUMP JUMPDEST PUSH2 0xB55 PUSH1 0x20 DUP4 ADD DUP6 PUSH2 0x423 JUMP JUMPDEST PUSH2 0xB62 PUSH1 0x40 DUP4 ADD DUP5 PUSH2 0xB24 JUMP JUMPDEST SWAP5 SWAP4 POP POP POP POP JUMP JUMPDEST PUSH1 0x0 DUP2 MLOAD SWAP1 POP SWAP2 SWAP1 POP JUMP JUMPDEST PUSH1 0x0 DUP3 DUP3 MSTORE PUSH1 0x20 DUP3 ADD SWAP1 POP SWAP3 SWAP2 POP POP JUMP JUMPDEST PUSH1 0x0 DUP2 SWAP1 POP PUSH1 0x20 DUP3 ADD SWAP1 POP SWAP2 SWAP1 POP JUMP JUMPDEST PUSH2 0xB9F DUP2 PUSH2 0x44D JUMP JUMPDEST DUP3 MSTORE POP POP JUMP JUMPDEST PUSH1 0x0 PUSH2 0xBB1 DUP4 DUP4 PUSH2 0xB96 JUMP JUMPDEST PUSH1 0x20 DUP4 ADD SWAP1 POP SWAP3 SWAP2 POP POP JUMP JUMPDEST PUSH1 0x0 PUSH1 0x20 DUP3 ADD SWAP1 POP SWAP2 SWAP1 POP JUMP JUMPDEST PUSH1 0x0 PUSH2 0xBD5 DUP3 PUSH2 0xB6A JUMP JUMPDEST PUSH2 0xBDF DUP2 DUP6 PUSH2 0xB75 JUMP JUMPDEST SWAP4 POP PUSH2 0xBEA DUP4 PUSH2 0xB86 JUMP JUMPDEST DUP1 PUSH1 0x0 JUMPDEST DUP4 DUP2 LT ISZERO PUSH2 0xC1B JUMPI DUP2 MLOAD PUSH2 0xC02 DUP9 DUP3 PUSH2 0xBA5 JUMP JUMPDEST SWAP8 POP PUSH2 0xC0D DUP4 PUSH2 0xBBD JUMP JUMPDEST SWAP3 POP POP PUSH1 0x1 DUP2 ADD SWAP1 POP PUSH2 0xBEE JUMP JUMPDEST POP DUP6 SWAP4 POP POP POP POP SWAP3 SWAP2 POP POP JUMP JUMPDEST PUSH1 0x0 PUSH1 0x80 DUP3 ADD SWAP1 POP DUP2 DUP2 SUB PUSH1 0x0 DUP4 ADD MSTORE PUSH2 0xC42 DUP2 DUP8 PUSH2 0xBCA JUMP JUMPDEST SWAP1 POP DUP2 DUP2 SUB PUSH1 0x20 DUP4 ADD MSTORE PUSH2 0xC56 DUP2 DUP7 PUSH2 0xA88 JUMP JUMPDEST SWAP1 POP DUP2 DUP2 SUB PUSH1 0x40 DUP4 ADD MSTORE PUSH2 0xC6A DUP2 DUP6 PUSH2 0xA88 JUMP JUMPDEST SWAP1 POP PUSH2 0xC79 PUSH1 0x60 DUP4 ADD DUP5 PUSH2 0x423 JUMP JUMPDEST SWAP6 SWAP5 POP POP POP POP POP JUMP JUMPDEST PUSH1 0x0 PUSH1 0x80 DUP3 ADD SWAP1 POP PUSH2 0xC97 PUSH1 0x0 DUP4 ADD DUP8 PUSH2 0x423 JUMP JUMPDEST DUP2 DUP2 SUB PUSH1 0x20 DUP4 ADD MSTORE PUSH2 0xCA9 DUP2 DUP7 PUSH2 0xA88 JUMP JUMPDEST SWAP1 POP PUSH2 0xCB8 PUSH1 0x40 DUP4 ADD DUP6 PUSH2 0xB15 JUMP JUMPDEST PUSH2 0xCC5 PUSH1 0x60 DUP4 ADD DUP5 PUSH2 0x423 JUMP JUMPDEST SWAP6 SWAP5 POP POP POP POP POP JUMP JUMPDEST PUSH1 0x0 PUSH1 0x80 DUP3 ADD SWAP1 POP DUP2 DUP2 SUB PUSH1 0x0 DUP4 ADD MSTORE PUSH2 0xCE8 DUP2 DUP8 PUSH2 0xA88 JUMP JUMPDEST SWAP1 POP DUP2 DUP2 SUB PUSH1 0x20 DUP4 ADD MSTORE PUSH2 0xCFC DUP2 DUP7 PUSH2 0xA88 JUMP JUMPDEST SWAP1 POP DUP2 DUP2 SUB PUSH1 0x40 DUP4 ADD MSTORE PUSH2 0xD10 DUP2 DUP6 PUSH2 0xA88 JUMP JUMPDEST SWAP1 POP PUSH2 0xD1F PUSH1 0x60 DUP4 ADD DUP5 PUSH2 0x423 JUMP JUMPDEST SWAP6 SWAP5 POP POP POP POP POP JUMP INVALID LOG2 PUSH5 0x6970667358 0x22 SLT KECCAK256 0xB9 SHR PUSH24 0x118EA9B35E4D47BE6579B4B379B9772022314995FC479F97 DUP11 PUSH5 0xADA67B6473 PUSH16 0x6C634300081A00330000000000000000 "
        },
        "methodIdentifiers": {
          "boardCount()": "90b1de26",
          "createBoard(string)": "87159746",
          "createPost(bytes32,bytes32[],string,string)": "92117411",
          "createThread(uint256,string,string,string)": "d7bc7b85"
        }
      }
    }
  }
}